:020000040800F2
:10000000283800200D020008673A00085B2E00081F
:10001000653A000899080008A141000800000000A6
:100020000000000000000000000000006B3A000823
:100030006109000800000000693A00086D3A0008F4
:1000400027020008270200082702000827020008EC
:1000500027020008270200082702000827020008DC
:1000600027020008270200082702000827020008CC
:10007000270200082702000827020008C10800081C
:10008000CD08000827020008270200082702000800
:100090009D08000827020008270200082702000820
:1000A000213B00083D3B000827020008270200080A
:1000B000593B0008653B0008713B00082702000817
:1000C000270200082702000827020008270200086C
:1000D000270200088941000895410008270200080E
:1000E000270200082702000827020008270200084C
:1000F000270200082702000827020008270200083C
:1001000027020008270200087D3B0008270200089C
:10011000E53C000827020008893B0008953B0008E1
:100120002702000827020008D90800082702000853
:1001300027020008270200082702000827020008FB
:10014000A908000827020008270200082702000863
:1001500027020008270200082702000827020008DB
:1001600027020008270200082702000827020008CB
:1001700027020008270200082702000800000000EC
:1001800027020008270200082702000827020008AB
:10019000270200082702000827020008270200089B
:1001A000270200082702000827020008270200088B
:1001B000270200082702000827020008270200087B
:1001C000270200082702000800000000270200089C
:1001D000270200082702000827020008270200085B
:1001E00027020008B50800082702000827020008B7
:1001F0002702000827020008DFF80CD000F0A0FA60
:1002000000480047AD6C00082838002006488047A9
:1002100006480047FEE7FEE7FEE7FEE7FEE7FEE7EB
:10022000FEE7FEE7FEE7FEE7113B0008F9010008E4
:100230002DE9F05F0546002092469B46884606461B
:10024000814640241BE0284641464746224600F0AE
:1002500069F853465A46C01A914110D311461846C0
:10026000224600F050F82D1A67EB01084F4622464F
:100270000120002100F047F817EB00094E41201E35
:10028000A4F10104DFDC484631462A464346BDE876
:10029000F09F40EA01039B0703D009E008C9121F41
:1002A00008C0042AFAD203E011F8013B00F8013B30
:1002B000521EF9D27047D2B201E000F8012B491E5C
:1002C000FBD270470022F6E710B513460A460446F3
:1002D0001946FFF7F0FF204610BD30B50B4601462A
:1002E00000202022012409E021FA02F59D4205D3D5
:1002F00003FA02F5491B04FA02F52844151EA2F17F
:100300000102F1DC30BD202A04DB203A00FA02F1C0
:10031000002070479140C2F1200320FA03F31943F3
:1003200090407047202A04DB203A21FA02F0002195
:10033000704721FA02F3D040C2F1200291400843F5
:10034000194670472DE9FE4F804681EA0300C00F31
:100350000C46009021F0004123F00045B8EB02006C
:10036000A94105D24046214690461C460B4602460E
:1003700023F00040104347D0270DC7F30A00C3F312
:100380000A510290401A019040286BDAC3F313001F
:1003900040F4801B0098924620B10023D2EB030A60
:1003A00063EB0B0B01985946C0F140025046FFF732
:1003B000AAFF06460D4650465946019A00F0D2F96A
:1003C00010EB08006141002487EA115284EAE773C8
:1003D0001A4340D0009A62B3019A012A4FEA0752A9
:1003E00015DC001B61EB02014FF0004202EA0752EC
:1003F000CDE90042001C41F5801132462B4600F049
:10040000D2F903B0BDE8F08F40462146F9E7001B62
:1004100061EB0201001C41F5801300185B412018BC
:10042000A2F5001747EB030140EAD570B6196D41FC
:1004300011E06D084FEA360645EAC0754FEA0752EB
:10044000001B61EB0201001C41F5801149084FEAD5
:1004500030000019514132462B4603B0BDE8F04F41
:1004600000F092B90098012240000023D0EB020274
:1004700063EBE073009821464FEAE074B8EB0000AC
:1004800061EB0401E9E783F000435BE781F00041A1
:1004900058E72DE9FE4F81EA030404F0004421F0FF
:1004A000004100944FF0000B23F0004350EA010498
:1004B0005ED052EA03045BD0C3F30A54C1F30A5579
:1004C0002C44A4F2F3340194A0FB0254C1F31301B1
:1004D00041F48011C3F3130343F4801301FB02447E
:1004E00000FB034E840A970A44EA815447EA835783
:1004F000A4FB076802958D0A05FB07854FEA932C3C
:1005000004FB0C542705029D4FEA065847EA1637AC
:10051000B5EB08056EEB070C870E920E47EA8117C4
:1005200042EA8312A7FB0201B6EB0B0164EB000465
:100530002B0D43EA0C335E1844EB1C50DA4651464F
:10054000E7FB0201C5F313044FEA0B3343EA1453EC
:100550004FEA0432019C43EA0603A4F10C0402941E
:10056000009CCDE900B400F01EF903B0BDE8F08FA7
:1005700000200146F9E72DE9F04D81EA030404F07B
:10058000004B21F0004514464FF0000A23F00041D3
:1005900050EA050220D054EA01021DD0C5F30A57E3
:1005A0000246C5F31303C1F31300C1F30A5640F426
:1005B000801543F48013A7EB0608101BD64608F2FB
:1005C000FD3873EB050002D308F1010801E0921831
:1005D0005B41B8F1000F03DA00200146BDE8F08D61
:1005E00000204FF48011064684460EE0171B73EB83
:1005F000050705D3121B63EB050306434CEA010C08
:1006000049084FEA300092185B4150EA0107EDD1EA
:1006100052EA030012D082EA040083EA050108438B
:1006200005D0101BAB4106D20122002306E00022B8
:100630004FF0004302E06FF0010253101AEB060086
:100640004CEB085110EB0A0041EB0B01BDE8F04DFB
:1006500000F09AB82DE9FE4FC3F30A5701F00045A8
:100660000024C1F30A56C3F31303C1F3130143F487
:10067000801312EB020AA64641F48011009543EB69
:10068000030CA7F1010B16E0B0EB0A0061EB0C01C3
:10069000071E71F1000707DA4FF00008D0EB0800E1
:1006A00085F0004568EB0101171A73EB0107EBD3E6
:1006B000761E001849415E45F6DA50EA010209D07B
:1006C000CDE900E500221346029600F06CF803B075
:1006D000BDE8F08F20460099F9E7C1F30A52C1F353
:1006E000130140F2FF3341F480119A4202DA0020F4
:1006F0000146704740F233439A42A2F2334202DC91
:100700005242FFF70FBEFFF7FEBD000030B5041EDA
:1007100071F1000404DB4FF00044404264EB01013E
:10072000141E73F1000405DB1C464FF000435242D7
:1007300063EB0403994208BF904230BD002070472C
:10074000064C074D06E0E06840F0010394E807001E
:1007500098471034AC42F6D3FFF752FD6878000892
:1007600088780008202A06DBCB17203A41FA02F0ED
:1007700043EAE07306E041FA02F3D040C2F12002FE
:10078000914008431946704710B5141E73F10004D8
:1007900008DA401C41F1000192185B411A4301D173
:1007A00020F0010010BD2DE9F04D92469B4611B19D
:1007B000B1FA81F202E0B0FA80F220329046FFF7FF
:1007C000A2FD04460F4640EA0A0041EA0B015346E7
:1007D0005A46084313D0114653EA010019D0C8F114
:1007E00040025046FFF79EFD05460E4650465946CC
:1007F0004246FFF788FD084305D0012004E020466B
:100800003946BDE8F08D0020054346EAE0762C43EA
:1008100037430A986305E40AA0EB08000022FD0AAA
:1008200044EA47540A3002D500200146E9E70105B1
:1008300010196941DDE9084500196941BDE8F04D2D
:10084000A2E770B58C1810F8015B15F0070301D111
:1008500010F8013B2A1106D110F8012B03E010F823
:10086000016B01F8016B5B1EF9D12B0705D4002346
:10087000521E0DD401F8013BFAE710F8013BCB1AE8
:10088000921C03E013F8015B01F8015B521EF9D5DD
:10089000A142D8D3002070BDFEE70000014800F05F
:1008A000F2B900005C020020014800F0ECB9000041
:1008B00084020020014800F0E6B90000AC020020EC
:1008C000014800F0B1BC000018070020014800F00A
:1008D000ABBC0000D8070020014800F0A5BC000018
:1008E0007807002001681823CAB2103AB2FBF3F26D
:1008F000054B6FF30901032A9B5CC36500D9091DF1
:100900008165084670470000A4750008014610B5CF
:1009100000208B694FF0C0748A6A53B1B3F5005F51
:1009200015D072B1012A0CD0022A0AD0032A09D1AB
:1009300004E01AB1012A06D0022A03D1C96AC9010A
:1009400000D5012010BDC96AA142FAD010BD002A0D
:10095000F7D0012AF2D0022AF3D0032AF3D010BD37
:10096000704772B6FEE790F82020012A07D0022ACD
:1009700005D0416A41F4802141620120704700683E
:1009800042690A43426100207047F0B590F8205058
:100990000468A468012D05D0022D03D0416A41F4FA
:1009A00080214DE014F0406F01D1E50045D50125CF
:1009B000C4F30164A5401D604FF4C0758B689BB102
:1009C000CE6833434E6843EAC603066805EB041756
:1009D000F35107684FF4C27303EB04130E69FE5022
:1009E000097D012905D009E00E88CB6843EA46530A
:1009F000EBE70168CE5846F48076CE50D2F8053049
:100A00004FF4C676117906EB041641EA0321036818
:100A1000995111784FF4C473D2F8012003EB0413F9
:100A200041EA02210268D150006805EB04114258E6
:100A300042F0010242500020F0BD416A41F4001131
:100A400041620120F0BD000010B590F8203002682E
:100A5000012B07D0022B05D0416A41F4802141626D
:100A6000012010BD3D4C3E48A24200D00246D2F8C3
:100A7000003243F00103C2F8003282420CD1D2F8B6
:100A8000000220F47C50C2F80002D2F800024B6A47
:100A900040EA0320C2F80002087D00F01F03012095
:100AA0009840D2F81C328343C2F81C32CB69B3B9E8
:100AB000D2F80C328343C2F80C328C894B6864F351
:100AC0001F434C6902EBC404C4F840320C890B6824
:100AD00064F31F434C6902EBC404C4F84432CB698D
:100AE000012B16D1D2F80C320343C2F80C320C8819
:100AF0004B6864F31F434C6902EBC404C4F84032F2
:100B00000C89CB6864F31F434C6902EBC404C4F83E
:100B100044328B69002BD2F804320ED00343C2F862
:100B200004320B69002BD2F8143208D00343C2F808
:100B30001432096A012904D008E08343EFE78343B4
:100B4000F5E7D2F81C120143C2F81C12D2F80002D9
:100B500020F00100C2F80002002010BD0034004067
:100B600000640040704770B590F82040012C05D01B
:100B7000022C03D0416A41F4802128E0046809B3C3
:100B80002469A40720D005684FF4D87404EB01143D
:100B90002D5915F00405956005682D591AD0ED08FA
:100BA000556005682C5904F00204D46005684FF4C0
:100BB000DA7404EB01142E5906F00F06082E0CD33C
:100BC00008250DE0E468DCE7416A41F40011416268
:100BD000012070BD6D0D1560E3E72D5905F00F057F
:100BE000156105682D59C5F30725956105682C59D0
:100BF000240C546104684FF4DC7202EB0112A45817
:100C00001C700468A458240A5C700468A458240C5E
:100C10009C700468A258120EDA7004684FF4DE72F9
:100C200002EB0112A4581C710468A458240A5C71D8
:100C30000468A458240C9C710468A258120EDA713E
:100C4000006829B1016941F020010161002070BDF7
:100C5000C16841F02001C160F8E70246002092F827
:100C60002010012901D002290CD111688A68520193
:100C700000D501208A68120100D5401C8968C9008E
:100C800000D5401C70472DE9F05F05460068002440
:100C90004669D0F804908768D0F80CB0D0F810A05E
:100CA000D0F81880F10748D0F90714D001218160ED
:100CB000B80703D5284600F056FA0CE0780702D5AD
:100CC0004FF4006407E0380702D54FF4805402E087
:100CD000284600F047FAF80516D529684FF48070C9
:100CE0008860B80503D5284600F03FFA0CE0780587
:100CF00002D544F4005407E0380502D544F480449A
:100D000002E0284600F030FAF80316D529684FF4BF
:100D100080308860B80303D5284600F028FA0CE03C
:100D2000780302D544F4004407E0380302D544F4C4
:100D3000803402E0284600F019FA300707D55FEA50
:100D4000CB6004D52968102044F40074C860700793
:100D50004FF0080707D55FEA0B7004D52868C76015
:100D6000284600F0BFF9B00706D52868C06880079C
:100D700002D0284600F0B7F9700607D55FEACA60CE
:100D800004D52968102044F480640861B00607D5B2
:100D90005FEA0A7004D528680761284600F0B4F9B4
:100DA000F00606D528680069800702D0284600F0C2
:100DB000ACF9B00308D55FEAC96005D529681020F1
:100DC0004860284600F0A2F9F00307D55FEA0970F1
:100DD00004D528684760284600F0CAF9300446D593
:100DE0005FEA497040D5F00504D55FEAC87001D0CC
:100DF00044F00104B00504D55FEA887001D544F0E1
:100E00000204700504D55FEA487001D544F004047B
:100E1000300529D518F0700F26D008F07000402852
:100E200015D006DC102809D020280AD0302816D189
:100E30000AE050280ED0602811D10EE044F00804DA
:100E40000DE044F010040AE044F0200407E044F010
:100E5000400404E044F0800401E044F48074286815
:100E6000816921F070018161296804204860002CAB
:100E700005D0686A204368622846FFF773FEBDE824
:100E8000F09F70B5040003D094F8200010B104E086
:100E9000012070BD204600F081F82068016841F013
:100EA0000101016000F000FC0526054604E000F0A9
:100EB000FBFB401B0A2811D820684068C007F6D009
:100EC0002068016821F00201016000F0EDFB054699
:100ED0000BE000F0E9FB401B0A2806D9606A40F4E9
:100EE0000030606284F82060D2E7206840688007A4
:100EF000EFD4207E0128206801683DD021F08001D8
:100F00000160607E01282068016838D021F040012E
:100F10000160A07E01282068016833D021F0200103
:100F20000160E07E0128206801682ED041F01001A8
:100F30000160207F01282068016829D021F0080184
:100F40000160607F01282068016824D021F004013D
:100F50000160D4E902010843D4E9041211430843B3
:100F60006168491E08432168C86100206062012051
:100F700084F82000002070BD41F08001C0E741F0FE
:100F80004001C5E741F02001CAE721F01001CFE799
:100F900041F00801D4E741F00401D9E72DE9F0431D
:100FA00087B0044614216846FFF78CF9484D0026A7
:100FB000484B0227DFF814814FF0030C22681033EE
:100FC00029684FF00909434C4348491C424524D144
:100FD0000129296007D1196841F000711960196869
:100FE00001F000710591216841F002012160216842
:100FF000CDE9026C01F0020105914FF44071CDF88A
:101000001090CDE90017694600F058FA002214202C
:10101000114600F0F3FB14202EE0DFF8C0804245BB
:101020002FD11A6842F080621A601A68012902F012
:1010300080620592296007D1196841F0007119603A
:10104000196801F000710591216841F002012160E9
:101050002168CDE9026C01F0020105916021CDF813
:101060001090CDE90017694600F028FA00224020D0
:10107000114600F0C3FB402000F0B2FB07B0BDE812
:10108000F08317498A42F9D1196841F40051196077
:10109000196801F400510591216841F002012160B5
:1010A0002168029601F0020105911821CDE900178F
:1010B0000B21CDE903C1694600F000FA0022692046
:1010C000114600F09BFB6920D6E700000064004059
:1010D0000000002030380240000402400068004058
:1010E00000340040704710B58AB0044600216A46BB
:1010F00007ABFFF738FD002804D107AA6946204650
:1011000002F0FCF80AB010BD70477047704770B528
:10111000044690F82000012804D0606A40F40020C2
:10112000606217E0022084F820002068016821F046
:101130000101016000F0B8FA05460DE000F0B4FAD4
:10114000401B0A2808D9606A40F40030606205201C
:1011500084F82000012070BD20684068C007EDD1F0
:10116000606270BD70477047704770477047704746
:1011700070472DE9F041876D044600F095FA054669
:1011800094F835000026022806D0802060650120F2
:1011900084F83460BDE8F0812068016821F0160110
:1011A00001602068416921F080014161206C08B92B
:1011B000A06C20B12068016821F00801016020685E
:1011C000016821F0010101600CE000F06DFA401BA4
:1011D000052807D920206065032084F8350084F8AD
:1011E0003460D7E720680068C007EED194F85C103F
:1011F0003F208840B860012084F83500002084F842
:101200003460C7E790F83510022903D0802141658A
:1012100001207047052180F835100068016821F031
:1012200001010160002070472DE9F843044665483C
:101230004FF00009CDF800904FF41651A56D0068ED
:10124000B0FBF1F72E68082194F85C2001FA02F057
:1012500030420FD02068026852070BD5026822F096
:101260000402026094F85C008140A960606D40F067
:101270000100606594F85C104FF0010808FA01F075
:10128000304208D021684969090604D5A860606D1C
:1012900040F00200606594F85C1004208840304201
:1012A00008D021680968890704D5A860606D40F0FE
:1012B0000400606594F85C1010208840304218D01B
:1012C00021680968090714D5A860206801684903E6
:1012D00004D50068000308D5A16C07E00168C905C2
:1012E00003D4016821F008010160216C09B1204696
:1012F000884794F85C1020208840304231D0216823
:101300000968C9062DD5A86094F83500052820681D
:10131000016806D0490347D5006800031DD4616CFD
:101320001CE021F0160101602068416921F0800174
:101330004161206C08B9A06C20B12068016821F0DF
:101340000801016094F85C103F208840A86084F890
:10135000358084F83490216D1FE0E16B09B120469F
:101360008847606D00282BD0606DC00714D0052021
:1013700084F835002068016821F0010101600098BF
:10138000401C0090B84203D820680068C007F6D11E
:1013900084F8358084F83490E16C002910D001B0D5
:1013A0002046BDE8F04308470168C905D5D4016867
:1013B00021F01001016084F8358084F83490CCE786
:1013C000BDE8F8831000002070B5044600F06CF909
:1013D00005465CB1022084F83500002684F83460AC
:1013E0002068016821F0010101600CE0012070BD5E
:1013F00000F05AF9401B052805D92020606503201C
:1014000084F8350070BD20680068C007F0D12168FD
:101410000A6820480240D4E901031843D4E903359F
:101420002B43184363691843A3691843E3691843BE
:10143000236A18431043626A042A03D1D4E90B23B8
:101440001A43104308602068406920F00701606A71
:10145000042840EA01050CD1A06A0543E06A40B1C6
:101460002046FFF753FA20B14020606584F83560CC
:10147000BCE7206845612046FFF734FA94F85C2009
:101480003F21914081606665012084F8350000208D
:1014900070BD00003F8010E070B5044600F004F914
:1014A0000546601C02D004480078044400F0FCF8B3
:1014B000401BA042FAD370BD040000202DE9F84F74
:1014C000DFF8B091002203274FF00F0CA9F1040BB5
:1014D00009F1040AABF1040E0B68012595402B407D
:1014E000AB426ED10C7904F00304012C01D0022C24
:1014F00015D18668540007FA04F826EA0806D1F8E0
:101500000C8008FA04F848EA0608C0F80880446825
:10151000AC430D79C5F300159540254345600C7922
:10152000E443A40708D0C568540007FA04F6B5439D
:101530008E68A6402E43C6600C7904F00304022C8A
:1015400011D1D40800EB8406356A5407E40E0CFA76
:1015500004F825EA0805D1F8108008FA04F848EAEA
:101560000508C6F820800568540007FA04F6B5435C
:101570000E7906F00306A6402E4306604C6814F46C
:10158000403F70D03C4C256845F480452560246878
:1015900022F0030504F480440094384C05EB040861
:1015A000D8F808589407260F0CFA06F4A543344CD3
:1015B000A04201D100242EE0324CA04202D10124ED
:1015C00029E050E0304CA04201D1022423E02F4C0E
:1015D000A04201D103241EE02D4CA04201D10424DD
:1015E00019E02C4CA04201D1052414E02A4CA04261
:1015F00001D106240FE0294CA04201D107240AE0C2
:10160000274CA04201D1082405E0264CA04201D17C
:10161000092400E00A24B4402C43C8F80848D9F84B
:1016200000404D464E689C43F60200D51C432C609A
:10163000DAF8004055464E689C43B60200D51C437C
:101640002C60DBF800405D464E689C43B60300D535
:101650001C432C60DEF8004075464E689C43F60340
:1016600000D51C432C60521C102AFFF435AFBDE896
:10167000F88F0000083C014044380240003001402F
:10168000000002400004024000080240000C02403A
:10169000001002400014024000180240001C0240EA
:1016A000002002400024024001488068704700008A
:1016B000040000200248816802781144816070476C
:1016C00004000020032010B500F0B8F8002000F05E
:1016D00005F800F06DF8002010BD000070B50D4D4C
:1016E00004464FF47A712878B1FBF0F00A49096892
:1016F000B1FBF0F000F032FE48B9102C07D2002206
:101700002146501E00F07AF800206C6070BD012068
:1017100070BD00000400002010000020134A417832
:101720001160124908310A6822F001020A600B1F99
:1017300042681A60027BC37A120742EA0362837A24
:1017400042EAC342437B42EA8342837B42EA43420A
:10175000C37B42EA0342437A42EA0322037A0078D7
:1017600042EA430202430A607047000098ED00E03D
:10177000BFF35F8F0448016821F4803101600249A2
:10178000002070310860704724ED00E0074940F008
:101790000100086005487038016841F4803101603B
:1017A000BFF34F8FBFF36F8F7047000094ED00E0E1
:1017B0000A4808B5016841F080510160006800F0F6
:1017C000805000900548001D016841F4804101608F
:1017D000006800F48040009008BD000040380240DE
:1017E000002809DB012100F01F0291404009800020
:1017F00000F1E020C0F80011704700000E4BF0B47B
:101800001B68C3F30223C3F10704042C00D904248A
:101810001D1D072D01D2002300E0DB1E012606FA64
:1018200004F56D1E0D409D409E40761E164045EA13
:101830000601F0BC02F0F1BC0CED00E0064A00F03D
:10184000070110684FF6FF03184040EA01200349E2
:1018500008431060704700000CED00E00000FA053E
:101860001848F8B5016841F0805101600068164DD4
:1018700000F080500090286840F480302860FFF726
:1018800013FF4FF47A76044604E0FFF70DFF001BC8
:10189000B0420FD86868C003F7D5286840F400301C
:1018A0002860FFF701FF044606E0FFF7FDFE001B7E
:1018B000B04201D90320F8BD68688003F5D5002047
:1018C000F8BD000040380240007000402DE9F84F9C
:1018D000044600780026DFF820943546C0070ED075
:1018E000D9F8001021F40001C9F80010D9F800104F
:1018F000626B1143C9F80010606B00B901262068C3
:10190000FE4F00030ED53868E16B20F44010084309
:101910003860E06BB0F5801F01D010B102E0012605
:1019200000E001252068C0020ED53868216C20F443
:10193000400008433860206CB0F5800F01D010B132
:1019400002E0012600E001252068C10100D5012642
:10195000800666D5E8483830016841F08051016062
:101960000068DFF89CA300F080500090DAF80010C7
:1019700041F48071CAF80010FFF796FE804605E03A
:10198000FFF792FEA0EB080064287DD8DAF800008B
:10199000C005F5D5DFF864A3AAF11C0ADAF8000047
:1019A00010F440702AD0218E01F44071814225D07C
:1019B000DAF80010DAF8002021F4407142F48032A5
:1019C000CAF80020DAF8002022F48032CAF8002099
:1019D000CAF80010DAF80000C0070FD0FFF764FE65
:1019E000804641F2883B05E0FFF75EFEA0EB080170
:1019F0005945CAD8DAF800008007F5D5206BC0F346
:101A0000012103297ED0D9F8001021F4F811C9F87A
:101A10000010DAF80010228EC2F30B021143CAF84C
:101A200000102078C00607D5386820F08070386034
:101A30003868A16B0843386020884104B14805D557
:101A40000168626E21F4403111430160218809046C
:101A500005D50168A26E21F440211143016021687F
:101A6000C90305D50168E26E21F4401111430160FC
:101A70002168890305D50168226F21F440011143D3
:101A800001602178490600E020E105D50168626C1B
:101A900021F00301114301602178090605D5016891
:101AA000A26C21F00C01114301602188C90505D504
:101AB0000168E26C21F03001114301602188890541
:101AC00005D50168226D21F0C00111430160218814
:101AD000490505D50168626D21F44071114301602B
:101AE0002188090505D50168A26D21F440611143E3
:101AF00001602188C90407D50168E26D21F44051D5
:101B0000114300E05BE001602188890405D501688C
:101B1000226E21F44041114301602168490205D53C
:101B20000168A26F21F080611143016021684FF0CC
:101B30000069890209D50168E26F21F00061114353
:101B40000160E16F494500D1012521680A0700D5F0
:101B50000125490305D50168626F21F040711143E9
:101B600001602168090206D50168D4F8802021F0BF
:101B70008051114301602168490106D50168D4F8FC
:101B8000842021F00051114301602068000106D536
:101B90003868D4F8881020F0007008433860206856
:101BA000C00006D53868D4F88C1020F08060084357
:101BB0003860DFF84481A8F108086EB909E0D9F867
:101BC0000020514B22F4F81218400243C9F80020BB
:101BD0001FE72068800178D5D8F8001021F08061D7
:101BE000C8F80010FFF760FD064604E0FFF75CFD53
:101BF000801B64286AD8D8F800000001F6D4207849
:101C00004249C00711D0606B78B908680A68C0F310
:101C100001406368C2F303629B0143EA004040EA6B
:101C20000260227A40EA027008602068020303D54D
:101C3000E26BB2F5801F05D0C0021AD5206CB0F55A
:101C4000800F16D108680A68C0F301406368C2F3C8
:101C500002729B0143EA0040237B40EA036040EAB2
:101C6000027008603868626A20F01F00521E10433C
:101C700038602068C0010FD508680A68C0F30360A7
:101C80006368268AC2F302729B0143EA064343EA71
:101C9000006040EA02700860206880010BD560682F
:101CA000228A800140EA0240227B40EA0260227AD6
:101CB00040EA02700860D8F8001041F08061C8F86E
:101CC0000010FFF7F1FC064606E009E082E0FFF7AE
:101CD000EBFC801B64287DD8D8F800000001F6D505
:101CE000EDB3D8F80000454620F08050C8F8000059
:101CF000FFF7DAFC064610E0083802408C38024054
:101D00000070004090380240FFFCFF0F8438024012
:101D1000FFF7CAFC801B642867D82868C04380008E
:101D2000F6D520683549020301D5E26B1AB1C0022D
:101D30001DD5206CD8B908680A68C0F301406369F2
:101D4000C2F302729B0143EA0040237E40EA036033
:101D500040EA02700860386820F4F85000E04BE078
:101D6000A26A6FF0FF0303EB022210433860206881
:101D7000800212D5E06F48450FD108680A68C0F3A9
:101D800003606369268CC2F302729B0143EA064337
:101D900043EA006040EA027008602078000715D529
:101DA00008680A68C0F303606369C2F301429B01DB
:101DB00043EA024242EA0060227F40EA0270086081
:101DC0003868E16A20F4403008433860286840F001
:101DD000805000E009E02860FFF766FC044607E059
:101DE000FFF762FC001B642802D90320BDE8F88FCE
:101DF0002868C0438000F3D40020F7E78838024009
:101E00002DE9F04704000D4669D0DFF81C81D8F8B1
:101E1000000000F00F00A8420CD2D8F8001021F00A
:101E20000F012943C8F80010D8F8000000F00F0097
:101E3000A84254D120683D4E810712D5400703D5F2
:101E4000306840F4E05030602078000703D53068F7
:101E500040F4604030603068A16820F0F000084332
:101E600030602078C00729D03049606808390128DF
:101E700010D00968022810D0890700292FDA3168AC
:101E800021F0030101433160FFF70EFC074641F2E8
:101E900088390CE009688903EFE78901EDE7FFF76E
:101EA00003FCC11B494502D90320BDE8F087306817
:101EB000616800F00C00B0EB810FF0D1D8F8001091
:101EC000404601F00F01A9420BD9016821F00F0132
:101ED00029430160006800F00F00A84201D00120F2
:101EE000E3E72078400705D53068E16820F4E0504A
:101EF000084330602078000706D53068216920F457
:101F0000604040EAC100306000F038F83168084AAB
:101F1000C1F30311515CC8400649086006480068D7
:101F2000FFF7DCFB0020C0E7003C0240083802401D
:101F3000AC75000810000020080000200448054986
:101F400000680968044AC1F38221515CC8407047A7
:101F50001000002008380240BC75000804480549FC
:101F600000680968044AC1F34231515CC8407047B7
:101F70001000002008380240BC750008154810B554
:101F8000006810F00C01144813D0431004290FD03E
:101F900008290ED10F4C241F216801F03F0221684F
:101FA000490207D52068C0F38810A0FB030106E0B2
:101FB000184610BD2168C1F38811A1FB0001002360
:101FC000FEF736F92168C1F30141491C4900B0FB15
:101FD000F1F010BD083802400024F4002DE9F84F5C
:101FE00004004FF0000877D02078DFF864B3ABF13D
:101FF0000409C007A9F104054AD0DBF800105846CF
:10200000C1F38101012908D00068C0F381000228D2
:102010000AD1D9F80000400206D52868800337D5D8
:1020200060680028DFD033E06068B0F5803F0BD0F7
:1020300010B1B0F5A02F11D0286820F480302860AE
:10204000286820F4802002E0286840F4803028606E
:10205000606888B1FFF728FB064609E0286840F46D
:1020600080202860F0E7FFF71FFB801B642873D8EF
:1020700028688003F7D50BE0FFF716FB064604E05F
:10208000FFF712FB801B6428F1D828688003F7D47F
:102090002078800740D5DBF80010584611F00C0F6F
:1020A00008D00068C0F3810002280AD1D9F80000E6
:1020B000400206D42868800717D5E06801280BD1B4
:1020C00013E0E0680028286817D040F0010028607D
:1020D000FFF7EAFA064605E035E1FFF7E5FA801B6F
:1020E0000228C4D828688007F7D52868216920F01D
:1020F000F80040EAC10028600EE020F001002860EE
:10210000FFF7D2FA064604E0FFF7CEFA801B02285A
:1021100022D828688007F7D42078000725D58C4F6F
:1021200060696C37002838680FD040F001003860D3
:10213000FFF7BAFA064604E0FFF7B6FA801B02285A
:102140000AD838688007F7D50FE020F00100386022
:10215000FFF7AAFA064605E082E0FFF7A5FA801B22
:1021600002287DD838688007F7D42078400769D5E1
:10217000DFF8DCA10AF1380ADAF80000C0000CD45C
:10218000DAF8001041F08051CAF80010DAF80000C7
:102190004FF0010800F0805000906E4F3868C00585
:1021A0000FD4386840F480703860FFF77DFA064637
:1021B00004E0FFF779FA801B642851D83868C0051D
:1021C000F7D5634FA068683701280AD008B1052801
:1021D00011D0386820F001003860386820F0040021
:1021E00002E0386840F001003860A06898B1FFF75D
:1021F0005BFA06460BE0386840F004003860F0E710
:10220000FFF752FA811B41F28830814267D8386863
:102210008007F5D50DE0FFF747FA064606E0FFF721
:1022200043FA811B41F28830814258D838688007D0
:10223000F5D4B8F1000F05D0DAF8001021F0805184
:10224000CAF80010A169D9B3DBF80000C0F381001F
:1022500002284BD02868022920F08070286000E016
:102260003DE003D0FFF720FA04463BE0FFF71CFAFD
:10227000064604E0FFF718FA801B02282FD82868CA
:102280008001F7D4D4E90701334A0843A16A490819
:1022900002EB0141626A41EA8211084394F82C1072
:1022A00040EA016094F8301040EA0171C9F800106A
:1022B000286840F080702860FFF7F6F9044605E0D2
:1022C00043E0FFF7F1F9001B022808D828688001D5
:1022D000F7D53AE0FFF7E8F9001B022802D90320FE
:1022E000BDE8F88F28688001F4D42EE0D9F800000A
:1022F000012928D0E26900F48001914223D1226AA9
:1023000000F03F0191421ED1626A47F6C071014060
:10231000B1EB821F17D1A26A4FF0FF3300F44031B6
:1023200003EB5202B1EB024F0DD194F82C2000F0D8
:102330007061B1EB026F06D194F8301000F0E0400C
:10234000B0EB017F01D00120CAE70020C8E7000000
:1023500008380240007000400000FFFF401EB0F14E
:10236000807F10B501D3012010BD4FF0E0246061E3
:102370000F21601701F051FF0020A06107202061AC
:10238000002010BD7047704770470000F0B590F80E
:102390003C20012A3CD0012580F83C50022280F8E4
:1023A0003D2003685A689C681A4E1B4FB34201D007
:1023B000BB4204D122F4700C4A6842EA0C0222F0BB
:1023C000700C0A6842EA0C025A600268B24213D0EA
:1023D000B2F1804F10D0114B9A420DD0104B9A425F
:1023E0000AD0104B9A4207D0BA4205D00E4B9A42FF
:1023F00002D00E4B9A4204D1896824F0800319431D
:10240000916080F83D50002180F83C100846F0BDF6
:102410000220F0BD00000140000401400004004023
:1024200000080040000C004000400140001800403F
:1024300010B5040003D094F83D0010B107E001206E
:1024400010BD002084F83C00204600F023F8022054
:1024500084F83D002068211D01F0A2FB012084F8D2
:10246000480084F83E0084F83F0084F8400084F877
:10247000410084F8420084F8430084F8440084F862
:10248000450084F8460084F8470084F83D000020A9
:1024900010BD000008B500685549564A884210D161
:1024A000106840F00100106010680022114600F032
:1024B000010000901820FFF7A1F91820FFF790F90C
:1024C0008AE04C49091FB0F1804F11D04A4B984225
:1024D0001DD1086840F0020008600868002211461B
:1024E00000F0020000901D20FFF788F91D2079E020
:1024F000086840F00100086008680022114600F0FA
:10250000010000901C20FFF779F91C206AE03B4B8A
:1025100098420ED1086840F0040008600868002264
:10252000114600F0040000901E20FFF767F91E20FE
:1025300058E0334B98420ED1086840F0080008601C
:1025400008680022114600F0080000903220FFF7D2
:1025500055F9322046E02B4B98420ED1086840F0E6
:102560001000086008680022114600F0100000907A
:102570003620FFF743F9362034E0234B98420ED142
:10258000086840F02000086008680022114600F04A
:10259000200000903720FFF731F9372022E01B4957
:1025A00088420ED1106840F480301060106800221C
:1025B000114600F4803000901820FFF71FF9182012
:1025C00010E01349884211D1106840F400301060C7
:1025D000106800F400300090002219201146FFF727
:1025E0000DF91920BDE80840FFF7FAB808BD000052
:1025F0000000014044380240000400400008004050
:10260000000C004000100040001400400040014059
:102610000044014090F83D10012901D0012070478D
:10262000022180F83D100168CA6842F00102CA60C8
:1026300000681349884214D0B0F1804F11D011497D
:1026400088420ED0104988420BD01049884208D0E9
:102650000F49884205D00F49884202D00E4988426E
:1026600007D181680D4A1140062906D0B1F5803F97
:1026700003D0016841F001010160002070470000B3
:10268000000001400004004000080040000C004031
:102690000004014000400140001800400700010014
:1026A00070B5044690F83C000025012817D001269B
:1026B00084F83C60022084F83D00206882682F4B3B
:1026C0001A4022F47F4282600868502838D00DDC1E
:1026D00020284FD005DC90B3102811D14AE0022009
:1026E00070BD302846D040280AD13BE060282FD06A
:1026F00070280DD0B0F5805F03D0B0F5005F12D028
:10270000012584F83D60002084F83C00284670BD17
:102710004A682068D1E9021301F0AEFA20688168A6
:1027200041F0770109E04A682068D1E9021301F01D
:10273000A3FA2068816841F480418160E1E719E0F3
:10274000CA684968206801F0A9FA2068502106E0AB
:10275000CA684968206801F0B2FA2068602101F077
:1027600095FACEE7CA684968206801F097FA2068B0
:102770004021F4E7226801461046F0E788FFFEFF9B
:1027800070472DE9F04104460068C66805694FF0BE
:102790000007A90713D5B10711D5F91E0161012062
:1027A0002077206880698007204602D0FFF7E8FF85
:1027B00004E000F08BF8204600F089F827776807DE
:1027C00016D5700714D521686FF004000861022047
:1027D00020772068806910F4407F204602D0FFF700
:1027E000CFFF04E000F072F8204600F070F8277781
:1027F000280715D5300713D521686FF00800086148
:10280000042020772068C0698007204602D0FFF7A7
:10281000B7FF04E000F05AF8204600F058F8277798
:10282000E80616D5F00614D521686FF0100008618F
:10283000082020772068C06910F4407F204602D02D
:10284000FFF79EFF04E000F041F8204600F03FF85B
:102850002777E80708D0F00706D021686FF001005D
:102860000861204600F034F8280601D4A80408D5F1
:10287000300606D521686FF4025008612046FFF744
:1028800082FDE80508D5300606D521686FF4807012
:1028900008612046FFF776FD680608D5700606D564
:1028A00021686FF040000861204600F033F8A80668
:1028B0000AD5B00608D521686FF0200008612046CF
:1028C000BDE8F041FFF760BDBDE8F081704770479B
:1028D00010B50D4904460068884201D100F0CEFCD5
:1028E0002068B0F1804F01D103F09EFD07492068B8
:1028F000884207D19FED060A03F0DCFDBDE81040D9
:1029000003F070BE10BD0000000001400004004054
:102910000AD7A33B70477047704770472DE9F041D5
:1029200002680446D0691168976840F60F031842A0
:102930004FF000054FF0020605D183067ED58B06C9
:102940007CD5A16E2AE1DFF884C207F0010301EA19
:102950000C0C53EA0C0C71D05FEAC07C0CD05FEA1F
:10296000C15C09D54FF0010CC2F820C0D4F8842016
:1029700042F00102C4F88420820709D5FA0707D083
:1029800022681662D4F8842042F00402C4F884203D
:1029900042070AD5FA0708D0266804223262D4F822
:1029A000842042F00202C4F8842002070CD501F012
:1029B00020021A4308D0236808221A62D4F884201F
:1029C00042F00802C4F8842002050BD54A0109D55B
:1029D00023684FF400621A62D4F8842042F0200287
:1029E000C4F88420D4F88420002A36D0800605D587
:1029F000880603D5A16E09B120468847D4F8840023
:102A000021688968490602D410F0280F27D0204693
:102A100001F030FA2068806840061BD52068083035
:102A200050E8001F21F0400140E80012002AF5D1D3
:102A3000606F78B166490165606F00E015E0FEF7F0
:102A4000E1FB002809D0606F016D00E02046BDE881
:102A5000F04108472046FFF760FFBDE8F0812046BF
:102A6000FFF75BFFC4F88450F7E7D4F860C0202379
:102A7000BCF1010F7ED15FEAC06C7FD55FEAC16C0B
:102A80007CD51020106220688068400643D5616FB5
:102A9000086840680004000CDFD0B4F85820824277
:102AA000DBD9A4F85A00C869B0F5807F2BD0206824
:102AB00050E8001F21F4807140E80012002AF6D18E
:102AC0002068083050E8001F21F0010140E80012A2
:102AD000002AF5D12068083050E8001F21F040019D
:102AE00040E80012002AF5D1C4F88030256620683D
:102AF00050E8001F21F0100140E80012002AF6D132
:102B0000606FFEF736FB6666B4F85800B4F85A10EA
:102B1000401A81B22CE0B4F85800B4F85A10401AA8
:102B200081B2B4F85A00002897D0002995D02068C7
:102B300050E8002F22F4907240E80027002FF6D1D1
:102B40002068083050E8002F22F0010240E80027FA
:102B5000002FF5D1C4F880302566A566206850E8BE
:102B6000002F22F0100240E80023002BF6D1666609
:102B7000204600E002E0FFF7CEFE6EE7C60208D571
:102B80007E0206D54FF4801010622046FFF7C4FE87
:102B900063E7020606D50A0604D5E16E00297FF434
:102BA00055AF5AE74006E8D54806E6D52046016805
:102BB00051E8002F22F0400241E80024002CF6D119
:102BC000C367C56600F048F947E70000200100042C
:102BD000613E000810B5040002D0E06F10B107E0BC
:102BE000012010BD002084F87800204600F026F86F
:102BF0002420E0672068016821F001010160606A1B
:102C000010B1204601F074F8204601F059F901286E
:102C1000E7D02068416821F49041416020688168D4
:102C200021F02A0181602068016841F00101016002
:102C30002046BDE8104001F0BFB800002DE9F04F7C
:102C4000ABB00446142124A8FDF73CFB9021684654
:102C5000FDF738FB774E0227754A03252068103EA2
:102C6000DFF8D0B1002190424FF000684FF4806946
:102C700046D1401514918A4600906846FEF726FE1C
:102C800008B1FDF76EFEDBF8001041F40021CBF82F
:102C90000010DBF8000000F400202990306840F0BC
:102CA00080003060306824A9CDF898A0564600F026
:102CB000800029904FF4C040CDE924070820CDE9D9
:102CC00027505D48FEF7FAFB5D4D5C48E5E80208D9
:102CD000402085E84102EE602E616E61AE61584889
:102CE000EE61083DFEF770FB08B1FDF73AFE0022E9
:102CF000256734201146AC63FEF780FD342047E0A1
:102D0000504A904249D140208A461191009068462D
:102D1000FEF7DCFD08B1FDF724FE4648001D016802
:102D200041F010010160006800F010002990306847
:102D300040F002003060306824A9CDF898A05646D3
:102D400000F0020029904FF44040CDE92407042010
:102D5000CDE927503C48FEF7B1FB394D3B48603583
:102D600028602846C5E90186C5E903696E61AE6140
:102D7000EE612E626E62FEF727FB08B1FDF7F1FDF2
:102D80000022656725201146AC63FEF737FD25203C
:102D9000FEF726FD2BB0BDE8F08F2D4A9042F9D109
:102DA00080208A46129100906846FEF78FFD08B198
:102DB000FDF7D7FDDBF8001041F40031CBF800102F
:102DC000DBF8000000F400302990306840F0080083
:102DD0003060306824A9CDF898A0564600F008006D
:102DE00029906020CDE924070720CDE92750194814
:102DF000FEF764FB124D1148C03518302860284694
:102E0000C5E90186C5E903696E61AE61EE612E62B6
:102E10006E62FEF7D9FA08B1FDF7A3FD00226567DF
:102E200026201146AC63FEF7E9FC2620B0E700003F
:102E3000004C004040380240001C024070600240DC
:102E400018070020001001400004024040640240C6
:102E500000440040000C02407047FEE730B52848AF
:102E60008BB04FF40071FDF72DFA2548FF22302179
:102E70003038FDF720FA234840F60C11FDF722FA0E
:102E80001F4A0020FF2102EB4013401CC0B2102853
:102E90005970F8D300240394012004940E25009463
:102EA00069460594CDE90640CDE908051648019428
:102EB0000294FDF7C9FD1448FEF729F912480221D2
:102EC000FDF751FD11486946CDE90445FDF7BCFD0C
:102ED0000E48FEF71CF90D480221FDF744FD0C4891
:102EE000694605940494FDF7AFFD0948FEF70FF914
:102EF00007480221FDF737FD0BB0002030BD000070
:102F0000000D0020000F00205C0200208402002041
:102F1000AC020020F0B50F2803D8032901D20F2AF4
:102F200001D90120F0BD0F4EFF2706EB011506F178
:102F30003004AB5CFF2B04D0834202D004EB43137C
:102F40005F7004EB40135C78FF2C05D093F802C04F
:102F500006EB04140CF80470187059709A70A85499
:102F60000020F0BDD00C0020002340211A4600F0C4
:102F700033BA00000F2805D8034901EB401041780F
:102F8000FF2900D100207047000D0020B5EEC00AD7
:102F9000F1EE10FA01D29FED0B0A0B4910EE100A68
:102FA000DFED0A0A884201DDB0EE600A9FED081AE3
:102FB00020EE010A80EE201ABCEEC10A10EE100AC3
:102FC000C0B270470000000000004C4200004C42BC
:102FD00000007F43B5EEC00AF1EE10FA01D29FED7A
:102FE000070A074910EE100A884201DD9FED050A25
:102FF000BCEEC00A10EE100A80B27047000000005C
:1030000000C07F4400C07F4410EE100A0E49884281
:1030100001D99FED0E0A0E4910EE100ADFED0D0AE0
:10302000884201DDB0EE600A30EE200ADFED0A0AC8
:1030300020EE200ADFED090A80EE201ABCEEC10A5C
:1030400010EE100A80B27047000020C2000020C2BB
:10305000000020420000204200FF7F470000A04205
:1030600010EE100A0E49884201D99FED0E0A0E4952
:1030700010EE100ADFED0D0A884201DDB0EE600AA5
:1030800030EE200ADFED0A0A20EE200ADFED090A01
:1030900080EE201ABCEEC10A10EE100A80B2704712
:1030A000000020C2000020C2000020420000204298
:1030B00000FF7F470000A04200EE100ADFED070A84
:1030C000B8EE400A20EE200ADFED050A80EE201A55
:1030D0009FED040A31EE000A704700000000A04294
:1030E00000FF7F47000020C2B0F5801F00D30948D1
:1030F000DFED090A00EE100A9FED081AB8EE400A4B
:1031000020EE200AC0EE010A9FED050A30EE800A8B
:1031100070470000FFFF0F000000A042F0FF7F4952
:10312000000020C2B0F5801F00D30948DFED090A76
:1031300000EE100A9FED081AB8EE400A20EE200AB1
:10314000C0EE010A9FED050A30EE800A70470000CC
:10315000FFFF0F000000A042F0FF7F49000020C2E7
:103160007F2800D97F2000EE100ADFED070A9FEDCF
:10317000071AB8EE400A20EE200AC0EE010ABBEEA4
:10318000040A30EE800A704700005C430000FE42F3
:1031900010EE100A0E49884201D99FED0E0A0E4921
:1031A00010EE100ADFED0D0A884201DDB0EE600A74
:1031B00030EE200ADFED0A0A20EE200ADFED090AD0
:1031C00080EE201ABCEEC10A10EE100A80B27047E1
:1031D000000020C2000020C2000020420000204267
:1031E00000FC7F460000A0427CB5044600200F2C66
:1031F0000090F0EE412AB0EE603A019001D9012032
:103200007CBDFFF701FFB0EE430A0546FFF7C0FFA4
:10321000B0EE620A0346FFF7DDFEB0EE610A024639
:10322000FFF7B4FEB0EE420A0646FFF719FF8DF82D
:103230000050290A8DF80110C3F305218DF80230E2
:1032400041EA82118DF8031091088DF804100823CB
:103250008DF8056080218DF80600000A8DF80700C2
:103260006A46054800EB4410C0ED062AC0ED071A77
:10327000204600F0B1F87CBD000D00202DE9F041A2
:10328000FEF712FA1B4F0025064605EB851000EBF2
:10329000C51007EB800494F8020308B3164850F8F1
:1032A0002500FDF7DAFCD8B194F8000300EB4001EB
:1032B00004EBC1025169711AC8290AD9401C00F0F7
:1032C0001F0084F8000394F80203401E84F80203F0
:1032D00006E0137C516812F8080B00F0CFF828B113
:1032E0006D1CEDB2032DD0D3BDE8F08194F800033E
:1032F000E4E70000000F002068000020F0B50C6833
:1033000004F00F03C4F30015002D24F01F0455D062
:103310002D4DA84201D1002008E02C4DA84201D13A
:10332000012003E02A4DA84248D10220802C05D17B
:10333000102B1D4602D3A5F11003DBB2254D05EB82
:103340000010C35C0F2B39D83035202C37D0402CDF
:1033500035D0802C32D1086908282FD3907817886F
:1033600000F00F01B2F80540000961F31F47D17862
:1033700040EA0110117940EA0136D179384601F06E
:1033800001024908FFF7B0FEF0EE402A3046FFF791
:10339000C9FEF0EE401A2046FFF78EFEB0EE402A3E
:1033A0000846FFF7DDFE05EB4310C0ED012AC0ED36
:1033B000021A80ED032A80ED040A0275F0BD05EBC8
:1033C00043111078C870F0BD5C0200208402002018
:1033D000AC020020D00C00202DE9F0470F28074652
:1033E0001E46904689460FD8082E0DD8214800EB7E
:1033F00047146078FF2807D0384600F03FF80228CD
:1034000003D16078032802D30120BDE8F08700EBE8
:10341000801101EBC010184901EB800494F80203FD
:10342000202801D30220F0E794F8010300EB4000CC
:1034300004EBC0052F70C5F804902E74FEF734F924
:10344000B8F1000F686106D02EB105F108003246D0
:103450004146FCF71EFF94F80103401C00F01F00DA
:1034600084F8010394F80203401C84F8020300204E
:10347000CBE70000000D0020000F00202DE9F843ED
:103480000F281D4690460F462DD8082D2BD81849D9
:1034900001EB40146078FF2825D0164E56F8200026
:1034A000FDF7DBFB08B3A07800F00F0112483943A9
:1034B0000160002141608160C0E90315B8F100009E
:1034C00006D02DB12A460146A6F10800FCF7E1FE20
:1034D00060786B46074A0849083A56F82000FDF71D
:1034E00054FABDE8F8830120FBE70220F9E7000069
:1034F000000D0020680000200C1800200F484FF439
:10350000C0220D4910B50160062141600021816093
:10351000C0E9031241610122017641768276C176CB
:1035200001774177FDF7ADFC002803D0BDE81040DE
:10353000FDF717BA10BD0000006400405C020020D7
:103540000F484FF4C0220D4910B5016006214160BB
:1035500000218160C0E903124161012201764176B8
:103560008276C17601774177FDF78BFC002803D086
:10357000BDE81040FDF7F5B910BD0000006800403F
:10358000840200200F484FF4C0220D4910B501609D
:103590000621416000218160C0E9031241610122DE
:1035A000017641768276C17601774177FDF769FC35
:1035B000002803D0BDE81040FDF7D3B910BD0000CE
:1035C00000340040AC020020154808B5016841F401
:1035D00000110160016801F400110091016841F4DB
:1035E0008001016000680022114600F48000009014
:1035F0000F20FEF703F90F20FEF7F2F8002210204B
:103600001146FEF7FBF81020FEF7EAF800223A20F8
:103610001146FEF7F3F8BDE808403A20FEF7E0B89F
:1036200030380240114808B5016841F0800101605E
:10363000016801F080010091016841F00201016020
:10364000016801F002010091016841F0010101608F
:10365000016801F001010091016841F00801016079
:10366000006800F00800009008BD000030380240FB
:103670000C4841F287320A4910B50160D7214160F8
:103680000021C0E90212016180218161FEF7D0FEB4
:10369000002803D0BDE81040FDF763B910BD00005D
:1036A000004401403405002010B588B019480024BA
:1036B0001749009401940294039404940594069489
:1036C0000160D721C0E9011440F2F311C0E90314ED
:1036D0008021C0E90541FEF7ABFE08B1FDF741F9D5
:1036E0004FF4805000900B486946FEF7D9FF08B1AF
:1036F000FDF737F9074804A9049405940694FEF7EA
:1037000045FE002801D0FDF72CF908B010BD0000DF
:1037100000000140D402002010B588B017480024F2
:103720004FF0804100940194029403940494059412
:10373000069401606B21C0E9011440F69F71C0E955
:10374000031480218161FEF773FE08B1FDF709F9CA
:103750004FF48050009009486946FEF7A1FF08B178
:10376000FDF7FFF8054804A904940694FEF70EFE41
:10377000002801D0FDF7F5F808B010BD20030020A7
:1037800010B588B01848002416490094019402949A
:10379000039404940594069401606B21C0E901141C
:1037A00040F2CF71C0E9031480218161FEF740FE31
:1037B00008B1FDF7D6F84FF4805000900A486946EA
:1037C000FEF76EFF08B1FDF7CCF8074804A9049492
:1037D0000694FEF7DBFD002801D0FDF7C2F808B023
:1037E00010BD0000000400406C03002010B588B03C
:1037F00018480024164900940194029403940494F8
:103800000594069401606B21C0E9011441F28731EF
:10381000C0E9031480218161FEF70AFE08B1FDF7BB
:10382000A0F84FF4805000900A486946FEF738FF30
:1038300008B1FDF796F8074804A904940694FEF72A
:10384000A5FD002801D0FDF78CF808B010BD0000E0
:1038500000080040B803002010B588B018480024C4
:1038600016490094019402940394049405940694D8
:1038700001606B21C0E9011441F28731C0E90314F2
:1038800080218161FEF7D4FD08B1FDF76AF84FF49D
:10389000805000900A486946FEF702FF08B1FDF724
:1038A00060F8074804A904940694FEF76FFD002809
:1038B00001D0FDF756F808B010BD0000000C004024
:1038C000040400203EB5104800240E4900940194E1
:1038D000029401606B21C0E9011441F28731C1609B
:1038E00080218161FEF7A4FD08B1FDF73AF8064892
:1038F000694600940294FEF749FD002801D0FDF7C7
:1039000030F83EBD00100040500400203EB5104885
:1039100000240E4900940194029401606B21C0E9D7
:10392000011441F28731C16080218161FEF780FD81
:1039300008B1FDF716F80648694600940294FEF7B0
:1039400025FD002801D0FDF70CF83EBD0014004015
:103950009C0400201FB512490020104A00900190DD
:10396000029003900A60D722C1E9012040F2E732B9
:10397000C1E90320802088610846FEF759FD08B19F
:10398000FCF7EFFF4FF48050009005486946FEF7C2
:1039900087FE002801D0FCF7E4FF1FBD0040014076
:1039A000E80400200D480C220B4910B501604FF4CB
:1039B000E131416000218160C160C0E90412816190
:1039C000C16101624162FFF705F9002803D0BDE83B
:1039D0001040FCF7C6BF10BD004C00408005002021
:1039E0000D480C220B4910B501604FF4E1214160F4
:1039F00000218160C160C0E904128161C16101627E
:103A00004162FFF7E7F8002803D0BDE81040FCF75B
:103A1000A8BF10BD00100140080600200F480E4945
:103A200010B501600E4941604FF48051816049003A
:103A3000C160C91001610C21416100218161C16136
:103A400001624162FFF7C6F8002803D0BDE81040CC
:103A5000FCF787BF10BD0000004400409006002026
:103A6000A0860100FEE7FEE770477047FDF722BE23
:103A700010B594B034216846FCF724FC14210DA83D
:103A8000FCF720FC2048016841F08051016000688B
:103A900000F0805012901D48016841F440410160DF
:103AA0000068022400F440401290012000900004BD
:103AB00001908001CDE9064004200890D820CDE98E
:103AC000090468460B940C94FEF788FA08B172B6A4
:103AD000FEE7FDF7C5FE08B172B6FEE70F20CDE99F
:103AE0000D0400200F904FF4A05010904FF4805020
:103AF000119007210DA8FEF783F9002801D072B6B6
:103B0000FEE714B010BD00004038024000700040D5
:103B10000248016841F470010160704788ED00E0DF
:103B2000044810B5FEF72DFEBDE810400248FEF730
:103B300028BE0000D4020020E8040020044810B58C
:103B4000FEF71FFEBDE810400248FEF71ABE000057
:103B5000D4020020340500200148FEF712BE000008
:103B6000200300200148FEF70CBE00006C0300207B
:103B70000148FEF706BE0000B80300200148FEF72A
:103B800000BE0000040400200148FEF7FABD00005A
:103B9000500400200148FEF7F4BD00009C04002002
:103BA000F0B502684FF0804E284D294E294FA842AB
:103BB000DFF8A4C0294B09D0704507D0B04205D02A
:103BC000B84203D0604501D0984203D122F070047E
:103BD0004A682243A8421BD0704519D0B04217D082
:103BE000B84215D0604513D0984211D01C4CA04269
:103BF0000ED01C4CA0420BD01B4CA04208D01B4C3A
:103C0000A04205D01A4CA04202D01A4CA04203D1C7
:103C100022F44074CA6822434C6922F08002224395
:103C200002608A68C2620A688262A84201D0984231
:103C300001D109690163012141610169C90703D00B
:103C4000016921F001010161F0BD000000000140A7
:103C50000004004000080040000C00400004014047
:103C6000004001400044014000480140001800406D
:103C7000001C00400020004010B5846842EA032286
:103C80000A4324F47F442243826010BD826822F0FC
:103C900070020A4342F007018160704710B5046A60
:103CA000036A23F001030362836923F0F00343EA0C
:103CB0000213836124F00A020A43026210BD10B5A8
:103CC000036A046A24F010040462846923F0A003E8
:103CD00043EA011124F4704444EA02328261016231
:103CE00010BD00000148FEF719BE0000800500204D
:103CF00090F82410090706D501684A68436B22F43E
:103D000000421A434A6090F82410C90706D001689F
:103D10004A68836A22F400321A434A6090F82410F9
:103D2000890706D501684A68C36A22F480321A43BB
:103D30004A6090F82410490706D501684A68036B69
:103D400022F480221A434A6090F82410C90606D54E
:103D500001688A68836B22F480521A438A6090F863
:103D60002410890606D501688A68C36B22F40052C4
:103D70001A438A6090F82410490611D501684A68F0
:103D8000036C22F480121A434A60016CB1F5801F63
:103D900006D101684A68436C22F4C0021A434A60A3
:103DA00090F82410090606D501684A68806C22F450
:103DB000002202434A6070472DE9F843002504467B
:103DC000C0F88450FDF770FC8046206800686FF0F2
:103DD0007E474FF02006000712D5002243463104EB
:103DE0002046009700F086F950B1206850E8001F87
:103DF00021F0800140E80012002AF6D1E66721E0B8
:103E000020680068400722D5002243464FF4800115
:103E10002046009700F06EF9C8B1206850E8001FF6
:103E200021F4907140E80012002AF6D12068083091
:103E300050E8001F21F0010140E80012002AF5D1EE
:103E4000C4F88060032084F87850BDE8F883E66702
:103E5000C4F8806025666566002084F87850F4E731
:103E600010B5806B0021A0F85A10A0F85210FEF790
:103E700054FD10BD016851E8002F22F4907241E812
:103E80000023002BF6D10168083151E8002F22F001
:103E9000010241E80023002BF5D1016E012908D170
:103EA000016851E8002F22F0100241E80023002BA6
:103EB000F6D12021C0F8801000210166816670478C
:103EC00070B50446816800690025E26901436069B4
:103ED00010430143206802687B4B1A400A4302608A
:103EE00020684168E26821F4405111434160216A31
:103EF000A06901432068826822F430620A4382602C
:103F0000724B4FF400422068714998420AD1086808
:103F100010F0030052D001287CD002287BD0032867
:103F20006ED187E06B4B98420AD1086810F00C0004
:103F30007AD004287CD0082878D00C2860D179E089
:103F4000654B98420AD1086810F030006CD01028F8
:103F50006ED020286AD0302852D16BE05F4B984257
:103F60000AD1086810F0C0005ED0402860D08028D8
:103F70005CD0C02844D15DE0594B98420DD108680F
:103F800010F4407050D0B0F5807F51D0B0F5007F74
:103F90004CD0B0F5407F33D14CE0524B98420FD11A
:103FA000086810F4406009D0B0F5806F40D0B0F5DB
:103FB000006F3BD0B0F5406F22D13BE0012120E003
:103FC000494B98420DD1086810F440502CD0B0F500
:103FD000805F2DD0B0F5005F28D0B0F5405F0FD1E5
:103FE00028E0424B98420BD1086810F440401BD0A7
:103FF000B0F5804F1CD0904218D0B0F5404F19D08A
:104000001021E3693A484FF6EF76934233D10929FC
:104010004CD202E00CE009E006E0DFE801F00D1010
:1040200015472947474716000021EAE70221E8E73C
:104030000421E6E70821E4E7FDF780FF01E0FDF752
:104040008DFF020001D139E002466068510001EBAA
:104050005001B1FBF0F0A0F11001B14226D84FF6AB
:10406000F0710140C0F3420001432068C16025E0C7
:10407000FDF784FFE5E7092918D2DFE801F005081C
:104080000D17191717170E00FDF758FF01E0FDF780
:1040900065FF020001D111E00246606802EB5001A9
:1040A000B1FBF0F0A0F11001B14204D9012505E007
:1040B000FDF764FFEDE7216880B2C8600020A066CC
:1040C000E066284670BD0000F369FFEF0010014074
:1040D000903802400044004000480040004C00403E
:1040E000005000400014014000780040007C004077
:1040F0000024F4002DE9F0471F4690460D46044683
:10410000089E4FF0000932E0701C30D0FDF7CCFA69
:10411000C01BB04218D8BEB120680168490726D537
:10412000802D24D0402D22D0C169C94309070DD468
:10413000082505622046FFF79DFEC4F88450012043
:1041400084F87890BDE8F0870320FBE7C069C0439E
:1041500000050CD421684FF4006008622046FFF788
:1041600089FE2020C4F8840084F87890ECE7206869
:10417000C06935EA000004D000204045C4D00020CA
:10418000E0E70120F9E700000148FEF7C7BB0000A7
:10419000080600200148FEF7C1BB00009006002081
:1041A000FEE700000FB4054B10B503A9044A0298BE
:1041B00001F036FC10BC5DF814FB000051650008EE
:1041C0005402002003B401984100009850EAC12035
:1041D00018BF04204A0D18BF40F0010040F2FF72E2
:1041E000B2EB515F08BF40F00200012808BF052074
:1041F00002B070474100080218BF04200A0E18BF21
:1042000040F001004FF07F4232EA010108BF40F068
:104210000200012808BF052070470907090E002881
:1042200004DB00F1E02080F80014704700F00F007C
:1042300000F1E02080F8141D7047000010B510EE6A
:10424000104A4FF01A402DED028B00EB4400B0F104
:10425000C85F4AD84FF0FC40B0EB440F22D2B0EE1A
:10426000C00ADFED310A30EEC00ADFED300A20EE81
:10427000208A18EE100A02F074FF00EE100A14F003
:10428000004F1DBF9FED2A1ADFED2A0AB1EE400A4A
:104290009FED291A08BFF0EE410ADFED281A20EE43
:1042A000210A05E020EE008A9FED251ADFED250AA0
:1042B000DFED251A9FED252A70EEC00A20EE080AD0
:1042C00008EE212ADFED221A48EE021A9FED212A7C
:1042D00008EE212ADFED201A48EE021ABDEC028B0F
:1042E00040EE610A30EE810A10BD4FF0CC40B0EBD9
:1042F000440F82BF9FED190ABDEC028B10BD4FF039
:104300007F40B0EB440F05D2BDEC028BBDE81040FE
:1043100001F0E6B9012001F0BBFABDEC028BBDE86B
:10432000104001F0E3B900000000803F0000003FB2
:104330000000494022AA7D3A00000000000000C0B1
:104340000000C93F22AAFD3924FE1C3DC78AD83C83
:104350001E67383D1B93993DAFAA2A3EDB0FC93F2C
:1043600010EE100A10B510EE901A4FF0684202EBF2
:1043700040032DED028BB3F1654F3CBF02EB4102D0
:10438000B2F1654F7CD200BFC0F3C753C1F3C7522F
:104390009A1A1B2A09DD10F0004F14BF9FED6E0A18
:1043A0009FED6E0ABDEC028B10BD12F11A0F1BDAE5
:1043B00011F0004F09D010F0004F0CBF9FED680ABC
:1043C0009FED680ABDEC028B10BD80EE208A18EECE
:1043D000100AFFF70FFF042808BF01F097F9B0EEAD
:1043E000480ABDEC028B10BD4200B2EB410F37D939
:1043F00010F0004F19BFDFED5C1A9FED5C1ADFED86
:104400005C1A9FED5C1AB0EE602A0A46F1EE400A93
:1044100080F00041B0EE420A10460A1A5200B2F192
:10442000807F34D2484010F0004FDFED532A9FEDDB
:10443000533A1DBF9FED522A71EEE21A31EE431A34
:104440009FED502A04BF71EEA21A31EE031AF0EE6E
:10445000402A42EE602A40EE020A82EEA02A18E0CC
:1044600011F0004F04BF9FED481AF0EE411AD4D06E
:1044700010F0004F1CBFDFED451A9FED451A00E01C
:1044800026E004BFDFED431A9FED431AC5E780EE37
:10449000202A22EE020ADFED410ADFED412ABDECBF
:1044A000028B40EE202ADFED3F0A40EE220ADFEDCC
:1044B0003E2A40EE202ADFED3D0A40EE220A22EE9F
:1044C000000A00EE201A31EE020A30EE210A10BD79
:1044D0004FF07F42B2EB400F28BFB2EB410F05D245
:1044E000BDEC028BBDE8104001F0FDB840EA0103CD
:1044F0005B0008BF41F0FF410BD0B2EB400F08BF9B
:10450000B2EB410F08D120F0804000EE100A21F0FC
:10451000804100EE901A37E7B2EB400F12BF5FEA1E
:10452000410240F0FF4001F000413FF42DAF4A004E
:1045300092EA40033FF528AF002AACBF9FED1C1A5A
:104540009FED1C1A20EE010A60EE810A10EE100A9F
:1045500010EE901A18E70000DB0FC9BFDB0FC93F50
:10456000DB0F4940DB0F49C00000C9BF22AAFDB9DB
:104570000000C93F22AAFD390060ED3EC30ACE37D4
:10458000000000BF0000003F00000000000049C024
:1045900022AA7DBA0000494022AA7D3A2DAD65BD10
:1045A0008FB8D53D0FB511BE61C84C3EA8AAAABEB2
:1045B0000000804F0000802F10B529499FED261B79
:1045C0002DED020B84B0059820F000408842D8BF42
:1045D0009DED040B2DDD2349884209D1049840B993
:1045E0004FF0010001F054F901F056F806B010BD8B
:1045F00005DB9DED040B30EE000B06B010BD6846E8
:104600009DED040B00F0C4FD10F0030004BF9DED10
:10461000021B9DED000B0CD001280ED09DED021B5E
:104620009DED000B022810D0012000F0E1FF06B044
:1046300010BD00F035FF06B010BD9DED021B9DEDD5
:10464000000B012000F0D4FF01E000F029FF06B0CC
:10465000B1EE400B10BD00000000000000000000A3
:10466000FB21E93F0000F07F10EE101A08B5434A25
:104670006846B2EB410F26D94FF0E640B0EB410F50
:1046800094BF00204FF0FF3000900098DFED3C0A0F
:10469000002860DB10F0010F46D060EE000ADFED6D
:1046A000391A9FED391A10F0020F00EEE11ADFED12
:1046B000371A40EE811A21EEA01AF0EE400A40EEC1
:1046C000010A2ED041E0324B21F0004293423FD903
:1046D00011F0004FDFED2F0A20EE201ADFED2E0A39
:1046E00019BF31EE601A71EE200A31EE201A71EE18
:1046F000600ABDEEE01A11EE100A9FED281A00F0D4
:10470000030000EEC10A9FED261A009000EEC10AD8
:104710009FED241A00EEC10A9FED231A00EEC10A94
:10472000B3E7F1EE600A10E020EE000A9FED1F1AD9
:10473000DFED1F1A10F0020F40EE011A9FED1D1A57
:1047400000EE211A40EE010AEBD1B0EE600A08BD7E
:1047500000F0E4FF99E710EE100A4000B0F17F4F3F
:10476000F3D307D14FF0010001F092F8BDE8084003
:1047700000F0BCBFBDE8084000F0B2BFB61F927E9B
:104780000000803F336D4C39DA82083CA0AA2ABE73
:10479000490E494683F9223F0000004B0000C93F03
:1047A00000A0FD390020A2331A61342CB93AB2BA04
:1047B000CA9F2A3DDDFFFFBE10B52DED040B86B06C
:1047C0009DED060B10EE101A10EE900A8DED000B09
:1047D000002918BF0121084320F00040C0F17F608C
:1047E00000F1E040C00F21D19DED080B10EE101A32
:1047F00010EE900A8DED000B002918BF012108432F
:1048000020F00040C0F17F6000F1E040C00F0DD10A
:1048100027490798B1EB400F04BF069800283ED007
:104820000998400004BF0898002838D09DED080B77
:1048300053EC102B9DED060B51EC100BFBF70AFF10
:10484000CDE902019DED020B40F2FF7110EE900ADE
:104850008DED000B31EA10501DD00798039900F040
:10486000004001F00041884215D09DED080B8DED10
:10487000040B9DED020B8DED000B10EE900A0599D7
:1048800061F31E0005909DED040B9DED021B31EEC2
:10489000400B8DED020B9DED020B0AB010BD012007
:1048A00000F0F6FF0AB0BDE8104000F0F5BE0000D1
:1048B0000000E0FF10B52DED088B9FEDFE1A10EE05
:1048C000100A10EE901AB0EE418A0022A0F5000CFA
:1048D0004FF00073DFEDF89ABCF1FE4F4FF07F44CC
:1048E00003EB410C80F0A481BCF1804FC0F0188232
:1048F000F24901449FEDF23A9FEDF2AAB1F5005F53
:1049000040F2CA8200F58021CB0C03F00F0100EECB
:10491000101AC3F307137F3BA0EBC350B8EEC02AB5
:1049200001EE900A1A44DFEDE82AB0EE410A02EEE9
:10493000220AF0EE403A31EEA30A31EEE32A10EEFD
:10494000100A00F500606FF30B0002EE900A73EEA0
:10495000E23A73EEA13AC1EE001A22EE210A10EEFD
:10496000100A00F500606FF30B0000EE100A00EE75
:10497000622A00EE632A62EE212A70EE221A21EEEC
:10498000A12ADFEDD23A02EE233A23EE023A20EEDC
:10499000012A22EE811A03EE211A32EE010A10EEEC
:1049A000100A00F500606FF30B0000EE100A72EEC3
:1049B000401A31EE812A9FEDC61A60EE011A9FED72
:1049C000C51A20EE011A9FEDC40A02EE001A31EE5C
:1049D000810A10EE100A00F500606FF30B0000EE84
:1049E000100ABE4871EEC01A31EE812A784400EBFD
:1049F000C10090ED003AD0ED011A100101EE100A4D
:104A0000F8EEC12A32EE211A31EE001A31EE031A05
:104A100031EE221A11EE100A00F500606FF30B0060
:104A200008EE900A38EEE21A31EE431A31EE400AEF
:104A300030EE610A72EE40AA10EE900A002100F5F5
:104A400000606FF30B0009EE100A084630EEC9BA99
:104A5000FBF774FE28EE890A00F00C01F0EEC00AA4
:104A600010EE900AB0F18B4F0FDD10EE900AB4EB10
:104A7000400F0AD310EE100A4FF08B42B0EE699A45
:104A800062F31E0008EE900A13E068EE8B0A39EE1E
:104A90000B1A4AEE810A30EE201A11EE100A00F5C8
:104AA00000606FF30B0008EE900A30EE680A30EEFB
:104AB000209A0C20FBF742FE38EE890AB4EEE90A90
:104AC000F1EE10FA38BF9FED86AA3AEE000ABDEE6D
:104AD000C00A10EE100A011100EE101AF8EEC00A1A
:104AE00000EE100AB8EEC00A38EEC00A30EE090A2D
:104AF000DFED7C1A9FED7C1A00EE211ADFED7B1AA8
:104B00007B4900F00F0040EE011A21EE800A794443
:104B100001EB800191ED001A7649794401EB8001A7
:104B2000D1ED001A744901EE801A794401EB80003E
:104B3000724990ED000A31EE001AB0EEE00A10EE74
:104B4000100A884215DA10EE100AB4EB400F10D3A9
:104B50009FED6B0A30EE800ADFED6A0A20EE200A34
:104B600068EE010ABDEC088BBCEEC00A20EE200AFC
:104B700010BD10EE100A6449884233DA10EE100AB4
:104B8000B4EB400F2ED3BDEEE00A68EE010A10EE42
:104B9000100A00EBD0725110C90501F17E5100EEF0
:104BA000101AA0EB6200C00560EE200A00F17E50F2
:104BB00000EE100A60EE808A18EE900AB4EB400F07
:104BC00025D018EE900A400011D018EE900AFFF799
:104BD00011FB042808BF00F099FDB0EE680ABDEC97
:104BE000088B10BDF4EEE90AF1EE10FA0FD20220A4
:104BF00000F04EFE00F08AFD18EE100A10EE101ABA
:104C0000BDEC088B61F31E0000EE100A10BD0220FF
:104C100000F03EFE00F072FD18EE100A10EE101AC1
:104C2000BDEC088B61F31E0000EE100A10BD00BF42
:104C3000BCF1804F74D300BF00F1FF43B3F1FE4FCE
:104C400024D200BFB0EEC00A10EE100AC1F3C75361
:104C50007F2B0DDB972BBFF64BAEC3F196034FF0C6
:104C6000010C0CFA03F3A3F1010C1CEA010F08D0AC
:104C7000012000F00DFEBDEC088BBDE8104000F0F7
:104C800035BD0B4218BF9FED218A31E643001CBFA2
:104C90004FF08073B3EB400F3CD96FF01A02DFED99
:104CA0001C1A20EE210A10EE100A10F0004FC9D194
:104CB0001EE635E00000803F00000000001080C0CC
:104CC000ABAAAA3E0000003F0000803D7EE24C3EC1
:104CD00000B03842D49AB8BB3BAA3842F42B00004B
:104CE000000000BFFC596337C9FF753A1872313DA7
:104CF000922B0000C62B0000362B00000000FC4267
:104D00000000FE420000004B00004043000080BF56
:104D10000000004DA0F50003B3F1FE4F21D2E7E5FE
:104D200003EB4103B3F1007F11D3F4EE690AF1EE16
:104D300010FA05D1430018BFB4EB400F76D87BE7DB
:104D400001F0004141F0FC5100EE901A74E7B3F11C
:104D5000807F06D210EE903AA3F5000300EE903A61
:104D60006AE720F000426FF0FF4C604C02EB0C034E
:104D7000A34210D321F000439C44A4450BD3B0F1CF
:104D80007E5F18BF5FEA410C50D0B2F1FF4F98BF71
:104D9000B3F1FF4F05D9BDEC088BBDE8104000F022
:104DA000A2BCB0F1FF4F0FD0C1F3C7527F2A09DB7D
:104DB000972A11DAC2F19602012303FA02F2531E76
:104DC0000B4205D0002208E011F0004F55D128E039
:104DD0000A4218BF012200D1022210F5000F13D0A1
:104DE00028B3B0F1004F26D010F1814F4FD04FF0D3
:104DF000FE42B2EB400F94BF01200020012202EBE3
:104E0000E171884239D10CE011F0004F02D0012A43
:104E100038D032E0012A02BF9FED350ABDEC088B85
:104E200010BD9FED340ABDEC088B10BD2FE011F0D2
:104E3000004F0CD121E0B1F1FF4F1ED011F5000F52
:104E400005D011F0004F15D00AB1012A08D0022078
:104E500000F01EFDBDEC088BBDE8104000F034BC36
:104E6000022000F015FD00F02FFCBDEC088BB1EE28
:104E7000400A10BD0AB1012A04D0B0EE690ABDECA7
:104E8000088B10BDBDEC088B9FED1B0A10BDBDEC5F
:104E9000088BB0EE410A10BD30EE410A9FED171AA3
:104EA0009FED182A00EE413AB0EE4A1A60EE001A61
:104EB00000EE431A61EEC11A9FED111A20EE011A9D
:104EC00020EE020A9FED102A01EE820A71EE001A0E
:104ED00011EE900A00F500606FF30B0008EE900AE7
:104EE00031EE681A71EE00AAA6E50000FFFF3F0050
:104EF000000080FF0000807F000000800000803EF6
:104F000000B0B841D49A38BB3BAAB84100000000B9
:104F100010B529499FED261B2DED020B84B0059895
:104F200020F000408842DCBF00209DED040B2EDD08
:104F30002249884209D1049840B94FF0010000F09D
:104F4000A7FC00F0A9FB06B010BD05DB9DED040B2E
:104F500030EE000B06B010BD68469DED040B00F06E
:104F600017F910F003000DD0012814D09DED021B9D
:104F70009DED000B022816D000F092FA06B0B1EEBB
:104F8000400B10BD9DED021B9DED000B012000F0BC
:104F90002FFB06B010BD9DED021B9DED000B00F038
:104FA0007FFA06B010BD012000F022FBE6E700000A
:104FB0000000000000000000FB21E93F0000F07F3E
:104FC00000B510EE101A2DED028B81B0524A6846E2
:104FD000B2EB410F2ED94FF0E640B0EB410F94BF3A
:104FE00000204FF0FF3000900098B0EE408A00287B
:104FF0006ADB10F0010F4BD068EE080A9FED471AEC
:105000009FED470A00EE810A9FED461A00EE801AD6
:105010009FED450A10F0020F00EE810A02BF01B0B9
:10502000BDEC028B00BD00BF01B0B1EE400ABDEC8B
:10503000028B00BD3D4B21F00042934241D911F05B
:10504000004FDFED3B0A20EE201ADFED3A0A19BFD0
:1050500031EE601A71EE200A31EE201A71EE600A0C
:10506000BDEEE01A11EE100A9FED331A00F00300B6
:1050700000EEC10A9FED311A009000EEC10A9FEDCB
:10508000301A00EEC10A9FED2F1A00EEC10AABE7FD
:1050900028EE080A9FED2C1ADFED2C0A10F0020F03
:1050A00040EE410A9FED2A1A00EE201A61EE000A36
:1050B000B0EE480A08EE200AB6D101B0BDEC028B72
:1050C00000BD00F02BFB8FE718EE100A4000B0F196
:1050D0007F4F0DD218EE100AFFF78CF8042808BF96
:1050E00000F014FBB0EE480A01B0BDEC028B00BD2D
:1050F00009D1012000F0CCFB01B0BDEC028B5DF8C2
:1051000004EB00F0F3BA01B0B0EE480ABDEC028B3C
:105110005DF804EB00F0E4BAB61F927EB93AB2BA79
:10512000CA9F2A3DDDFFFFBE0000803F490E494671
:1051300083F9223F0000004B0000C93F00A0FD3969
:105140000020A2331A61342C336D4C39DA82083CCA
:10515000A0AA2ABE10B52DED028BB1EEC08A18EEC2
:10516000100A20F00040C0F1FF40C00F0AD010EE3E
:10517000100A20F00040C0F1FF40C00F04BF012022
:1051800000F086FBB0EE480ABDEC028B10BD0000BB
:105190002DE9F14F04462DED020B2DED048B94B05B
:1051A0009FED9D0B80ED020B199E9D4826F000455A
:1051B00085420ADC9DED180B002084ED000B14B035
:1051C000BDEC048B03B0BDE8F08F96489FED969B35
:1051D0009FED978BA84225DD97489FED991B9FED8A
:1051E0009A2B9DED180B002E0DDD30EE490B8542FC
:1051F00012BF30EE480B30EE410B30EE420B84ED27
:10520000000B0120DBE730EE090B854212BF30EEC8
:10521000080B30EE010B30EE020B84ED000B4FF06B
:10522000FF30CCE78A48A84253DB9DED180B51ECC8
:10523000100B01F081F941EC100BB0EE401B9FED1B
:10524000862B9FED870B290DDFF81CC201EE020BA8
:105250000120FDEEC00B10EE903A00EE903AB8EE51
:10526000E02BB0EE410B02EE490B22EE081BFC4492
:10527000032830EE411B84ED001B1DD011EE902A57
:1052800000EB4015113DC2F30A528A1A954213DA17
:105290000CEB0012B0EE403B92ED000B401C20EEF8
:1052A000021B33EE410B33EE403B33EE411B92EDDC
:1052B000023B12EE031BDBE7002EA8BF1846BFF629
:1052C0007EAF94ED000B5842B1EE400B84ED000B25
:1052D00075E7C6F3130040F4801EC6F30A50A0F22F
:1052E000F530471100F01F05C5F12000DDF860B072
:1052F000139000200890099005200DF1080C5B49DF
:10530000002D07EB0002794408BF51F8221009D0A4
:1053100051F8223001EB8201AB404A68139922FA1E
:1053200001F11943A1FB0E26A1FB0B131A449A426B
:1053300034BF0123002303EB06080CEB8003D3E901
:1053400001A60E448E4234BF0121002192448A44BA
:1053500011B1924502D903E0924501D2012100E04A
:105360000021C3E901A641444CF82010011EA0F120
:105370000100C4DC04989DED050A00F10050810F86
:1053800004989FED3B4B800001EE100ADDED060A0C
:105390009DED072AB8EEC13BB8EE401BB8EE600B9E
:1053A000B8EE422B002021EE041B9FED334B20EE84
:1053B000040B9FED334B22EE042B30EE024B34EE08
:1053C000014B34EE034B8DED004B00909DED004BF7
:1053D000199834EE433B10F0004F33EE411B31EE91
:1053E000400B32EE401B9DED000B9FED272B20EE76
:1053F000020B9FED272B01EE020B9DED001B9FED95
:10540000262B01EE020B1CBF4942B1EE400B84ED8E
:10541000000B0846D3E6000000000000000000007A
:10542000FB21E93F7CD9024000004054FB21F93FB9
:105430003163621A61B4D03DFB21F93F00000000E6
:105440000000601A61B4D03D7370032E8A19A33B2B
:10545000FB2139410000000083C8C96D305FE43F83
:10546000000000000000E03FE62400007E24000071
:10547000000000000000103E000000000000103C92
:10548000000000000000103A3326A611460B113C24
:10549000182D4454FB21F93D00000054FB21F93D37
:1054A00010B52DED040B2DED068B82B0B0EE41ABA7
:1054B00009989FED299B20F00044B4F1795F0FDA41
:1054C0009DED080BBDEEC00B10EE100A002801BFC9
:1054D000B0EE490B02B0BDEC068B04B008BF10BDA6
:1054E0009DED080B1E48062120EE008BB0EE480B08
:1054F000784400F045F820EE080B9DED081B1C4891
:10550000844228EE000B01EE4A0B9FED171B28EE9C
:10551000011BBCBF31EE400B39EE400B16DB1548CA
:10552000A042BCBF9FED142B8DED002B06DBA4F534
:1055300000100190002000909DED002B31EE421BE9
:1055400039EE422B31EE400B32EE400B02B0BDEC97
:10555000068B04B010BD0000000000000000F03F0A
:105560003422000000000000000000000000E03FC6
:105570003333D33F0000E93F000000000000D23F7A
:10558000491E00EBC102B0EE401B92ED000B31F062
:1055900006020DD0491E00EBC102B0EE403B92ED79
:1055A000002B31F00602B0EE420B03EE010BF1D1FD
:1055B000022914D004290AD0062918BF704790ED9B
:1055C0000A2B00EE012B90ED080B02EE010B90ED83
:1055D000062B00EE012B90ED040B02EE010B90ED7B
:1055E000022B00EE012B90ED000B02EE010B704739
:1055F00031B504462DED040B2DED068BB0EE419B2D
:1056000007989DED060B20F00040B0F1795F0DDAB0
:1056100051EC100BFEF7D6FD042808BF00F048F847
:105620009DED060BBDEC068B05B030BD20EE008B6A
:105630001348052128EE00ABB0EE480B7844FFF785
:105640009FFF9FED111B8CB19FED112B29EE022BBB
:105650000AEE402B9DED060B18EE029B0AEE419BD5
:1056600030EE490BBDEC068B05B030BD08EE001BDB
:105670009DED060B0AEE010BBDEC068B05B030BDAF
:105680000022000000000000495555555555C5BF82
:10569000000000000000E03F9FED031B81EE010BC6
:1056A0007047000000000000000000000000000043
:1056B0009FED030B20EE000B704700000000000080
:1056C0000000000000000010DFED030A9FED031A48
:1056D00080EE810A704700000000803F000000005B
:1056E00030EE000A704730EE200A7047DFED020A04
:1056F00080EEA00A70470000000000009FED020A43
:1057000020EE000A70470000000000709FED020AC2
:1057100020EE000A70470000000000102DE9F001A3
:105720004FF07F42B2EB410F9FBF4FF0FF3101605E
:10573000BDE8F00170474FF0004242EA0123C1F397
:10574000C752783A551112F01F0C434CCCF1200689
:105750007C44C1F3C752A2F178024FEA621204EB13
:10576000820254F8254008BFD2E9015612D055688C
:1057700004FA0CF425FA06F73C43976805FA0CF591
:1057800027FA06F8D26807FA0CFCF24045EA080549
:105790004CEA0206A4FB034CA5FB0352A6FB0363E1
:1057A0001D449D4234BF012600261319334416B10F
:1057B000934202D903E0934201D2012200E0002289
:1057C000624402F1200C9206DC0C42EA443200EE04
:1057D000102A5B03DFED210AF8EEC01A00EE103A42
:1057E0004FEA9C1C11F0004FB8EE400AC0F800C010
:1057F00020EE201A00EE105ADFED190AB8EE400A2A
:1058000020EE200A71EE810A70EE800A10EE902AD6
:1058100002F500626FF30B0200EE902A70EEE11ABF
:1058200031EEC11ADFED101A30EE411A9FED0D0A6C
:1058300020EE800A01EE210A9FED0C1A00EE810A8B
:1058400004BFBDE8F0017047CCF180510160BDE8B4
:10585000F001B1EE400A7047CC2000000000003695
:105860000000802C22AAFD29DB0FC92F0000C92FC0
:1058700002E008C8121F08C1002AFAD17047704719
:10588000002001E001C1121F002AFBD17047000077
:105890000149086070470000580200202DE9FF5FB1
:1058A00082B00021DDE90430020DDDF840B0034391
:1058B00018D044F61050A2F2FF324243151411984A
:1058C00001281FD0A5EB0B00401C5FEA000A4FF037
:1058D00000064E4FDFF83891B046504615D5CAF154
:1058E000000413E0119801244AA3012801D16FEAB2
:1058F0000B010298119AC0E90031C0E9024206B0DA
:10590000BDE8F09FCBF10000DFE704460021404AEC
:10591000491842EB0450CDE9001012E0E00707D02F
:1059200032463B4640464946FAF7B3FD8046894633
:1059300032463B4610461946FAF7ABFD06460F467F
:105940006410002CEAD1DDE90401DDE90023BAF19D
:10595000000F06DAFAF79DFD42464B46FAF799FD2D
:1059600005E0FAF708FE42464B46FAF704FE044605
:105970000E460022284BFAF7C9FE03D84FF0FF303D
:10598000014607E00022254B20463146FAF7DAFCB3
:10599000FAF7A3FE102409E0002C0ADB0A220023F8
:1059A000FAF746FC039B30321A55641E50EA010296
:1059B000F2D1641C039AC4F111031444119A012A10
:1059C00003D0012208430DD10AE0084304D000208F
:1059D0004FF0110B119072E7A3EB0B056D1E0DE05C
:1059E0005B4504DD4FF0000205F1010504E003DA38
:1059F0004FF00002A5F10105002AECD002981199A0
:105A0000C0E90231C0E9004579E700000000144018
:105A10000000F03F300000000000F0430000E03FD5
:105A20002DE9FF4F95B09B468946064600250FE2BB
:105A3000252877D100242746F84A0121059400E063
:105A4000044316F8013F203B01FA03F01042F7D15E
:105A500030782A2811D06FF02F033078A0F130026F
:105A6000092A16D8059A44F0020402EB820203EBDD
:105A700042021044761C0590EFE759F8042B05927A
:105A8000002A03DA504244F40054059044F0020422
:105A9000761C30782E2816D116F8010F44F0040435
:105AA0002A280DD06FF02F023078A0F13003092B97
:105AB00009D807EB870302EB4303C718761CF3E70B
:105AC00059F8047B761C30786C280FD006DC4C2803
:105AD00017D068280DD06A2814D104E0742810D09B
