:020000040800F2
:10000000C04F00200D0200081F4B0008713E000881
:100010001D4B000811140008F553000800000000F3
:10002000000000000000000000000000234B00085A
:100030000115000800000000214B0008254B0008B6
:1000400027020008270200082702000827020008EC
:1000500027020008270200082702000827020008DC
:1000600027020008270200082702000827020008CC
:100070002702000827020008270200083914000898
:10008000451400082702000827020008270200087C
:10009000151400082702000827020008270200089C
:1000A000D94B0008F54B000827020008270200087A
:1000B000114C00081D4C0008294C000827020008BC
:1000C000270200082702000827020008270200086C
:1000D00027020008DD530008E95300082702000842
:1000E000270200082702000827020008270200084C
:1000F000270200082702000827020008270200083C
:100100002702000827020008354C000827020008D3
:10011000994D000827020008414C00084D4C00088A
:1001200027020008270200085114000827020008CF
:1001300027020008270200082702000827020008FB
:1001400021140008270200082702000827020008DF
:1001500027020008270200082702000827020008DB
:1001600027020008270200082702000827020008CB
:1001700027020008270200082702000800000000EC
:1001800027020008270200082702000827020008AB
:10019000270200082702000827020008270200089B
:1001A000270200082702000827020008270200088B
:1001B000270200082702000827020008270200087B
:1001C000270200082702000800000000270200089C
:1001D000270200082702000827020008270200085B
:1001E000270200082D140008270200082702000833
:1001F0002702000827020008DFF80CD001F092F86F
:10020000004800473D870008C04F0020064880474F
:1002100006480047FEE7FEE7FEE7FEE7FEE7FEE7EB
:10022000FEE7FEE7FEE7FEE7C94B0008F90100081C
:100230005FEA930C27D000BFD0ED003A91ED003A71
:10024000D0ED012AD1ED010A90ED022AD1ED021A7A
:1002500090ED031A91ED030A33EE833A72EEA00A91
:1002600072EE211A31EE000A82ED003AC2ED010A67
:10027000C2ED021A1030103182ED030ABCF1010CFC
:1002800002F11002D8D113F0030308BF7047B3F195
:10029000004F30D2002BD8BF704713F0010FA0F1F0
:1002A0000400A1F10401A2F104020AD090ED010AB8
:1002B000D1ED010A001D091D30EE200A82ED010A70
:1002C000121D5B0808BF704790ED010AD1ED010ACD
:1002D0000830083130EE200A5B1E82ED010A90EDF5
:1002E000000AD1ED000A30EE200A82ED020A02F186
:1002F0000802E9D17047B0EC010A5B1EF1EC010A7B
:1003000030EE200AA2EC010AF5D1704770B40E88D5
:1003100005884468D1F804C0B542536808D14088C4
:100320004988884201BF11888D425188884203D094
:1003300070BC6FF00200704705FB00F1880827D001
:10034000D4ED000ADCED001A94ED010A9CED011ACF
:1003500070EEA10A401E70EE011A94ED020A9CEDA7
:10036000021AC3ED000AC3ED011A30EE010AD4ED02
:10037000030ADCED031A83ED020A04F1100430EEE7
:10038000A10A0CF1100C83ED030A03F11003D7D17D
:1003900011F0030032D0B0F1004F32D200282DDD31
:1003A00010F0010FA4F10401ACF10402A3F1040365
:1003B0000AD091ED010AD2ED010A091D121D30EE9D
:1003C000200A83ED010A1B1D400817D091ED010A98
:1003D000D2ED010A01F1080102F1080230EE200A13
:1003E000401E83ED010A91ED000AD2ED000A30EEC5
:1003F000200A83ED020A03F10803E7D170BC002054
:100400007047B4EC010A401EFCEC010A30EE200AF1
:10041000A3EC010AF5D1F1E7018042804360704707
:100420002DE9F34F84B0DFEDFE0A0498B0EE600AC8
:10043000B0F800E0458840680090486801900020CE
:10044000AE45029006D108884988884204BF7146AB
:10045000864504D006B06FF00200BDE8F08F019829
:100460000A0018BFB7EE001A41D000BFBEEB020170
:100470001BD0B1F1004F80F03182002915DD11F061
:10048000010FA0F104031CBFC3ED010A1B1D5FEAAD
:10049000610C08D0C3ED010AC3ED020ABCF1010CE6
:1004A00003F10803F6D100EB8100511EA0EC011A04
:1004B0001BD0B1F1004F80F01782002915DD11F03B
:1004C000010FA0F104031CBFC3ED010A1B1D5FEA6D
:1004D000610C08D0C3ED010AC3ED020ABCF1010CA6
:1004E00003F10803F6D100EB8100521EBED1002DAE
:1004F0004FF00009039514BFF0EE601A002000F0E1
:10050000C58100BF09FB05F00099CE45019A01EBBA
:10051000800102EB800091ED002AB0EE610A834673
:1005200052D9AEEB090313F0010FA1EB850217D0EE
:1005300002EB8502D2ED000AF5EEC00AF1EE10FAE8
:1005400007DDF4EEC00AF1EE10FA09DDB0EE600A44
:1005500006E0F1EE600AB4EEE00AF1EE10FAF5D32F
:100560005B1031D002EB850CDCED000AF5EEC00A21
:10057000F1EE10FA05DDF4EEC00AF1EE10FA09DD35
:1005800006E0F1EE600AB4EEE00AF1EE10FA01D2F4
:10059000B0EE600A02EBC502D2ED000AF5EEC00A29
:1005A000F1EE10FA05DDF4EEC00AF1EE10FA09DD05
:1005B00006E0F1EE600AB4EEE00AF1EE10FA01D2C4
:1005C000B0EE600A5B1ECDD1B5EEC00AF1EE10FAB6
:1005D00000F07D81B5EEC02A009B4FF00106F1EEE0
:1005E00010FAF1EE420A72FE200AF4EE400AF1EE31
:1005F00010FA1CBFAEEB0902B2F1010C45D005FBAD
:1006000009F203EB820292ED001A00BFF0EE410AFC
:1006100005FB06F4F5EEC00AF1EE10FA00EB8404D7
:10062000D8BFF1EE600AF4EE400AF1EE10FA28D1DC
:10063000B5EB090C11D0BCF1004F7DD2BCF1000F1D
:100640000BDD00BF92ED000AD3ED000ABCF1010CF6
:10065000E2EC010AA3EC010AF4D12A000ED0B2F1B7
:10066000004F6AD2002A09DD94ED000AD0ED000A9D
:10067000521EE4EC010AA0EC010AF5D1012002901F
:100680000BE0761CBCF1010CC0D10298012804D00B
:10069000B5EEC02AF1EE10FA7DD0B5EB090288461E
:1006A00091ED000A16465B4622D0B2F1004F73D29C
:1006B000002A1DDD12F0010FA8F1040006D0F0EEB3
:1006C000400A80EEA01A80ED011A001D51100FD0D3
:1006D00090ED012A90ED021A491EC2EE000A81EE49
:1006E000002AC0ED010A80ED022A00F10800EFD1D6
:1006F000280026D0B0F1004F7ED2002821DD10F076
:10070000010FABF1040106D0D1ED010A80EE801A91
:1007100081ED011A091D401013D000BF91ED012A8F
:1007200091ED021A401EC2EE000A81EE002AC1EDD0
:10073000010A81ED022A01E0DBE0E6E001F10801B7
:10074000ECD1DDE900125FEA0E074FF0000A66D037
:10075000CA4504BF01EB860102EB850278D091ED1A
:10076000000A331EC446584636D0B6F1004F1C4628
:100770007ED2002C30DD16F0010FA1F10403A8F1A8
:10078000040C0FD0F0EE400A9CED012AB0EE601A86
:1007900000EEC21A01E09AE0C2E083ED011A1B1DCF
:1007A0000CF1040C741015D0D3ED010A9CED011A64
:1007B000641E40EE410AC3ED010ADCED020A93ED2E
:1007C000021A0CF1080C00EE601A83ED021A03F114
:1007D0000803E9D101EB86012B1E39D0B5F1004F9A
:1007E0009C4679D2BCF1000F32DD15F0010FA2F169
:1007F0000403ABF1040000E09BE009D0D3ED010A53
:1008000090ED011A001D40EE410AC3ED010A1B1DC7
:100810005FEA650C1AD000BF93ED011A02E01EE0FA
:1008200000000000D0ED010A00EE601A83ED011A0D
:1008300090ED021AD3ED020A0830BCF1010C40EE33
:10084000410AC3ED020A03F10803E5D102EB850278
:100850007F1E01EB89010AF1010A7FF479AF039849
:1008600009F10109401E03900098001D009000E06E
:1008700068E0039800287FF445AE029801284FF005
:10088000000004BF06B0BDE8F08F00BFB5EEC00A9F
:10089000F1EE10FA1CBF06B0BDE8F08F0EFB05F2BA
:1008A0000499002A4B684FF000010BD903EB810C2F
:1008B0009CED000AB5EEC00AF1EE10FA02D1491C17
:1008C0008A42F3D88A421CBF06B0BDE8F08F6FF0B1
:1008D000040006B0BDE8F08F3FE000BF491EE0EC29
:1008E000010AFBD1E1E500BF491EE0EC010AFBD1A2
:1008F000FBE592ED000AD3ED000ABCF1010CE2EC3D
:10090000010AA3EC010AF4D1A7E694ED000AD0EDA8
:10091000000A521EE4EC010AA0EC010AF5D1ADE692
:10092000D1ED000A521E80EE801AA1EC011AF7D117
:10093000DEE6D3ED000A401E80EE801AA3EC011A19
:10094000F7D1FEE6FCEC010A91ED001A5B1E00EE09
:10095000601AA1EC011AF5D13EE7B0EC011AD2ED14
:10096000000A5B1E40EE410AE2EC010AF5D16FE796
:100970002DE9F04F82B0B0F800E045884468B1F846
:1009800000C04B885068019000206545009001BF71
:10099000B2F800C0E645528893421EBF6FF00200D5
:1009A00002B0BDE8F08F4FEA9506C5F3400ADFEDCF
:1009B000412A00BFDDE900021F464FF0000802EBAC
:1009C00080094A68B6F1000C2046B0EE620A28D0D1
:1009D000D2ED001A90ED002A02EB830290ED011A8D
:1009E00002EE210AD2ED000A02EB830290ED022A08
:1009F000D2ED001A02EB830201EE200AD0ED030AC9
:100A000092ED001AACF1010C1FFA8CFCBCF1000F46
:100A100002EE210A02EB830200F1100000EE810ACF
:100A2000D6D115F0030C27D01CF0010FA2EB8302E6
:100A3000A0F1040C09D002EB8302DCED010A92ED77
:100A4000001A0CF1040C00EE810A5FEA0A0013D0D0
:100A500002EB830BDCED011A9BED002A02EBC302D3
:100A6000DCED020A01EE820A92ED001A401E0CF142
:100A7000080C00EE810AEBD17A1E08F1010CA9ECFA
:100A8000010A1FFA8CF84868170400EB88023F0C33
:100A900098D10098AEF101021FFA82FE184480B28C
:100AA0000090BEF1000F04EB850483D102B000205A
:100AB000BDE8F08F0000000070B40E88058844681F
:100AC000D1F804C0B542536808D1408849888842AB
:100AD00001BF11888D425188884203D070BC6FF0ED
:100AE0000200704705FB00F1880827D0D4ED000A0A
:100AF000DCED001A94ED010A9CED011A70EEE10A9A
:100B0000401E70EE411A94ED020A9CED021AC3EDEC
:100B1000000AC3ED011A30EE410AD4ED030ADCED00
:100B2000031A83ED020A04F1100430EEE10A0CF11D
:100B3000100C83ED030A03F11003D7D111F0030069
:100B400032D0B0F1004F32D200282DDD10F0010F6D
:100B5000A4F10401ACF10402A3F104030AD091ED65
:100B6000010AD2ED010A091D121D30EE600A83ED63
:100B7000010A1B1D400817D091ED010AD2ED010AB0
:100B800001F1080102F1080230EE600A401E83ED17
:100B9000010A91ED000AD2ED000A30EE600A83ED01
:100BA000020A03F10803E7D170BC00207047B4ECDF
:100BB000010A401EFCEC010A30EE600AA3EC010AB7
:100BC000F5D1F1E72DE9F04F4B8882B002884FF064
:100BD0000009B0F8028047689A42D1F804A016468E
:100BE00007BF098888456FF0020002B018BFBDE852
:100BF000F08F4FEA980B02EB42000190C8F34000DF
:100C0000CDF80000BBF1000F0AEB890334D0019846
:100C100003EB820C03EBC205E6464FEA0B0103EB44
:100C200080043846491E90ED000A83ED000A90EDDD
:100C3000010A03EB02138CED000A90ED020A0CEBA3
:100C4000021C85ED000A90ED030A05EB021584ED08
:100C5000000A04EB021400F11000E3D1ABF1010033
:100C60000EEB820300FB02F103EB820000EB82003B
:100C700007EB0B1700EB011318F0030C22D0A3EBCA
:100C800082011CF0010FA7F1040306D093ED010AC5
:100C900001EB82011B1D81ED000A009880B100BFAD
:100CA00093ED010A01EB820401EBC20184ED000A1D
:100CB00093ED020A401E81ED000A03F10803EFD113
:100CC00007EB8C07701E09F1010106041FFA81F978
:100CD000360C97D102B00020BDE8F08F2DE9F05F0F
:100CE0000546002092469B4688460646814640249B
:100CF0001BE0284641464746224600F017FA534675
:100D00005A46C01A914110D311461846224600F0A7
:100D1000FEF92D1A67EB01084F46224601200021FB
:100D200000F0F5F917EB00094E41201EA4F1010473
:100D3000DFDC484631462A464346BDE8F09F40EA9C
:100D400001039B0703D009E008C9121F08C0042A49
:100D5000FAD203E011F8013B00F8013B521EF9D230
:100D60007047D2B201E000F8012B491EFBD2704758
:100D70000022F6E710B513460A4604461946FFF767
:100D8000F0FF204610BD2DE9FE4F804681EA0300AA
:100D9000C00F0C46009021F0004123F00045B8EB55
:100DA0000200A94105D24046214690461C460B460A
:100DB000024623F00040104347D0270DC7F30A0036
:100DC000C3F30A510290401A019040286BDAC3F332
:100DD000130040F4801B0098924620B10023D2EB10
:100DE000030A63EB0B0B01985946C0F140025046D1
:100DF00000F08DF906460D4650465946019A00F01E
:100E0000A5F910EB08006141002487EA115284EA39
:100E1000E7731A4340D0009A62B3019A012A4FEA5D
:100E2000075215DC001B61EB02014FF0004202EAA1
:100E30000752CDE90042001C41F5801132462B4695
:100E400000F0DCF903B0BDE8F08F40462146F9E739
:100E5000001B61EB0201001C41F5801300185B418F
:100E60002018A2F5001747EB030140EAD570B61928
:100E70006D4111E06D084FEA360645EAC0754FEA4C
:100E80000752001B61EB0201001C41F5801149086B
:100E90004FEA30000019514132462B4603B0BDE8FD
:100EA000F04F00F09CB90098012240000023D0EBE5
:100EB000020263EBE073009821464FEAE074B8EB5E
:100EC000000061EB0401E9E783F000435BE781F098
:100ED000004158E72DE9FE4F81EA030404F0004485
:100EE00021F0004100944FF0000B23F0004350EA42
:100EF00001045ED052EA03045BD0C3F30A54C1F389
:100F00000A552C44A4F2F3340194A0FB0254C1F31B
:100F1000130141F48011C3F3130343F4801301FB65
:100F2000024400FB034E840A970A44EA815447EACC
:100F30008357A4FB076802958D0A05FB07854FEAD6
:100F4000932C04FB0C542705029D4FEA065847EAF0
:100F50001637B5EB08056EEB070C870E920E47EAC5
:100F6000811742EA8312A7FB0201B6EB0B0164EB87
:100F700000042B0D43EA0C335E1844EB1C50DA4698
:100F80005146E7FB0201C5F313044FEA0B3343EA72
:100F900014534FEA0432019C43EA0603A4F10C0403
:100FA0000294009CCDE900B400F028F903B0BDE83C
:100FB000F08F00200146F9E72DE9F04D81EA0304A6
:100FC00004F0004B21F0004514464FF0000A23F0D6
:100FD000004150EA050220D054EA01021DD0C5F3B9
:100FE0000A570246C5F31303C1F31300C1F30A56AF
:100FF00040F4801543F48013A7EB0608101BD64677
:1010000008F2FD3873EB050002D308F1010801E096
:1010100092185B41B8F1000F03DA00200146BDE8E9
:10102000F08D00204FF48011064684460EE0171B19
:1010300073EB050705D3121B63EB050306434CEA6C
:10104000010C49084FEA300092185B4150EA010751
:10105000EDD152EA030012D082EA040083EA0501CE
:10106000084305D0101BAB4106D20122002306E045
:1010700000224FF0004302E06FF0010253101AEB20
:1010800006004CEB085110EB0A0041EB0B01BDE8E8
:10109000F04D00F0A4B80EB540F2334102910021AA
:1010A000CDE900110A460B4600F0A8F803B000BDD8
:1010B00000F0004230F000400AD0C10D01F560712F
:1010C000C0F3160042EA0151C208400711437047BD
:1010D00000200146704701F0004330B421F0004188
:1010E00050EA010206D00A0DA2F56072C1F31301A5
:1010F000002A02DC30BC00207047440F44EAC104DF
:10110000C100E01830BC00EBC25000F031B8202A1A
:1011100004DB203A00FA02F1002070479140C2F14E
:10112000200320FA03F3194390407047202A04DB80
:10113000203A21FA02F00021704721FA02F3D04050
:10114000C2F120029140084319467047202A06DB6D
:10115000CB17203A41FA02F043EAE07306E041FA85
:1011600002F3D040C2F12002914008431946704773
:101170000029A8BF7047401C490008BF20F00100AB
:10118000704710B4B0FA80FC00FA0CF050EA010489
:1011900004BF10BC704749B1CCF1200421FA04F41B
:1011A00011FA0CF118BF012121430843A3EB0C01F4
:1011B000CB1D4FEA00614FEA102042BF002010BC57
:1011C000704700EBC35010440029A4BF10BC704707
:1011D000401C490008BF20F0010010BC704710B54A
:1011E000141E73F1000408DA401C41F1000192184A
:1011F0005B411A4301D120F0010010BD2DE9F04DF3
:1012000092469B4611B1B1FA81F202E0B0FA80F247
:1012100020329046FFF77BFF04460F4640EA0A0063
:1012200041EA0B0153465A46084313D0114653EA8C
:10123000010019D0C8F140025046FFF777FF05467C
:101240000E46504659464246FFF761FF084305D017
:10125000012004E020463946BDE8F08D002005431A
:1012600046EAE0762C4337430A986305E40AA0EB8C
:1012700008000022FD0A44EA47540A3002D5002043
:101280000146E9E7010510196941DDE90845001942
:101290006941BDE8F04DA2E72DE9FE4FC3F30A57BF
:1012A00001F000450024C1F30A56C3F31303C1F350
:1012B000130143F4801312EB020AA64641F4801195
:1012C000009543EB030CA7F1010B16E0B0EB0A000D
:1012D00061EB0C01071E71F1000707DA4FF00008FF
:1012E000D0EB080085F0004568EB0101171A73EB9D
:1012F0000107EBD3761E001849415E45F6DA50EA45
:10130000010209D0CDE900E5002213460296FFF75D
:1013100075FF03B0BDE8F08F20460099F9E7002083
:1013200070470000064C074D06E0E06840F00103FE
:1013300094E8070098471034AC42F6D3FEF760FFFC
:1013400088970008A89700080EB5C10F80EAE070E2
:101350000844CA07002140F233438DE80E000A46D4
:101360000B46FFF74BFF03B000BD70B5C1F30A5247
:1013700001F000450024C1F3130140F2FF3341F4B2
:1013800080119A4201DA002070BD40F233439A4244
:10139000A2F2334203DC5242FFF7C8FE00E0904065
:1013A0002C43F1D0404270BD70B58C1810F8015B31
:1013B00015F0070301D110F8013B2A1106D110F8EE
:1013C000012B03E010F8016B01F8016B5B1EF9D1F2
:1013D0002B0705D40023521E0DD401F8013BFAE778
:1013E00010F8013BCB1A921C03E013F8015B01F8E3
:1013F000015B521EF9D5A142D8D3002070BDB5EED5
:10140000C00AF1EE10FAF1EE400A30FE200A7047F1
:10141000FEE70000014800F015BA0000C0030020FC
:10142000014800F00FBA0000E8030020014800F076
:1014300009BA000010040020014800F0D7BC0000E9
:101440007C080020014800F0D1BC00003C090020CD
:10145000014800F0CBBC0000DC0800200168182324
:10146000CAB2103AB2FBF3F2054B6FF30901032A3B
:101470009B5CC36500D9091D816508467047000063
:10148000B893000810B583694FF0C074826A0146B2
:10149000002053B1B3F5005F15D072B1012A0CD012
:1014A000022A0AD0032A09D104E01AB1012A06D07F
:1014B000022A03D1C96AC90100D5012010BDC96A39
:1014C000A142FAD010BD002AF7D0012AF2D0022A98
:1014D000F3D0032AF3D010BD30B50468256825F495
:1014E00080252560046863608368402B036803D00F
:1014F00099600068C26030BD9A600068C16030BD0C
:10150000704772B6FEE790F82020012A07D0022A21
:1015100005D0416A41F48021416201207047006892
:1015200042690A43426100207047F0B590F82050AC
:101530000468A468012D05D0022D03D0416A41F44E
:10154000802154E014F0406F01D1E5004CD5012614
:10155000C4F301644FF4C075A6401E608B68ABB144
:10156000CE684F68D0F800C0334305EB041643EA59
:10157000C7034CF8063007684FF4C27303EB04133B
:101580000E69FE50097D012909D00DE00E88CB6857
:10159000076843EA465305EB0416BB51EBE70168C5
:1015A000CE5846F48076CE50D2F805304FF4C67C43
:1015B00011790CEB041C06684FF4C47741EA03214F
:1015C00007EB041346F80C10167805EB0411D2F85B
:1015D0000120076846EA0222FA500068425842F0A9
:1015E000010242500020F0BD416A41F40011416205
:1015F0000120F0BD30B590F820300268012B07D0F3
:10160000022B05D0416A41F480214162012030BDA6
:101610003E4C3F48A24200D00246D2F800328242FD
:1016200043F00103C2F800320CD1D2F8000220F4DA
:101630007C50C2F80002D2F800024B6A40EA032054
:10164000C2F800020C7D0120D2F81C3204F01F0405
:10165000A0408343C2F81C32CB69B3B9D2F80C3234
:101660008343C2F80C328C894B684D6964F31F4385
:1016700002EBC504C4F840320C890B684D6964F371
:101680001F4302EBC504C4F84432CB69012B16D1C9
:10169000D2F80C320343C2F80C320C884B684D6907
:1016A00064F31F4302EBC504C4F840320C89CB68D5
:1016B0004D6964F31F4302EBC504C4F844328B69DF
:1016C000002BD2F804320FD053EA0003C2F80432E0
:1016D0000B69002BD2F8143208D00343C2F814323D
:1016E000096A012904D008E08343EFE78343F5E763
:1016F000D2F81C120143C2F81C12D2F8000220F0EA
:101700000100C2F80002002030BD0000003400409B
:10171000006400407047F0B590F82040012C05D0DF
:10172000022C03D0416A41F4802128E0046809B307
:101730002469A40720D005684FF4D87404EB011481
:101740002D5915F00405956005682D591AD0ED083E
:10175000556006684FF4DA75345904F00206D66015
:1017600005EB011405682E5906F00F06082E0CD360
:1017700008250DE0E468DCE7416A41F400114162AC
:101780000120F0BD6D0D1560E3E72D5905F00F0543
:10179000156106684FF4DC752F1D0029365905EBDD
:1017A000011507EB0111C6F3072696610668345947
:1017B0004FEA14445461026852591A70026852592F
:1017C0004FEA12225A70026852594FEA12429A7036
:1017D000026852594FEA1262DA70026852581A715E
:1017E000026852584FEA12225A71026852584FEA60
:1017F00012429A71026851584FEA1161D97100681A
:1018000005D0016941F0200101610020F0BDC168EF
:1018100041F02001C160F8E790F820100246002056
:10182000012901D002290CD111688A68520100D522
:1018300001208A68120100D5401C8968C90000D5C2
:10184000401C70472DE9F05F05460068002446699A
:10185000D0F804908768D0F80CB0D0F810A0F20748
:10186000D0F8188048D0F90714D001218160BA0758
:1018700003D5284600F057FA0CE0780702D54FF45C
:10188000006407E0380702D54FF4805402E0284690
:1018900000F048FAF80516D52868BA054FF48071AB
:1018A000816003D5284600F040FA0CE0780502D5A7
:1018B00044F4005407E0380502D544F4804402E0C3
:1018C000284600F031FAF80316D52868BA034FF419
:1018D0008031816003D5284600F029FA0CE07803B6
:1018E00002D544F4004407E0380302D544F48034C0
:1018F00002E0284600F01AFA300707D55FEACB600D
:1019000004D52968102044F40074C86070074FF0B3
:10191000080707D55FEA0B7004D52868C76028461A
:1019200000F0BEF9B00706D52868C068800702D06D
:10193000284600F0B6F9700607D55FEACA6004D5FC
:101940002968102044F480640861B00607D55FEA76
:101950000A7004D528680761284600F0B3F9F0063C
:1019600006D528680069800702D0284600F0ABF948
:10197000B00308D55FEAC96005D529681020486022
:10198000284600F0A1F9F00307D55FEA097004D5F5
:1019900028684760284600F0CBF9300446D55FEA56
:1019A000497040D5F00504D55FEAC87001D044F015
:1019B0000104B00504D55FEA887001D544F0020443
:1019C000700504D55FEA487001D544F00404300581
:1019D00029D518F0700F26D008F07000402815D0D7
:1019E00006DC102809D020280AD0302816D10AE0B9
:1019F00050280ED0602811D10EE044F008040DE00C
:101A000044F010040AE044F0200407E044F04004ED
:101A100004E044F0800401E044F4807428688169A3
:101A200021F070018161296804204860002C05D0F4
:101A3000686A204368622846FFF76CFEBDE8F09FA5
:101A400070B5040003D094F8200010B104E0012028
:101A500070BD204600F082F82068016841F0010165
:101A6000016000F079FC0526054604E000F074FCF6
:101A7000401B0A2811D820684068C007F6D02068AB
:101A8000016821F00201016000F066FC05460BE0F0
:101A900000F062FC401B0A2806D9606A40F400305E
:101AA000606284F82060D2E7206840688007EFD445
:101AB000207E0128206801683DD021F0800101606E
:101AC000607E01282068016838D021F04001016063
:101AD000A07E01282068016833D021F02001016038
:101AE000E07E0128206801682ED041F010010160DD
:101AF000207F01282068016829D021F008010160B9
:101B0000607F01282068016824D021F00401016071
:101B1000D4E90110D4E903326569491E18432368EA
:101B20002A43104300220843D8610121626284F8ED
:101B30002010104670BD41F08001C0E741F0400127
:101B4000C5E741F02001CAE721F01001CFE741F0DD
:101B50000801D4E741F00401D9E700002DE9F04382
:101B600087B0054614216846FFF702F9474C002666
:101B7000454902272D684FF0030CDFF8148110311E
:101B800023684FF00909404A4545424803F10103E3
:101B900023D1012B236007D10B6843F000730B6046
:101BA000096801F000710591116841F002011160AE
:101BB00011684FF44072CDE9026C01F00201CDE9E9
:101BC0000491CDE90027694600F0A2FA0022142012
:101BD000114600F06FFC14202DE0DFF8BC80454575
:101BE0002ED10D6845F080650D600D68012B05F064
:101BF00080650595236007D10B6843F000730B6087
:101C0000096801F000710591116841F0020111604D
:101C100011686022CDE9026C01F00201CDE9049166
:101C2000CDE90027694600F073FA002240201146F2
:101C300000F040FC402000F02FFC07B0BDE8F0832E
:101C4000164B9D42F9D10B6843F400530B600968B1
:101C500001F400510591116841F002011160116811
:101C60000B22029601F0020105911821CDE900171F
:101C7000CDE903C2694600F04BFA00226920114603
:101C800000F018FC6920D6E730380240040000203C
:101C9000006400400004024000680040003400403E
:101CA000704710B58AB0044600216A4607ABFFF7BB
:101CB00032FD002804D107AA6946204602F04AFBFB
:101CC0000AB010BD704770477047000070B50446F9
:101CD00090F82000012804D0606A40F4002060627F
:101CE00018E0022084F820002068016821F001013A
:101CF000016000F031FB05460EE000BF00F02CFB58
:101D0000401B0A2808D9616A052041F4003161624C
:101D100084F82000012070BD20684068C007EDD124
:101D2000606270BD7047704770477047704770477A
:101D300070472DE9F041876D044600F00DFB064623
:101D400094F835000025022806D080206065012027
:101D500084F83450BDE8F0812068016821F0160154
:101D600001602068416921F080014161206C08B95F
:101D7000A06C20B12068016821F008010160206892
:101D8000016821F0010101600CE000F0E5FA801B20
:101D9000052807D920216165032084F8350084F8DF
:101DA0003450D7E720680068C007EED194F85C2073
:101DB0003F2001219040B86084F83510002084F85D
:101DC0003450C7E790F83510022903D080214165CF
:101DD00001207047052180F835100068016821F066
:101DE0000101016000207047406D70472DE9F84304
:101DF00004464FF00009644B0820CDF800904FF4E2
:101E00001652A56D94F85C101B682E68B3FBF2F7B0
:101E100000FA01F131420FD021680A6852070BD550
:101E20000A6822F004020A6094F85C108840A860F6
:101E3000606D40F00100606594F85C104FF001089F
:101E400008FA01F0304208D021684969090604D532
:101E5000A860606D40F00200606594F85C1004209A
:101E60008840304208D021680968890704D5A860F5
:101E7000606D40F00400606594F85C1010208840AC
:101E8000304218D021680968090714D5A860206875
:101E90000168490304D50068000308D5A16C07E078
:101EA0000168C90503D4016821F008010160216CB3
:101EB00009B12046884794F85C10202088403042C1
:101EC00031D021680968C9062DD5A86094F835007D
:101ED00005282068016806D0490347D5006800033B
:101EE0001DD4616C1CE021F016010160206841697D
:101EF00021F080014161206C08B9A06C20B12068FC
:101F0000016821F00801016094F85C303F229A409A
:101F1000AA6084F8358084F83490216D1FE0E16B6D
:101F200009B120468847606D00282BD0606DC0073E
:101F300014D0052084F835002068016821F00101E3
:101F400001600098401C0090B84203D820680068E7
:101F5000C007F6D184F8358084F83490E16C00290C
:101F600010D001B02046BDE8F04308470168C9051C
:101F7000D5D4036823F01003036084F8358084F817
:101F80003490CCE7BDE8F883140000202DE9F04739
:101F9000044600F0E1F906465CB10025022084F811
:101FA000350084F834502068016821F00101016097
:101FB0000DE00120BDE8F08700F0CEF9801B052878
:101FC00005D920216165032084F83500F2E72068F7
:101FD0000068C007F0D1D4E90010D4E90232D4E996
:101FE000046C1843D4F8188004F11C03894632436A
:101FF00009681043C8CB1D4A40EA0C0040EA0800BB
:10200000114040EA030040EA0600042F40EA0100C4
:1020100003D1D4E90B1211430843C9F8000020682A
:10202000666A4069042E20F0070046EA00060CD1DB
:10203000D4E90A01064341B12046FFF723FA20B153
:102040004020606584F83550B3E72068466120463B
:10205000FFF704FA94F85C303F2101229940816037
:10206000656584F835200020A4E700003F8010E07B
:102070002DE9F041044690F8340000250128A66DB2
:102080000ED094F835C00127002084F83470BCF1DC
:10209000010F07D0022584F834002846BDE8F081FE
:1020A0000220FBE7022784F8357060652046FFF7C1
:1020B00013FA94F85C103F208840B06020680168F3
:1020C00041F0160101602068416941F080014161E1
:1020D000206C20B12068016841F00801016020688F
:1020E000016841F001010160D7E7000070B50446C6
:1020F00000F032F90546601C02D004480078044420
:1021000000F02AF9401BA042FAD370BD080000205D
:102110002DE9F84FDFF80CB2012403254FF00F0A28
:1021200000220BF1040E00BF0B6804FA02F63340E4
:10213000B34278D10F7907F00307012F01D0022FA6
:102140001AD187684FEA4209D1F80CC005FA09F89C
:1021500027EA08070CFA09FC4CEA070CC0F808C08B
:10216000476891F804C0B743CCF3001C0CFA02FC9A
:102170004CEA070CC0F804C00E79F643B6070BD042
:10218000C6684FEA420C8F6805FA0CF826EA080682
:1021900007FA0CF73743C7600E7906F00306022EE4
:1021A00012D1D6084FEA427800EB860600960F69F6
:1021B000D6F820904FEAD8660AFA06FCB74029EA1A
:1021C0000C063743009E37620F7906684FEA420CCF
:1021D00007F0030705FA0CF807FA0CF726EA0806D9
:1021E000374307604E6816F4403F1CD04E4E3768A8
:1021F00047F480473760366822F00308970706F4F3
:1022000080460096494E3F0F4644B146D6F80868CE
:10221000DFF81C810AFA07FC404526EA0C0603D1C8
:102220004FF0000C41E076E0DFF808C1604502D1D4
:102230004FF0010C39E0DFF800C1604502D14FF0EA
:10224000020C32E0DFF8F4C0604502D14FF0030C1D
:102250002BE0DFF8ECC0604502D14FF0040C24E025
:10226000DFF8E0C0604502D14FF0050C1DE0DFF85B
:10227000D8C0604502D14FF0060C16E0DFF8CCC0A4
:10228000604502D14FF0070C0FE0DFF8C4C0604595
:1022900002D14FF0080C08E0DFF8B8C0604502D169
:1022A0004FF0090C01E04FF00A0C0CFA07FC4CEA65
:1022B000060CC9F808C84F68DBF80060FF0226EA80
:1022C000030600D51E437746CBF80060D1F804C062
:1022D000DEF800605FEA8C2C26EA030600D51E4378
:1022E000DFF840C03E60ACF1040C4F68DCF80060E1
:1022F000BF0326EA030600D51E430A4FCCF8006050
:10230000083FD1F804C03E685FEACC3C26EA0306E9
:1023100000D51E433E60521C102AFFF405AFBDE8F5
:10232000F88F0000083C0140443802400030014072
:10233000000002400004024000080240000C02407D
:10234000001002400014024000180240001C02402D
:1023500000200240002402400148806870470000CD
:1023600008000020024881680278114481607047AB
:1023700008000020032010B500F0BCF8002000F099
:1023800005F800F071F8002010BD000070B50D4D8B
:1023900004464FF47A700C4A29781268B0FBF1F0C9
:1023A000B2FBF0F000F040FE48B9102C07D200223A
:1023B0002146501E00F07EF800206C6070BD0120A8
:1023C00070BD00000800002014000020154BF0B57F
:1023D000083B427813491A600B680A1F23F0010377
:1023E0000B6043681360057BC67A827A437B2D07B6
:1023F000847B45EA0665C77B90F809C0067A90F8A9
:1024000000E045EAC24040EA834040EA444040EAF6
:10241000074040EA0C2040EA460040EA0E0008600F
:10242000F0BD0000A0ED00E0BFF35F8F0448002185
:102430000368034A23F480330360703211607047ED
:1024400024ED00E0074A40F00100064970321060B8
:10245000086840F480300860BFF34F8FBFF36F8F80
:102460007047000024ED00E00A4808B5016841F01B
:1024700080510160006800F0805000900548001D08
:10248000016841F480410160006800F480400090E0
:1024900008BD000040380240002809DB410900F077
:1024A0001F028900012001F1E0219040C1F80001E4
:1024B000704700000E4BF0B41B680D46C3F30223B7
:1024C000C3F10706042E00D90426191D072901D2DD
:1024D000002300E0DB1E012404FA06F19C40491EA3
:1024E0002940641E994014402143F0BC02F0AEBF65
:1024F0000CED00E0064900F0070210B54FF6FF04AE
:102500000868044B204040EA02201843086010BDD0
:102510000CED00E00000FA051848F8B5016841F03C
:10252000805101600068164C00F0805000902068D7
:1025300040F480302060FFF70FFF4FF47A760546B5
:1025400005E000BFFFF708FF401BB0420FD86068EE
:10255000C003F7D5206840F400302060FFF7FCFE90
:10256000054606E0FFF7F8FE401BB04201D9032004
:10257000F8BD60688003F5D50020F8BD4038024002
:10258000007000402DE9F84F04460078DFF82494ED
:102590004FF000063746C0070ED0D9F8001021F4DE
:1025A0000001C9F80010D9F80010626B1143C9F896
:1025B0000010606B00B90126FE4D206884350003D1
:1025C0000ED5E16B286820F4401008432860E06BCA
:1025D000B0F5801F01D010B102E0012600E0012714
:1025E00020684FF4800BC0020CD5216C286820F4C1
:1025F000400008432860206C584501D1012601E0C5
:1026000000B901272068C10100D50126800666D5E2
:10261000E8483830016841F0805101600068DFF817
:1026200098A300F080500090DAF8001041F4807117
:10263000CAF80010FFF790FE804605E0FFF78CFE19
:10264000A0EB080064287DD8DAF80000C005F5D5B5
:10265000DFF8608308F16808D8F8000010F44070D3
:102660002AD0218E01F44071814225D0D8F8001083
:10267000D8F8002021F4407142F48032C8F80020DC
:10268000D8F8002022F48032C8F80020C8F80010E2
:10269000D8F80000C0070FD0FFF75EFE824607E0C3
:1026A000FFF75AFEA0EB0A0141F288308142CAD8F6
:1026B000D8F800008007F3D5206BC0F3012103296F
:1026C0007ED0D9F8001021F4F811C9F80010228E3C
:1026D000D8F80010C2F30B021143C8F8001020789C
:1026E000C00607D5286820F0807028602868A16B94
:1026F000084328602188AF488830490405D5626EB8
:10270000016821F44031114301602188090405D595
:10271000A26E016821F44021114301602168C903C0
:1027200005D5E26E016821F4401111430160216872
:10273000890305D5226F016821F44001114301602E
:10274000217800E034E1490605D5626C016821F08A
:102750000301114301602178090605D5A26C0168C7
:1027600021F00C01114301602188C90505D5E26CF7
:10277000016821F03001114301602188890505D5E8
:10278000226D016821F0C0011143016021884905D3
:1027900005D5626D016821F4407111430160218803
:1027A000090505D5A26D016821F44061114301605E
:1027B0002188C90407D5E26D016821F4405100E089
:1027C00068E0114301602188890405D5226E016803
:1027D00021F44041114301602168490205D5A26FEF
:1027E000016821F080611143016021684FF0006AA7
:1027F000890209D5E26F016821F00061114301608F
:10280000E16F514500D1012721680A0700D5012752
:10281000490305D5626F016821F0407111430160E1
:102820002168090206D5D4F88020016821F0805182
:10283000114301602168490106D5D4F8842001685C
:1028400021F00051114301602068000106D5D4F841
:102850008810286820F00070084328602068C000B5
:1028600006D5D4F88C10286820F0806008432860D2
:10287000DFF84891012E02D0206880017ED5D9F87A
:1028800000004E4620F08060C9F80000FFF764FDAC
:1028900080460FE04A4AD9F80030104023F4F8127D
:1028A0000243C9F8002012E7FFF756FDA0EB08002D
:1028B00064287DD830680001F6D421783D487C300A
:1028C000C90712D0616B81B9237A62680168D0F8B8
:1028D00000C09201C1F3014142EA0142CCF303611D
:1028E00042EA016141EA0371016021680A0303D5EC
:1028F000E26BB2F5801F04D0C9021AD5216C59458C
:1029000017D16368016894F80CC002689B01C1F399
:10291000014143EA0141C2F3027241EA0C6141EA1A
:10292000027101602968626A21F01F01521E114381
:1029300029602168C90110D5238A62680168D0F82E
:1029400000C09201C1F3036142EA034242EA01621C
:10295000CCF3027142EA01710160216889010CD552
:102960006168228A237B94F808C0890141EA024108
:1029700041EA036141EA0C71016000E011E0316855
:10298000B04641F080613160FFF7E6FC064604E0A6
:10299000FFF7E2FC801B64280AD8D8F80000000189
:1029A000F6D5E7B3D9F800004E4620F0805009E094
:1029B0007BE0000008380240007000400038024010
:1029C000FFFCFF0FC9F80000FFF7C6FC074604E054
:1029D000FFF7C2FCC01B642867D83068C043800082
:1029E000F6D5216835480A0301D5E26B1AB1C90250
:1029F0001DD5216CD9B963690168277E02689B01E6
:102A0000C1F3014143EA0143C2F3027143EA0762A1
:102A100042EA0171016029686FF0FF0300E04BE0BA
:102A2000A26A21F4F85103EB0222114329602168C4
:102A3000890212D5E16F51450FD1238C626901687B
:102A400007689201C1F3036142EA034242EA01626C
:102A5000C7F3027142EA017101602178090716D5B6
:102A600061690268D0F800C08B01277FC2F303625E
:102A7000CCF3014143EA014141EA026141EA0771B5
:102A800001602868E16A20F440300843286030681B
:102A900040F080503060FFF75FFC044608E000BF64
:102AA000FFF75AFC001B642802D90320BDE8F88F09
:102AB0003068C0438000F3D40020F7E78838024034
:102AC0002DE9F04705000F4663D0444E306800F012
:102AD0000F00B84209D2306820F00F003843306050
:102AE000306800F00F00B84253D128683C4C810791
:102AF00012D5400703D5206840F4E05020602878C4
:102B0000000703D5206840F460402060A968206871
:102B100020F0F000084320602878C0072AD0304910
:102B200068680839012810D00968022810D0890780
:102B300000292EDA216821F0030101432160FFF70B
:102B40000BFC804641F288390DE009688903EFE704
:102B50008901EDE7FFF700FCA0EB0801494502D928
:102B60000320BDE8F0876868216801F00C01B1EB33
:102B7000800FEFD1306800F00F00B8420BD93068F9
:102B800020F00F0038433060306800F00F00B8428A
:102B900001D00120E5E72878400705D5E9682068DD
:102BA00020F4E050084320602878000706D5286903
:102BB000216821F4604141EAC000206000F038F84B
:102BC0002168084AC1F30311515CC84006490860F6
:102BD00006480068FFF7DAFB0020C2E7003C02402D
:102BE00008380240C0930008140000200C000020A8
:102BF0000449054809680068044AC1F38221515C10
:102C0000C84070470838024014000020D0930008E4
:102C10000449054809680068044AC1F34231515C1F
:102C2000C84070470838024014000020D0930008C4
:102C3000154910B51548096811F00C0213D0411060
:102C4000042A0FD0082A0ED10F4C241F22682368B3
:102C500002F03F025B0207D52068C0F38810A0FB9A
:102C6000010106E0084610BD2168C1F38811A1FBEF
:102C700000010023FEF732F82168C1F30141491C2D
:102C80004900B0FBF1F010BD083802400024F40008
:102C90002DE9F84F04004FF000076ED02078DFF8E0
:102CA0007CA3AAF10408C007A8F104054CD0DAF807
:102CB00000105046C1F38101012908D00068C0F31B
:102CC000810002280AD1D8F80000400206D5286801
:102CD000800339D560680028DFD035E06068B0F542
:102CE000803F0BD010B1B0F5A02F11D0286820F490
:102CF00080302860286820F4802002E0286840F4B2
:102D000080302860606890B1FFF726FB06460AE035
:102D1000286840F480202860F0E700BFFFF71CFB24
:102D2000801B642872D828688003F7D50CE0FFF771
:102D300013FB064605E000BFFFF70EFB801B64286F
:102D4000F0D828688003F7D42078800742D5DAF8D5
:102D50000010504611F00C0F08D00068C0F381003D
:102D600002280BD1D8F80000400207D42868800759
:102D700018D5E068012800D114E04AE1E068002895
:102D8000286817D040F001002860FFF7E5FA0646F2
:102D900005E000BFFFF7E0FA801B0228C2D82868D0
:102DA0008007F7D52069296821F0F80141EAC000C1
:102DB00028600FE020F001002860FFF7CDFA0646FA
:102DC00005E000BFFFF7C8FA801B02281ED828685C
:102DD0008007F7D42078000729D5904861696C30C6
:102DE00000298146016812D041F001010160FFF71E
:102DF000B3FA064605E000BFFFF7AEFA801B0228D3
:102E000004D8D9F800008007F6D510E089E021F059
:102E100001010160FFF7A0FA064604E0FFF79CFA03
:102E2000801B02287DD8D9F800008007F6D42078CE
:102E300040076BD5DFF8E49109F13809D9F80000B3
:102E4000C0000BD4D9F8001041F08051C9F800102F
:102E5000D9F80000012700F0805000907048016808
:102E6000C90512D40168834641F480710160FFF7FF
:102E700073FA064605E000BFFFF76EFA801B642870
:102E80004FD8DBF80000C005F6D5644EA068683660
:102E900001280AD008B1052811D0306820F00100BF
:102EA0003060306820F0040002E0306840F001003B
:102EB0003060A068A0B1FFF74FFA83460CE030689D
:102EC00040F004003060F0E7FFF746FAA0EB0B019A
:102ED00041F28830814268D830688007F4D50EE02E
:102EE000FFF73AFA834607E0FFF736FAA0EB0B014B
:102EF00041F28830814258D830688007F4D42FB12D
:102F0000D9F8001021F08051C9F80010A069E0B391
:102F1000DAF80010C1F3810102294DD00228286897
:102F200000E042E020F08070286003D0FFF714FA40
:102F300004463DE0FFF710FA064604E0FFF70CFAFE
:102F4000801B022831D828688001F7D4D4E90921F0
:102F5000DFF8D0C0D4E9070694F830304F0894F871
:102F60002C1030430CEB074444EA8212104340EA31
:102F7000016040EA0370C8F80000286840F08070E3
:102F80002860FFF7E9F9044605E044E0FFF7E4F9BB
:102F9000001B022809D828688001F7D53BE000BF54
:102FA000FFF7DAF9001B022802D90320BDE8F88FE9
:102FB00028688001F4D42EE00128D8F8000028D039
:102FC000E16900F480028A4223D1216A00F03F02C5
:102FD0008A421ED1626A47F6C0710140B1EB821F7E
:102FE00017D1A16A4FF0FF3200F4403302EB5101D8
:102FF000B3EB014F0DD194F82C1000F07062B2EBDE
:10300000016F06D194F8301000F0E040B0EB017F82
:1030100001D00120CAE70020C8E7000008380240BC
:10302000007000400000FFFF401EB0F1807F10B52F
:1030300001D3012010BD4FF0E02460610F21601723
:1030400002F004FA0020A0610721216110BD704741
:1030500070477047F0B590F83C20012A3BD01F4ED6
:10306000012480F83C40022280F83D2002681C4D7B
:103070005368B242D2F808C001D0AA4203D14F68C7
:1030800023F470033B430F6823F070031F43576022
:103090000268B24213D0B2F1804F10D0114B9A4265
:1030A0000DD0114B9A420AD0104B9A4207D0AA4237
:1030B00005D00F4B9A4202D00E4B9A4204D1896838
:1030C0002CF0800319439160002180F83D4080F886
:1030D0003C100846F0BD0220F0BD00000000014099
:1030E000000401400004004000080040000C0040C3
:1030F000004001400018004010B5040003D094F8CF
:103100003D0010B107E0012010BD002084F83C0014
:10311000204600F023F8022084F83D002068211D9D
:1031200001F09AFD012084F8480084F83E0084F8FC
:103130003F0084F8400084F8410084F8420084F89D
:10314000430084F8440084F8450084F8460084F87D
:10315000470084F83D00002010BD000008B501685C
:103160005448554A814210D1106840F00100106067
:1031700010680022114600F0010000901820FFF7AF
:1031800099F91820FFF788F989E04C48B1F1804F90
:1031900011D04B4B99421DD1016841F002010160F1
:1031A00000680022114600F0020000901D20FFF789
:1031B00081F91D2079E0016841F00101016000689A
:1031C0000022114600F0010000901C20FFF772F968
:1031D0001C206AE03B4B99420ED1016841F004018A
:1031E000016000680022114600F0040000901E20DB
:1031F000FFF760F91E2058E0334B99420ED1016869
:1032000041F00801016000680022114600F008004A
:1032100000903220FFF74EF9322046E02B4B9942C6
:103220000ED1016841F010010160006800221146D2
:1032300000F0100000903620FFF73CF9362034E013
:10324000234B99420ED1016841F0200101600068D2
:103250000022114600F0200000903720FFF72AF9E5
:10326000372022E01B4881420ED1106840F48030A4
:10327000106010680022114600F480300090182081
:10328000FFF718F9182010E01348814211D1106897
:1032900040F400301060106800F40030009000220C
:1032A00019201146FFF706F91920BDE80840FFF77D
:1032B000F3B808BD000001404438024040380240E5
:1032C0000004004000080040000C004000100040D6
:1032D00000140040004001400044014090F83D10BF
:1032E000012901D001207047174A022180F83D10C2
:1032F0000168CB6843F00103CB600068904214D0B2
:10330000B0F1804F11D0114988420ED01049884247
:103310000BD01049884208D00F49884205D00F4988
:10332000884202D00E49884207D181680D4A114077
:10333000062906D0B1F5803F03D0016841F00101B4
:1033400001600020704700000000014000040040C0
:1033500000080040000C0040000401400040014013
:10336000001800400700010070B5044690F83C00CA
:103370000025012817D0334B012684F83C60022039
:1033800084F83D0022689068184020F47F409060E7
:103390000868502838D00DDC20284FD005DC90B3C9
:1033A000102811D14AE0022070BD302846D04028B4
:1033B0000AD13BE060282FD070280DD0B0F5805F97
:1033C00003D0B0F5005F12D0012584F83D600020E5
:1033D00084F83C00284670BD4A682068D1E9021391
:1033E00001F0A6FC2068816841F0770109E04A6895
:1033F0002068D1E9021301F09BFC2068816841F448
:1034000080418160E1E719E0CA684968206801F0FD
:10341000A0FC2068502106E0CA684968206801F0D5
:10342000A9FC2068602101F08CFCCEE7CA684968DD
:10343000206801F08EFC20684021F4E722680146F4
:103440001046F0E788FFFEFF70472DE9F041044683
:1034500000680027C6680569A90713D5B10711D50B
:10346000FA1E0261012121772068806980072046C9
:1034700002D0FFF7E9FF04E000F08BF8204600F0EF
:1034800089F82777680716D5700714D522680220B7
:103490006FF00401116120772068806910F4407F8B
:1034A000204602D0FFF7D0FF04E000F072F820467B
:1034B00000F070F82777280715D5300713D5226854
:1034C00004206FF00801116120772068C06980072F
:1034D000204602D0FFF7B8FF04E000F05AF820467B
:1034E00000F058F82777E80616D5F00614D52268BC
:1034F00008206FF01001116120772068C06910F476
:10350000407F204602D0FFF79FFF04E000F041F823
:10351000204600F03FF82777E80708D0F00706D0EC
:1035200021686FF001000861204600F035F8280698
:1035300001D4A80408D5300606D521686FF40250DE
:1035400008612046FFF784FDE80508D5300606D55A
:1035500021686FF4807008612046FFF778FD6806E7
:1035600008D5700606D521686FF040000861204636
:1035700000F03EF8A8060AD5B00608D521686FF01D
:10358000200008612046BDE8F041FFF762BDBDE8BC
:10359000F08170477047000010B51149044600687B
:1035A000884201D100F08CFE2068B0F1804F01D13B
:1035B00003F0B4FD0B492068884207D19FED0A0A49
:1035C00003F0F2FD04F0A8FB04F0C8FA07492068F4
:1035D000884203D1BDE8104003F028BF10BD0000B1
:1035E00000000140000400400AD7A33B000800404F
:1035F000704710B50446D0F88000202801D0022082
:1036000010BD61B15AB101232366002060662046D7
:1036100001F04AFE0028F3D1216E012901D00120DA
:1036200010BD226810211162226852E8001F41F08B
:10363000100142E80013002BF6D110BD10B504466E
:103640000E4801800E482168814207D1204600F0D3
:103650001EF80C4804F0E8FB05F0D6FD0A49206886
:1036600088420AD1204600F012F80648643000F083
:1036700009FBBDE8104005F0DBBD10BDB80100201E
:10368000001001403C2F002000440040704770B5FE
:1036900001680446C06F1025D4F880608968090667
:1036A00018D5212816D12068083050E8001F21F0D5
:1036B000800140E80012002AF5D1206F38B1FEF7F2
:1036C00038FB20B1206FFEF78FFB202821D0204649
:1036D00001F0C6FC20688068400618D5222E16D15D
:1036E0002068083050E8001F21F0400140E8001237
:1036F000002AF5D1606F38B1FEF71BFB20B1606F77
:10370000FEF772FB202804D0204601F083FC002045
:1037100070BDC4F88450032070BD000070B5094925
:10372000044600680825884202D1056205F06CFD58
:1037300005492068884204D10562BDE8704005F063
:1037400077BD70BD00100140004400402DE9F041FC
:1037500002680025044640F60F070226D06911686A
:103760009368384205D187067ED58F067CD5A16E39
:103770002BE1DFF884C203F0010701EA0C0C57EAE1
:103780000C0C71D05FEAC07C0CD05FEAC15C09D53B
:103790004FF0010CC2F820C0D4F8842042F001029E
:1037A000C4F88420820709D5DA0707D02268166298
:1037B000D4F8842042F00402C4F8842042070AD5D9
:1037C000DA0708D0236804221A62D4F8842042F071
:1037D0000202C4F8842002070CD501F020023A430B
:1037E00008D0236808221A62D4F8842042F0080224
:1037F000C4F8842002050BD54A0109D523684FF48B
:1038000000621A62D4F8842042F02002C4F88420B6
:10381000D4F88420002A36D0800605D5880603D542
:10382000A16E09B1204688472168D4F884008968D0
:10383000490602D410F0280F27D0204601F0EAFBF9
:103840002068806840061BD52068083050E8001FBB
:1038500021F0400140E80012002AF5D1606F78B1F4
:1038600066490165606F00E015E0FEF7ABFA0028DD
:1038700009D0606F016D00E02046BDE8F0410847C7
:103880002046FFF74BFFBDE8F0812046FFF746FFDB
:10389000C4F88450F7E7D4F860C02027BCF1010FCA
:1038A0007ED15FEAC06C7BD55FEAC16C7DD510200C
:1038B000106220688068400643D5616F08684068E0
:1038C0000004000CDFD0B4F858208242DBD9A4F801
:1038D0005A00C869B0F5807F2BD0216851E8000FED
:1038E00020F4807041E80002002AF6D120680830F8
:1038F00050E8001F21F0010140E80012002AF5D134
:103900002068083050E8001F21F0400140E8001214
:10391000002AF5D1C4F880702566216851E8000FAF
:1039200020F0100041E80002002AF6D1606FFEF797
:1039300000FA6666B4F85800B4F85A10401A81B21A
:103940002DE0B4F85800B4F85A10B4F85A20401AD0
:1039500081B2002A97D0002995D0226852E8000F42
:1039600020F4907042E80003002BF6D1206800F1AB
:10397000080050E8002F22F0010240E80023002B4D
:10398000F4D1C4F880702566A566226852E8000F5D
:1039900020F0100042E80003002BF6D1666600E03C
:1039A00003E02046FFF74AFE6DE7C60208D55B023A
:1039B00006D54FF4801010622046FFF767FE62E7DD
:1039C000020606D50A0604D5E16E00297FF454AF3D
:1039D00059E74006E8D54806E6D52046026852E891
:1039E000001F21F0400142E80013002BF6D1C76709
:1039F000C56600F045F946E720010004134F0008B2
:103A000010B5040002D0E06F10B107E0012010BD36
:103A1000002084F87800204600F026F82420E06793
:103A20002068016821F001010160606A10B1204640
:103A300001F0B8F9204601F01FFB0128E7D020680B
:103A4000416821F4904141602068816821F02A0199
:103A500081602068016841F0010101602046BDE8F5
:103A6000104001F003BA00002DE9F04FABB005465D
:103A7000142124A8FDF77CF990216846FDF778F918
:103A8000744E0224744A03272868103EDFF8C4B13C
:103A9000002190424FF000684FF4806946D18A4679
:103AA000CDF850A0411568460091FEF76BFD08B1B6
:103AB000FDF727FDDBF8001041F40021CBF80010E2
:103AC000DBF8000000F400202990306840F080000E
:103AD000306030680821564600F080002990CDE91A
:103AE000277124A94FF4C04081E851005B48FEF7DC
:103AF0000FFB5B4C40215B4B04F1080080E8420265
:103B000066612046A661E66126626662C4E9003805
:103B1000FEF73CFA08B1FDF7F4FC00222C673420D4
:103B20001146A563FEF7C6FC342045E04E4A90429C
:103B300047D140208A46119100906846FEF722FD49
:103B400008B1FDF7DEFC4348001D016841F010019B
:103B50000160006800F010002990306840F0020019
:103B6000306030680421564600F002002990CDE90B
:103B7000277124A94FF4404081E851003B48FEF7EB
:103B8000C7FA374C3A4A603420462260C4E90186BD
:103B9000C4E903696661A661E66126626662FEF7B2
:103BA000F5F908B1FDF7ADFC00226C672520114640
:103BB000A563FEF77FFC2520FEF76EFC2BB0BDE869
:103BC000F08F2C4A9042F9D18A4668468021CDF880
:103BD00048A00091FEF7D6FC08B1FDF792FCDBF897
:103BE000001041F40031CBF80010DBF8000000F4C5
:103BF00000302990306840F00800306030680721BC
:103C0000564600F008002990CDE9277124A96020CC
:103C100081E851001848FEF77BFA114C114AC03474
:103C2000183220462260C4E90186C4E9036966614E
:103C3000A661E66126626662FEF7A8F908B1FDF7A3
:103C400060FC00226C6726201146A563FEF732FC5B
:103C50002620B1E740380240004C0040001C0240E2
:103C60007C08002070600240001001400004024007
:103C70004064024000440040000C0240704770471E
:103C800070470000F0B58478427875499FED750A59
:103C900004F00704744BDFED750A42EA04240C803B
:103CA00082786FF03106C578D20842EA4512C2F335
:103CB0000A024A80C27807794579920905F0010520
:103CC00042EA870242EA85228A804579A2F5787223
:103CD0008779322A4FEA550545EAC715C5F30A0523
:103CE000CD80877990F807C04FEA171747EA0C177D
:103CF000C7F30A070F81C77990F808C090F809E068
:103D00004FEAD71747EA4C070EF0030C47EA4C2757
:103D10004F81477A90F80AC04FEA970747EA8C1715
:103D2000C7F30A078F81877A90F80BC04FEA5717BD
:103D300047EACC07CF81477B90F80CC007F0070714
:103D40004CEA07270F82477B90F80EC04FEAD7074F
:103D500047EA4C17C7F30A074F82877B90F80FC0DA
:103D600090F810E04FEA971747EA8C070EF0010C25
:103D700047EA8C278F82077C90F811C04FEA5707DB
:103D800047EACC17C7F30A07CF82477C90F812C0E6
:103D90004FEA171747EA0C17C7F30A070F83877C08
:103DA00090F813C090F814E04FEAD71747EA4C0791
:103DB0000EF0030C47EA4C274F83077D90F815C09F
:103DC0004FEA970747EA8C17C7F30A078F83477DA7
:103DD000807D4FEA571747EAC000C88301DD323AB9
:103DE00002E0B2420BDA323201EE102AF8EEC11ACA
:103DF000B0EE401A21EE811A83ED011A01E0C3ED05
:103E0000010AA5F57875322D02DDC5F1320003E017
:103E1000B5420CDA3235684201EE100AF8EEC11AEA
:103E2000B0EE401A21EE811A83ED021A01E0C3EDD3
:103E3000020AA4F57874322C02DDC4F1320003E0EA
:103E4000B4420ADA3234604200EE900AF8EEE00A38
:103E500020EE800A83ED030AF0BDC3ED030AF0BD36
:103E60003C2300206F12833A8401002000000000F0
:103E7000FEE7000030B528488BB04FF40071FCF726
:103E800077FF2548FF2230213038FCF76AFF2348AE
:103E900040F60C11FCF76CFF1F4AFF230020411C69
:103EA00002EB4014C8B210286370F8D300240394C6
:103EB000012004940E25009469460594CDE906403E
:103EC000CDE90805164801940294FDF793FB1448C8
:103ED000FDF7FCFE12480221FDF715FB114869466B
:103EE000CDE90445FDF786FB0E48FDF7EFFE0D48D2
:103EF0000221FDF708FB0C48694605940494FDF780
:103F000079FB0948FDF7E2FE07480221FDF7FBFABD
:103F10000BB0002030BD00008C2300208C25002039
:103F2000C0030020E803002010040020F0B50F2893
:103F300003D8032901D20F2A01D90120F0BD0F4E69
:103F4000FF2706EB011506F13004AB5CFF2B04D014
:103F5000834202D004EB43135F7004EB40135C78A0
:103F6000FF2C05D093F802C006EB04140CF8047083
:103F7000597018709A70A8540020F0BD5C2300207E
:103F8000002340211A4600F063BA00000F2805D82C
:103F9000034901EB40104178FF2900D10020704710
:103FA0008C23002000234FF438711A4600F050BAD9
:103FB000B5EEC00A0D49F1EE10FADFED0D0A02D29E
:103FC0009FED0C0A05E010EE100A884201DDB0EE0C
:103FD000600A9FED091A20EE010A80EE201ABCEE5D
:103FE000C10A10EE100AC0B27047000000004C4237
:103FF00000004C420000000000007F43B5EEC00A04
:104000000949F1EE10FA02D29FED080A05E010EE20
:10401000100A884201DD9FED060ABCEEC00A10EED0
:10402000100A80B27047000000C07F44000000000A
:1040300000C07F4410EE100A0F4A1049DFED100A4D
:10404000904202D99FED0F0A05E010EE100A884257
:1040500001DDB0EE600A9FED0C1A30EE200ADFEDB4
:104060000B1A20EE010AC0EE210ABCEEE00A10EEA7
:10407000100A80B270470000000020C200002042F9
:1040800000002042000020C200FF7F470000A04245
:1040900010EE100A0F4A1049DFED100A904202D9C3
:1040A0009FED0F0A05E010EE100A884201DDB0EE28
:1040B000600A9FED0C1A30EE200ADFED0B1A20EE9D
:1040C000010AC0EE210ABCEEE00A10EE100A80B22E
:1040D00070470000000020C2000020420000204283
:1040E000000020C200FF7F470000A04200EE100A3F
:1040F0009FED071ADFED071AB8EE400ADFED060A5A
:1041000020EE010A80EE211A31EE200A70470000ED
:104110000000A04200FF7F47000020C2B0F5801FD2
:1041200000D30948DFED090A00EE100A9FED081AD6
:10413000DFED081AB8EE400A20EE200AC0EE010AB0
:1041400030EEA10A70470000FFFF0F000000A04200
:10415000F0FF7F49000020C2B0F5801F00D309485E
:10416000DFED090A00EE100A9FED081ADFED081ACC
:10417000B8EE400A20EE200AC0EE010A30EEA10A95
:1041800070470000FFFF0F000000A042F0FF7F49D2
:10419000000020C27F2800D97F2000EE100ADFED4A
:1041A000070A9FED071AB8EE400AFBEE041A20EE4C
:1041B000200AC0EE010A30EEA10A704700005C43FD
:1041C0000000FE4210EE100A0F4A1049DFED100AFF
:1041D000904202D99FED0F0A05E010EE100A8842C6
:1041E00001DDB0EE600A9FED0C1A30EE200ADFED23
:1041F0000B1A20EE010AC0EE210ABCEEE00A10EE16
:10420000100A80B270470000000020C20000204267
:1042100000002042000020C200FC7F460000A042B7
:104220002DE9FC41064600200F2E0090B0EE613AC9
:10423000F0EE412AF0EE603A019002D90120BDE88B
:10424000FC81FFF7F7FEB0EE630A0546FFF7BAFF01
:10425000B0EE620A0446FFF7D1FEB0EE430A034611
:10426000FFF7A6FEB0EE420A0746FFF711FF4FEA3E
:10427000930C8DF80050C4F30522104942EA8312D2
:104280008DF804C02B0A8DF801308DF8057001EB14
:1042900046118DF80240050A8DF8060008238DF8B6
:1042A00003206A468DF807503046C1ED062A81ED9D
:1042B000073A802100F0CCF8C1E700008C230020F1
:1042C0002DE9F041FEF748F8204F5FF00005064663
:1042D00005EB851000EBC51007EB800494F8020392
:1042E00068B31B4850F82500FDF796FA38B394F8E8
:1042F000000300EB400104EBC1025169711AC829A7
:104300000AD994F80213401C00F01F0084F800033F
:10431000491E84F8021312E0137C516812F8080B4E
:1043200000F0E8F858B994F8001394F80203491C17
:1043300001F01F0184F80013401E84F802036D1C75
:10434000EDB2032DC4D3BDE8F08100008C25002020
:10435000A80100202DE9F0410C6804F00F03C4F31C
:104360000016002E24F01F052AD0354CA04201D1A2
:10437000002008E0334CA04201D1012003E0324C80
:10438000A0421DD10220802D05D1102B1C4602D346
:10439000A4F11003DBB22D4C04EB0010C35C0F2B17
:1043A0000ED8202D04F1300444D0402D42D0802D71
:1043B00008D0B5F5387F03D104EB43111078487568
:1043C000BDE8F08108690828FAD392F802C0108885
:1043D000D5790CF00F01D6784FEA1C1C177961F3E0
:1043E0001F40B2F805806A0805F001014CEA061585
:1043F00045EA0735FFF792FEF0EE400A2846B0EE98
:10440000602AFFF7A9FEF0EE400A4046F0EE602A6F
:10441000FFF76CFEF0EE400A1046B0EE603AFFF790
:10442000B9FE04EB4310051D80ED040A85EC032A58
:104430000175C5E704EB43111078C870C0E70000B0
:10444000C0030020E8030020100400205C230020AB
:104450002DE9F0470F2807461E46904689460FD89B
:10446000082E0DD8214800EB47146078FF2807D0AC
:10447000384600F03FF8022803D16078032802D3C1
:104480000120BDE8F08700EB801101EBC010184956
:1044900001EB800494F80203202801D30220F0E706
:1044A00094F8010300EB400004EBC0052F70C5F841
:1044B00004902E74FDF750FFB8F1000F686106D02C
:1044C0002EB105F1080032464146FCF738FC94F85D
:1044D0000123002094F80213521C02F01F0284F8FA
:1044E0000123491C84F80213CBE700008C23002031
:1044F0008C2500202DE9F8430F281C4690460E46D7
:104500002DD8082C2BD8184901EB40156878FF28C6
:1045100025D0164F57F82000FDF77EF908B3A8788C
:104520000022134900F00F003043B8F10003C1E945
:1045300000028A60C1E9032406D02CB1A7F108006B
:1045400022461946FCF7FBFB68786B46074A084988
:10455000083A57F82000FCF7E8FFBDE8F88301208F
:10456000FBE70220F9E700008C230020A8010020CF
:10457000982E00200A48017919B90121017180EDB6
:10458000020AD0ED000AB7EE001AD0ED021A31EEA1
:10459000601A21EE211A00EE801A80ED021A70478F
:1045A0002C210020DFED091AB7EE001A084800217F
:1045B00020EE210A20EE200AC1EE000A30EE810A28
:1045C000C1EE000AC0ED000A01717047DB0FC9405F
:1045D0002C2100200E48002110B506240B4B22048C
:1045E0000360C0E901410123C0E903124161017682
:1045F00041768376C17601774177FDF721FA00286D
:1046000003D0BDE81040FCF77CBF10BD0064004043
:10461000C00300200E48002110B506240B4B2204D5
:104620000360C0E901410123C0E903124161017641
:1046300041768376C17601774177FDF701FA00284C
:1046400003D0BDE81040FCF75CBF10BD006800401F
:10465000E80300200E48002110B506240B4B22046D
:104660000360C0E901410123C0E903124161017601
:1046700041768376C17601774177FDF7E1F900282D
:1046800003D0BDE81040FCF73CBF10BD0034004033
:1046900010040020154808B5016841F400110160BC
:1046A000016801F400110091016841F4800101608A
:1046B00000680022114600F4800000900F20FDF7F2
:1046C000F9FE0F20FDF7E8FE002210201146FDF74D
:1046D000F1FE1020FDF7E0FE00223A201146FDF722
:1046E000E9FEBDE808403A20FDF7D6BE303802406A
:1046F000114808B5016841F080010160016801F0CE
:1047000080010091016841F002010160016801F03F
:1047100002010091016841F001010160016801F0AE
:1047200001010091016841F008010160006800F09A
:104730000800009008BD0000303802400C4841F2EB
:10474000873370B50021094DD724C0E902138022B8
:1047500082610161C0E90054FEF7CEFC002803D05D
:10476000BDE87040FCF7CDBE70BD000000440140C4
:104770009806002030B587B0184800241649D72283
:1047800040F2F3130094802501940294039404945E
:104790000594069480E81600C0E90334C0E9054595
:1047A000FEF7AAFC08B1FCF7ACFE4FF48050009075
:1047B0000A486946FEF7D8FD08B1FCF7A2FE074893
:1047C00004A9049405940694FEF744FC002801D043
:1047D000FCF797FE07B030BD000001403804002010
:1047E00030B587B01748002440F69F736B220094C1
:1047F0004FF0804101948025029403940494059421
:10480000069480E816008561C0E90334FEF774FC65
:1048100008B1FCF776FE4FF48050009009486946D5
:10482000FEF7A2FD08B1FCF76CFE064804A904944B
:104830000694FEF70FFC002801D0FCF762FE07B0DB
:1048400030BD00008404002030B587B01748002434
:1048500015496B2240F2CF73009480250194029495
:10486000039404940594069480E816008561C0E9D9
:104870000334FEF741FC08B1FCF743FE4FF48050CF
:1048800000900A486946FEF76FFD08B1FCF739FE53
:10489000064804A904940694FEF7DCFB002801D026
:1048A000FCF72FFE07B030BD00040040D00400200C
:1048B00030B587B01748002415496B2240F6B7334E
:1048C0000094802501940294039404940594069422
:1048D00080E816008561C0E90334FEF70DFC08B1DD
:1048E000FCF70FFE4FF4805000900A486946FEF72F
:1048F0003BFD08B1FCF705FE064804A904940694A4
:10490000FEF7A8FB002801D0FCF7FBFD07B030BD87
:10491000000800401C05002030B587B0174800246F
:1049200015496B2241F2873300948025019402944B
:10493000039404940594069480E816008561C0E908
:104940000334FEF7D9FB08B1FCF7DBFD4FF48050D0
:1049500000900A486946FEF707FD08B1FCF7D1FD53
:10496000064804A904940694FEF774FB002801D0BD
:10497000FCF7C7FD07B030BD000C00406805002003
:104980003EB51048002441F287320D4D6B23009450
:104990000194802102948161C0E90242C0E9005380
:1049A000FEF7AAFB08B1FCF7ACFD06486946009487
:1049B0000294FEF74FFB002801D0FCF7A2FD3EBD9C
:1049C00000100040B40500203EB51048002441F21C
:1049D00087320D4D6B2300940194802102948161F4
:1049E000C0E90242C0E90053FEF786FB08B1FCF7BC
:1049F00088FD0648694600940294FEF72BFB0028C8
:104A000001D0FCF77EFD3EBD0014004000060020F2
:104A10007FB51248002140F2E7330F4D0091D724B3
:104A20000191802202910391C0E902138261016128
:104A3000C0E90054FEF760FB08B1FCF762FD4FF4DB
:104A40008050009005486946FEF78EFC002801D092
:104A5000FCF757FD7FBD0000004001404C060020E0
:104A60000D48002110B50B4C0C224FF4E1330460CB
:104A7000C0E90131C160C0E904128161C161016214
:104A80004162FEF7BDFF002803D0BDE81040FCF7EF
:104A900038BD10BD004C0040E40600200D48002148
:104AA00010B50B4C0C224FF4E1230460C0E9013136
:104AB000C160C0E904128161C16101624162FEF717
:104AC0009FFF002803D0BDE81040FCF71ABD10BDC1
:104AD000001001406C0700200E4800212DE9F04134
:104AE0000B4A0C25C0E90551C1610B4B94140162BE
:104AF00056141715416280E8DC00FEF781FF00289C
:104B000003D0BDE8F041FCF7FCBCBDE8F08100003B
:104B100000440040F4070020A0860100FEE7FEE705
:104B200070477047FDF71EBC30B593B0342168461E
:104B3000FCF71EF914210DA8FCF71AF920480168AA
:104B400041F080510160006800F0805012901D48D3
:104B5000016841F44041016000680224042300F42C
:104B60004040129001200893D82582050104CDE928
:104B70000642CDE909540B94CDE9000168460C9436
:104B8000FEF786F808B172B6FEE7FDF7C5FC08B17E
:104B900072B6FEE70FAD00214FF4A0524FF48053E0
:104BA00085E80E000F20CDE90D0407210DA8FDF7C3
:104BB00087FF002801D072B6FEE713B030BD0000B9
:104BC00040380240007000400248016841F4700122
:104BD0000160704788ED00E0044810B5FEF735FC31
:104BE000BDE810400248FEF730BC00003804002049
:104BF0004C060020044810B5FEF727FCBDE8104025
:104C00000248FEF722BC000038040020980600206D
:104C10000148FEF71ABC0000840400200148FEF79A
:104C200014BC0000D00400200148FEF70EBC0000B8
:104C30001C0500200148FEF708BC000068050020A4
:104C40000148FEF702BC0000B40500200148FEF751
:104C5000FCBB000000060020F0B52A4B4FF0804E50
:104C6000294D02689842294E294F2A4C09D0704597
:104C700007D0A84205D0B04203D0B84201D0A0422C
:104C800005D1D1F804C022F070024CEA0202984229
:104C90001BD0704519D0A84217D0B04215D0B842E9
:104CA00013D0A04211D01C4DA8420ED01B4DA842DB
:104CB0000BD01B4DA84208D01A4DA84205D01A4D62
:104CC000A84202D0194DA84203D1CD6822F4407207
:104CD0002A434D6922F080022A43026098428A6882
:104CE000C2620A68826201D0A04201D109690163EF
:104CF000012141610169C90703D0016921F0010166
:104D00000161F0BD000001400004004000080040C7
:104D1000000C0040000401400040014000440140FC
:104D20000048014000180040001C004000200040E6
:104D300042EA032283680A4323F47F410A438260E4
:104D40007047826822F070020A4342F007018160D6
:104D5000704710B5036A046A23F00A0324F00104C3
:104D6000046284690B4324F0F00141EA021181617D
:104D7000036210BD10B5036A046A23F0A00324F097
:104D800010040462846943EA011124F4704343EA85
:104D900002328261016210BD0148FEF7D7BC0000FB
:104DA000E406002090F82410090706D50168436B3B
:104DB0004A6822F400421A434A6090F82410C90756
:104DC00006D00168836A4A6822F400321A434A60B6
:104DD00090F82410890706D50168C36A4A6822F44E
:104DE00080321A434A6090F82410490706D50168BA
:104DF000036B4A6822F480221A434A6090F8241018
:104E0000C90606D50168836B8A6822F480521A436A
:104E10008A6090F82410890606D50168C36B8A68F9
:104E200022F400521A438A6090F82410490611D5E2
:104E30000168036C4A6822F480121A434A60016CCC
:104E4000B1F5801F06D10168436C4A6822F4C002A4
:104E50001A434A6090F82410090606D50168826C4E
:104E6000486820F400201043486070472DE9F8435B
:104E700000250446C0F88450FDF76EFA804620688D
:104E800020266FF07E470068000712D500224346B7
:104E900031042046009700F057FA50B1216851E8DC
:104EA000000F20F0800041E80002002AF6D1E667FA
:104EB00021E020680068400722D5002243464FF4D5
:104EC00080012046009700F03FFAC8B1206850E802
:104ED000001F21F4907140E80012002AF6D12068EA
:104EE000083050E8001F21F0010140E80012002ABC
:104EF000F5D1C4F88060032084F87850BDE8F883C9
:104F0000E667C4F8806025666566002084F87850FE
:104F1000F4E710B5806B0021A0F85A10A0F85210E9
:104F2000FEF7FCFB10BD70B5846B00252168E06FB7
:104F3000D4F880608968090606D5212804D1A4F830
:104F40005250204600F08CF820688068400606D554
:104F5000222E04D1A4F85A50204600F05BF8D4F871
:104F6000840040F01000C4F884002046FEF7D6FB11
:104F700070BD10B5C1690022806BB1F5807F2DD066
:104F8000A0F85A20036853E8001F21F4807143E819
:104F90000014002CF6D10168083151E8003F23F0DD
:104FA000010341E80034002CF5D10168083151E8D3
:104FB000003F23F0400341E80034002CF5D12021CC
:104FC000C0F88010016E012908D1016851E8003F46
:104FD00023F0100341E80034002CF6D14266016E44
:104FE000012902D0FEF74AFE10BDB0F85810FEF7B6
:104FF00025FB10BD10B5806B01214166016E0129B2
:1050000002D0FEF73CFE10BDB0F858104908FEF77C
:1050100015FB10BD016851E8002F22F4907241E8A1
:105020000023002BF6D10168083151E8002F22F04F
:10503000010241E80023002BF5D1016E012908D1BE
:10504000026852E8001F21F0100142E80013002B13
:10505000F6D100212022C0F88020016681667047C9
:10506000026852E8001F21F0C00142E80013002B43
:10507000F6D12021C16770472DE9F041044603684D
:10508000C2698168D4E90450DFF8F0C17C4E29433D
:105090001F68002510437B4A014307EA0C070F43B2
:1050A0001F604FF400402168E7684B6823F44053C9
:1050B0003B434B602768A369216AD7F808C01943AE
:1050C0002CF430630B43BB602168B1420AD11168F4
:1050D00011F0030152D001297CD0022971D003299B
:1050E0006ED184E0684B99420AD1116811F00C012D
:1050F00067D0042965D0082975D00C2960D176E0E5
:10510000624B99420AD1116811F0300159D010292F
:105110006BD0202967D0302952D168E05C4B99428E
:105120000AD1116811F0C0014BD040295DD080290F
:1051300059D0C02944D15AE0564B99420DD111683B
:1051400011F440713DD0B1F5807F4ED0B1F5007FB4
:1051500049D0B1F5407F33D149E04F4B99420FD14F
:10516000116811F4406109D0B1F5806F3DD0B1F5FF
:10517000006F38D0B1F5406F22D138E0012120E036
:10518000464B99420DD1116811F4405119D0B1F537
:10519000805F2AD0B1F5005F25D0B1F5405F0FD117
:1051A00025E03F4B99420BD1116811F4404108D0E2
:1051B000B1F5804F19D0814215D0B1F5404F16D0CE
:1051C0001021E369374A4FF6EF7683422ED1092941
:1051D00049D201E009E006E0DFE801F00B0E1145DD
:1051E0001345454516000221EBE70421E9E70821B4
:1051F000E7E7FDF7FDFC06E0FDF70AFD03E01046DA
:1052000002E0FDF715FD78B36168400000EB510046
:10521000B0FBF1F0A0F11001B14224D84FF6F073C9
:105220002168C0F342021840104320E009291AD235
:10523000DFE801F005080B190D1919191000FDF729
:10524000D7FC06E0FDF7E4FC03E0104602E0FDF7C2
:10525000EFFC48B1616800EB5100B0FBF1F0A0F148
:105260001001B14201D9012502E0216880B2C86075
:105270000020A066E0662846BDE8F081F369FFEFF4
:1052800000100140903802400044004000480040B7
:10529000004C0040005000400014014000780040E5
:1052A000007C00400024F40070B50446406F0023E9
:1052B00022256165A4F85820C4F88430C4F88050D1
:1052C000D0B11E49C163616F1D480864616F1D48FC
:1052D000C864606F03651346656D2168606F2A4678
:1052E0002431FCF7C5FE38B11021C4F88410202009
:1052F000C4F88000012070BD206940B1216851E8E8
:10530000000F40F4807041E80002002AF6D12068C6
:10531000083050E8001F41F0010140E80012002A67
:10532000F5D12068083050E8001F41F0400140E806
:105330000012002AF5D1002070BD0000734F000854
:10534000F54F0008274F00082DE9F047994617460A
:105350000D460446089E4FF0000833E0701C31D023
:10536000FCF7FAFFA0EB0900B04218D8BEB12068E4
:105370000168490726D5802D24D0402D22D0C1694F
:10538000C94309070DD4082505622046FFF742FEF0
:10539000C4F88450012084F87880BDE8F0870320A9
:1053A000FBE7C069C04300050CD421684FF40060DE
:1053B00008622046FFF72EFE2021C4F8841084F8EE
:1053C0007880ECE72068C06935EA000004D000204E
:1053D000B842C3D00020E0E70120F9E70148FEF71A
:1053E000B5B900006C0700200148FEF7AFB9000016
:1053F000F4070020FEE703B401984100009850EA4A
:10540000C12018BF04204A0D18BF40F0010040F22F
:10541000FF72B2EB515F08BF40F00200012808BFE5
:10542000052002B070474100080218BF04200A0E90
:1054300018BF40F001004FF07F4232EA010108BF7F
:1054400040F00200012808BF052070470907002826
:105450004FEA116104DB00F1E02080F8001470478E
:1054600000F00F0000F1E02080F8141D70470000EC
:1054700010B510EE104A4FF01A402DED028B00EBE4
:105480004400B0F1C85F4AD84FF0FC40B0EB440F85
:1054900022D2B0EEC00AF7EE000A30EEC00AF6EEF5
:1054A000000A20EE208A18EE100A03F0D4FC00EE69
:1054B000100A14F0004F1DBF9FED281ADFED280AD7
:1054C000B1EE400A9FED271A08BFF0EE410AF8EE50
:1054D000001A20EE210A05E020EE008A9FED221A34
:1054E000DFED220ADFED221A9FED222A70EEC00ABC
:1054F00020EE080A08EE212ADFED1F1A48EE021AF4
:105500009FED1E2A08EE212ADFED1D1A48EE021A31
:10551000BDEC028B40EE610A30EE810A10BD4FF007
:10552000CC40B0EB440F82BF9FED160ABDEC028B5E
:1055300010BD4FF07F40B0EB440F05D2BDEC028BA5
:10554000BDE8104001F072BB012001F047FCBDEC4A
:10555000028BBDE8104001F06FBB00000000494025
:1055600022AA7D3A000000000000C93F22AAFD39AE
:1055700024FE1C3DC78AD83C1E67383D1B93993DCD
:10558000AFAA2A3EDB0FC93F10EE100A10B510EE8D
:10559000901A4FF0684202EB40032DED028BB3F1FD
:1055A000654F3CBF02EB4102B2F1654F7CD200BFB8
:1055B000C0F3C753C1F3C7529A1A1B2A09DD10F072
:1055C000004F14BF9FED6E0A9FED6E0ABDEC028B7B
:1055D00010BD12F11A0F1BDA11F0004F09D010F0B4
:1055E000004F0CBF9FED680A9FED680ABDEC028B6F
:1055F00010BD80EE208A18EE100AFFF714FF042871
:1056000008BF01F029FBB0EE480ABDEC028B10BDCB
:105610004200B2EB410F37D910F0004F19BFDFED58
:105620005C1A9FED5C1ADFED5C1A9FED5C1AB0EE20
:10563000602A0A46F1EE400A80F00041B0EE420ACC
:1056400010460A1A5200B2F1807F34D2484010F05E
:10565000004FDFED532A9FED533A1DBFBEEE002AE7
:1056600071EEE21A31EE431AB6EE002A04BF71EE73
:10567000A21A31EE031AF0EE402A42EE602A40EE02
:10568000020A82EEA02A18E011F0004F04BF9FED3D
:10569000461AF0EE411AD4D010F0004F1CBFDFEDD7
:1056A000431A9FED431A00E026E004BFDFED411AE4
:1056B0009FED411AC5E780EE202A22EE020ADFEDB7
:1056C0003F0ADFED3F2ABDEC028B40EE202ADFEDE2
:1056D0003D0A40EE220ADFED3C2A40EE202ADFEDB3
:1056E0003B0A40EE220A22EE000A00EE201A31EEBA
:1056F000020A30EE210A10BD4FF07F42B2EB400F9C
:1057000028BFB2EB410F05D2BDEC028BBDE81040C3
:1057100001F08FBA40EA01035B0008BF41F0FF418E
:105720000BD0B2EB400F08BFB2EB410F08D120F015
:10573000804000EE100A21F0804100EE901A37E719
:10574000B2EB400F12BF5FEA410240F0FF4001F0B0
:1057500000413FF42DAF4A0092EA40033FF528AFE5
:10576000002AACBF9FED1A1A9FED1A1A20EE010A0B
:1057700060EE810A10EE100A10EE901A18E7000091
:10578000DB0FC9BFDB0FC93FDB0F4940DB0F49C04F
:105790000000C9BF22AAFDB90000C93F22AAFD39F5
:1057A0000060ED3EC30ACE3700000000000049C093
:1057B00022AA7DBA0000494022AA7D3A2DAD65BDDE
:1057C0008FB8D53D0FB511BE61C84C3EA8AAAABE80
:1057D0000000804F0000802F10B52F499FED2C1B3B
:1057E0002DED020B84B0059820F000408842D8BF10
:1057F0009DED040B2DDD2949884209D1049840B95B
:105800004FF0010001F0EAFA01F0E6F906B010BD30
:1058100005DB9DED040B01F0D3F906B010BD684621
:105820009DED040B00F0E4FD10F0030004BF9DEDBE
:10583000021B9DED000B0CD001280ED09DED021B2C
:105840009DED000B022817D0012001F021F906B0D0
:1058500010BD00F0E9FF06B010BD9DED021B9DEDEF
:10586000000B012001F014F951EC100B81F0004104
:1058700006B041EC100B10BD00F0D6FF51EC100B40
:1058800081F0004106B041EC100B10BD000000009B
:105890000000000000000000FB21E93F0000F07F55
:1058A00010EE101A08B5444A6846B2EB410F28D9E9
:1058B0004FF0E640B0EB410F94BF00204FF0FF30B7
:1058C00000900098002861DB60EE000A10F0010FE4
:1058D00045D010F0020FDFED391A9FED391A00EEB6
:1058E000E11ADFED381A40EE811A21EEA01AF0EE2F
:1058F000400A40EE010A08BFF1EE600AB0EE600A0D
:1059000008BD314B21F0004293423CD911F0004FC9
:10591000DFED2E0A20EE201ADFED2D0A19BF31EE41
:10592000601A71EE200A31EE201A71EE600ABDEEA7
:10593000E01A11EE100A9FED271A00F0030000EEA6
:10594000C10A9FED251A009000EEC10A9FED231AAF
:1059500000EEC10A9FED221A00EEC10AB1E79FEDE9
:10596000211A9FED210A10F0020F00EE810A9FED2F
:105970001F1A00EE801AB7EE000A00EE810A18BF67
:10598000B1EE400A08BD01F06FF99AE710EE100A77
:105990004000B0F17F4F3CBFB7EE000A08BD07D111
:1059A0004FF0010001F01AFABDE8084001F044B9D7
:1059B000BDE8084001F03AB9B61F927E336D4C390C
:1059C000DA82083CA0AA2ABE490E494683F9223F42
:1059D0000000004B0000C93F00A0FD390020A233A9
:1059E0001A61342CB93AB2BACA9F2A3DDDFFFFBE14
:1059F00010B52DED040B86B09DED060B10EE100AD0
:105A000010EE901A8DED000B002818BF01200843FE
:105A100020F00040C0F17F6000F1E040C00F21D1D4
:105A20009DED080B10EE101A10EE900A8DED000B94
:105A3000002918BF0121084320F00040C0F17F6019
:105A400000F1E040C00F0DD129490798B1EB400F9C
:105A500004BF0698002842D00998400004BF089867
:105A600000283CD09DED080B53EC102B9DED060B50
:105A700051EC100BFBF710FCCDE902019DED020B80
:105A800040F2FF7110EE900A8DED000B31EA1050DC
:105A900021D00798039900F0004001F000418842AE
:105AA00019D09DED080B8DED040B9DED020B8DEDD6
:105AB000000B10EE900A059961F31E0005909DED14
:105AC000041B9DED020B51EC110B53EC102BFBF75B
:105AD000FEF9CDE902019DED020B0AB010BD0120D7
