:020000040800F2
:10000000A03600200D02000861480008833A00086D
:100010005D48000843080008D551000800000000B2
:100020000000000000000000000000006748000819
:100030002B0A000800000000654800086948000815
:1000400027020008270200082702000827020008EC
:1000500027020008270200082702000827020008DC
:1000600027020008270200082702000827020008CC
:100070002702000827020008270200081D090008BF
:100080002D0900082702000827020008270200089F
:100090004908000827020008270200082702000874
:1000A00041490008594900082702000827020008B2
:1000B0007149000881490008914900082702000899
:1000C000270200082702000827020008270200086C
:1000D00027020008B5510008C55100082702000892
:1000E000270200082702000827020008270200084C
:1000F000270200082702000827020008270200083C
:100100002702000827020008A1490008270200086A
:10011000314B000827020008B1490008C149000816
:1001200027020008270200083D09000827020008EE
:1001300027020008270200082702000827020008FB
:1001400059080008270200082702000827020008B3
:1001500027020008270200082702000827020008DB
:1001600027020008270200082702000827020008CB
:1001700027020008270200082702000800000000EC
:1001800027020008270200082702000827020008AB
:10019000270200082702000827020008270200089B
:1001A000270200082702000827020008270200088B
:1001B000270200082702000827020008270200087B
:1001C000270200082702000800000000270200089C
:1001D000270200082702000827020008270200085B
:1001E0002702000869080008270200082702000803
:1001F0002702000827020008DFF80CD000F0A0FA60
:1002000000480047697F0008A03600200648804764
:1002100006480047FEE7FEE7FEE7FEE7FEE7FEE7EB
:10022000FEE7FEE7FEE7FEE72D490008F9010008BA
:100230002DE9F05F0546002092469B46884606461B
:10024000814640241BE0284641464746224600F0AE
:1002500069F853465A46C01A914110D311461846C0
:10026000224600F050F82D1A67EB01084F4622464F
:100270000120002100F047F817EB00094E41201E35
:10028000A4F10104DFDC484631462A464346BDE876
:10029000F09F40EA01039B0703D009E008C9121F41
:1002A00008C0042AFAD203E011F8013B00F8013B30
:1002B000521EF9D27047D2B201E000F8012B491E5C
:1002C000FBD270470022F6E710B513460A460446F3
:1002D0001946FFF7F0FF204610BD30B50B4601462A
:1002E00000202022012409E021FA02F59D4205D3D5
:1002F00003FA02F5491B04FA02F52844151EA2F17F
:100300000102F1DC30BD202A04DB203A00FA02F1C0
:10031000002070479140C2F1200320FA03F31943F3
:1003200090407047202A04DB203A21FA02F0002195
:10033000704721FA02F3D040C2F1200291400843F5
:10034000194670472DE9FE4F804681EA0300C00F31
:100350000C46009021F0004123F00045B8EB02006C
:10036000A94105D24046214690461C460B4602460E
:1003700023F00040104347D0270DC7F30A00C3F312
:100380000A510290401A019040286BDAC3F313001F
:1003900040F4801B0098924620B10023D2EB030A60
:1003A00063EB0B0B01985946C0F140025046FFF732
:1003B000AAFF06460D4650465946019A00F0D2F96A
:1003C00010EB08006141002487EA115284EAE773C8
:1003D0001A4340D0009A62B3019A012A4FEA0752A9
:1003E00015DC001B61EB02014FF0004202EA0752EC
:1003F000CDE90042001C41F5801132462B4600F049
:10040000D2F903B0BDE8F08F40462146F9E7001B62
:1004100061EB0201001C41F5801300185B412018BC
:10042000A2F5001747EB030140EAD570B6196D41FC
:1004300011E06D084FEA360645EAC0754FEA0752EB
:10044000001B61EB0201001C41F5801149084FEAD5
:1004500030000019514132462B4603B0BDE8F04F41
:1004600000F092B90098012240000023D0EB020274
:1004700063EBE073009821464FEAE074B8EB0000AC
:1004800061EB0401E9E783F000435BE781F00041A1
:1004900058E72DE9FE4F81EA030404F0004421F0FF
:1004A000004100944FF0000B23F0004350EA010498
:1004B0005ED052EA03045BD0C3F30A54C1F30A5579
:1004C0002C44A4F2F3340194A0FB0254C1F31301B1
:1004D00041F48011C3F3130343F4801301FB02447E
:1004E00000FB034E840A970A44EA815447EA835783
:1004F000A4FB076802958D0A05FB07854FEA932C3C
:1005000004FB0C542705029D4FEA065847EA1637AC
:10051000B5EB08056EEB070C870E920E47EA8117C4
:1005200042EA8312A7FB0201B6EB0B0164EB000465
:100530002B0D43EA0C335E1844EB1C50DA4651464F
:10054000E7FB0201C5F313044FEA0B3343EA1453EC
:100550004FEA0432019C43EA0603A4F10C0402941E
:10056000009CCDE900B400F01EF903B0BDE8F08FA7
:1005700000200146F9E72DE9F04D81EA030404F07B
:10058000004B21F0004514464FF0000A23F00041D3
:1005900050EA050220D054EA01021DD0C5F30A57E3
:1005A0000246C5F31303C1F31300C1F30A5640F426
:1005B000801543F48013A7EB0608101BD64608F2FB
:1005C000FD3873EB050002D308F1010801E0921831
:1005D0005B41B8F1000F03DA00200146BDE8F08D61
:1005E00000204FF48011064684460EE0171B73EB83
:1005F000050705D3121B63EB050306434CEA010C08
:1006000049084FEA300092185B4150EA0107EDD1EA
:1006100052EA030012D082EA040083EA050108438B
:1006200005D0101BAB4106D20122002306E00022B8
:100630004FF0004302E06FF0010253101AEB060086
:100640004CEB085110EB0A0041EB0B01BDE8F04DFB
:1006500000F09AB82DE9FE4FC3F30A5701F00045A8
:100660000024C1F30A56C3F31303C1F3130143F487
:10067000801312EB020AA64641F48011009543EB69
:10068000030CA7F1010B16E0B0EB0A0061EB0C01C3
:10069000071E71F1000707DA4FF00008D0EB0800E1
:1006A00085F0004568EB0101171A73EB0107EBD3E6
:1006B000761E001849415E45F6DA50EA010209D07B
:1006C000CDE900E500221346029600F06CF803B075
:1006D000BDE8F08F20460099F9E7C1F30A52C1F353
:1006E000130140F2FF3341F480119A4202DA0020F4
:1006F0000146704740F233439A42A2F2334202DC91
:100700005242FFF70FBEFFF7FEBD000030B5041EDA
:1007100071F1000404DB4FF00044404264EB01013E
:10072000141E73F1000405DB1C464FF000435242D7
:1007300063EB0403994208BF904230BD002070472C
:10074000064C074D06E0E06840F0010394E807001E
:1007500098471034AC42F6D3FFF752FD2C8D0008B9
:100760004C8D0008202A06DBCB17203A41FA02F014
:1007700043EAE07306E041FA02F3D040C2F12002FE
:10078000914008431946704710B5141E73F10004D8
:1007900008DA401C41F1000192185B411A4301D173
:1007A00020F0010010BD2DE9F04D92469B4611B19D
:1007B000B1FA81F202E0B0FA80F220329046FFF7FF
:1007C000A2FD04460F4640EA0A0041EA0B015346E7
:1007D0005A46084313D0114653EA010019D0C8F114
:1007E00040025046FFF79EFD05460E4650465946CC
:1007F0004246FFF788FD084305D0012004E020466B
:100800003946BDE8F08D0020054346EAE0762C43EA
:1008100037430A986305E40AA0EB08000022FD0AAA
:1008200044EA47540A3002D500200146E9E70105B1
:1008300010196941DDE9084500196941BDE8F04D2D
:10084000A2E700BFFEE7000010B5024800F032FB4F
:1008500010BD00003C00002010B5024800F02AFB4B
:1008600010BD00006400002010B5024800F022FB1B
:1008700010BD00008C0000202DE9F0470646894697
:1008800092461F46DDF82080032E02DB0120BDE8E2
:10089000F08706EB861000EBC6101A4901EB8004C6
:1008A00094F80203202801DB0220F0E794F801030A
:1008B00000EB400004EBC00585F80090C5F804A0EB
:1008C00085F8108001F00CF9686147B1B8F1000FAC
:1008D00005DD4246394605F10800FFF7DAFC94F8D9
:1008E0000113481CC11700EBD1614911A0EB411164
:1008F00084F8011394F80203401C84F802030020DA
:10090000C5E70000640D002010B540F60C11024848
:10091000FFF7D8FC10BD0000640D002010B50248A0
:1009200000F040FE10BD0000F804002010B50248A1
:1009300000F038FE10BD0000B805002010B50248D8
:1009400000F030FE10BD0000580500200146087878
:1009500010381823B0FBF3F20848805CC865032AFE
:1009600005D908686FF30900001D886503E0086871
:100970006FF309008865886D70470000748800086F
:10098000014600208A6A8B69CBB932B1012A0DD0A9
:10099000022A03D0032A10D10EE000BFCB6A03F075
:1009A0008073B3F1807F00D1012007E0CB6AB3F1FF
:1009B000C07F00D1012001E000E000BF34E08B697E
:1009C000B3F5005F1AD132B1012A07D0022A03D051
:1009D000032A11D10AE000BF01200EE0CB6A03F028
:1009E0008073B3F1807F00D1012006E0CB6AB3F1C0
:1009F000C07F00D1012000E000BF15E032B1012A24
:100A000005D0022A04D0032A0CD103E000BF00BFA6
:100A1000012008E0CB6A03F08073B3F1807F00D13E
:100A2000012000E000BF00BF7047704772B600BFF2
:100A3000FEE710B5024692F82030012B01D0022BC0
:100A400006D110684069084314686061002010BD39
:100A5000506A40F4802050620120F8E7F0B5044667
:100A60000D461E4694F8207020688368A86800B977
:100A700000E000BF012F01D0022F7DD103F0806084
:100A800030B903F0006018B903F0805000287ED020
:100A9000C3F30161012088403060A86860B9B5F8EF
:100AA00000C0E86840EA4C5C206800F5C07000EBCC
:100AB0000110C0F800C00FE0D5E901C040EACC0049
:100AC000D5F80CC040EA0C00D4F800C00CF5C07C8E
:100AD0000CEB011CCCF80000D5F810C0206800F524
:100AE000C07000EB0110C0F804C0287D01280ED1B1
:100AF000206800F5C07000EB0110406840F4807C75
:100B0000206800F5C07000EB0110C0F804C0D07977
:100B1000000692F806C040EA0C4092F805C040EA90
:100B20000C2092F804C040EA0C00D4F800C00CF588
:100B3000C07C0CEB011CCCF80C00D078000692F8BD
:100B400002C040EA0C4092F801C040EA0C2092F842
:100B500000C040EA0C00D4F800C00CF5C07C0CEBDF
:100B6000011CCCF80800206800F5C07000EB0110F3
:100B7000006840F0010C01E00FE008E0206800F59B
:100B8000C07000EB0110C0F800C00020F0BD606A2A
:100B900040F4001060620120F8E7606A40F48020B1
:100BA00060620120F2E70000F0B504460A462168C1
:100BB00094F82050012D01D0022D75D1484E2068A7
:100BC000B04200D101E0474900BFD1F8000240F037
:100BD0000100C1F80002434881420CD1D1F8000263
:100BE00020F47C50C1F80002D1F80002566A40EAB5
:100BF0000620C1F80002107D00F01F06012000FA57
:100C000006F3D1F81C029843C1F81C02D069C8B998
:100C1000D1F80C029843C1F80C02908880B29689F2
:100C200040EA064601F51070576940F837601088B1
:100C300080B2168940EA064601F51070576900EB4C
:100C4000C7004660D069012819D1D1F80C021843B9
:100C5000C1F80C02908880B2168840EA064601F579
:100C60001070576940F83760908980B2168940EA61
:100C7000064601F51070576900EBC70046609069A1
:100C800028B9D1F804029843C1F8040204E0D1F86D
:100C900004021843C1F80402106930B9D1F81402F3
:100CA0009843C1F8140205E014E0D1F81402184387
:100CB000C1F81402106A012804D1D1F81C021843AB
:100CC000C1F81C02D1F8000220F00100C1F80002B6
:100CD0000020F0BD606A40F4802060620120F8E7E7
:100CE0000034004000640040704770B5044694F83A
:100CF0002050012D01D0022D7DD151B92068C0684E
:100D000000F0030080B9606A40F4001060620120C6
:100D100070BD2068006900F0030028B9606A40F4E3
:100D2000001060620120F3E7206800F5D87000EB46
:100D30000110006800F004009060906840B92068DD
:100D400000F5D87000EB01100068400D106007E05E
:100D5000206800F5D87000EB01100068C0085060F2
:100D6000206800F5D87000EB0110006800F0020068
:100D7000D060206800F5D87000EB0110406800F0EA
:100D80000F00082802D30820106108E0206800F551
:100D9000D87000EB0110406800F00F00106120686F
:100DA00000F5D87000EB0110406800F47F40000AA5
:100DB0009061206800F5D87000EB01104068000CCD
:100DC0005061206800F5D87000EB01108068187041
:100DD000206800F5D87000EB0110806800F47F40B7
:100DE000000A5870206800F5D87000EB0110806888
:100DF00000F47F0000E03CE0000C9870206800F5F3
:100E0000D87000EB01108068000ED870206800F5E3
:100E1000D87000EB0110C0681871206800F5D87018
:100E200000EB0110C06800F47F40000A5871206890
:100E300000F5D87000EB0110C06800F47F00000CD2
:100E40009871206800F5D87000EB0110C068000EA2
:100E5000D87131B92068C06840F020002668F06081
:100E600005E02068006940F020002668306100201D
:100E70004EE7606A40F480206062012048E7014646
:100E8000002091F82020012A01D0022A11D10B68FC
:100E90009B6803F0806303B1401C0B689B6803F000
:100EA000006303B1401C0B689B6803F0805303B1DF
:100EB000401C70472DE9F05F044600252068466914
:100EC0002068D0F80490206887682068D0F80CA0CB
:100ED0002068D0F810B02068D0F8188006F0010023
:100EE000002855D007F00100C0B1012021688860BA
:100EF00007F0020018B1204600F0E3FA0EE007F018
:100F0000040010B145F4006508E007F0080010B1D6
:100F100045F4805502E0204600F0D2FA07F48070D4
:100F2000C8B14FF480702168886007F4007018B170
:100F3000204600F0C8FA0EE007F4806010B145F4D6
:100F4000005508E007F4006010B145F4804502E068
:100F5000204600F0B7FA07F48030C8B14FF4803073
:100F60002168886007F4003018B1204600F0ADFA1F
:100F70000EE007F4802010B145F4004508E007F4C6
:100F8000002010B145F4803502E0204600F09CFAC4
:100F900006F0080038B10AF0100020B145F40075E1
:100FA00010202168C86006F0040040B10AF0080073
:100FB00028B108202168C860204600F03DFA06F0FC
:100FC000020038B12068C06800F0030010B120466C
:100FD00000F033FA06F0400038B10BF0100020B1F9
:100FE00045F4806510202168086106F0200040B1BA
:100FF0000BF0080028B1082021680861204600F0A5
:101000002DFA06F0100038B12068006900F00300E6
:1010100010B1204600F023FA06F4003040B109F088
:10102000100028B1102021684860204600F018FA0E
:1010300006F4803040B109F0080028B1082021688A
:101040004860204600F042FA06F4004088B309F0F8
:10105000040078B306F4807020B108F0010008B1F4
:1010600045F0010506F4007020B108F0020008B157
:1010700045F0020506F4806020B108F0040008B1D4
:1010800045F0040506F40060A0B108F0700088B1D6
:1010900008F07000402817D006DC10280BD020285C
:1010A0000CD0302819D10CE0502810D0602814D171
:1010B00010E01DE019E045F008050FE045F01005CF
:1010C0000CE045F0200509E045F0400506E045F05C
:1010D000800503E045F4807500E000BF00BF206894
:1010E000806920F0700021688861042021684860D0
:1010F0002DB1606A284360622046FFF7F5FDBDE828
:10110000F09F70B504460CB9012070BD94F8200022
:1011100010B9204600F0B0F82068006840F00100E7
:101120002168086000F0DCFC05460DE000F0D8FC0A
:10113000401B0A2808D9606A40F40030606205202C
:1011400084F820000120E0E72068406800F00100FA
:101150000028EBD02068006820F0020021680860B9
:1011600000F0BEFC05460DE000F0BAFC401B0A286A
:1011700008D9606A40F400306062052084F82000DD
:101180000120C2E72068406800F002000028EBD18F
:10119000207E012806D12068006840F08000216888
:1011A000086005E02068006820F080002168086081
:1011B000607E012806D12068006840F04000216868
:1011C000086005E02068006820F0400021680860A1
:1011D000A07E012806D12068006840F02000216828
:1011E000086005E02068006820F0200021680860A1
:1011F000E07E012806D12068006820F010002168F8
:10120000086005E02068006840F010002168086070
:10121000207F012806D12068006840F0080021687E
:10122000086005E02068006820F008002168086078
:10123000607F012806D12068006840F00400216822
:10124000086005E02068006820F00400216808605C
:10125000D4E90201084321690843616908436168D0
:10126000491E08432168C86100206062012084F89B
:101270002000002049E7000010B586B00446142184
:1012800001A8FFF71FF86649206888423ED16548EB
:101290000068401C634908600846006801280DD1B9
:1012A00000BF6148006840F000705F490860084670
:1012B000006800F00070009000BF00BF00BF5A48F7
:1012C0001038006840F0020057491039086008469D
:1012D000006800F00200009000BF00BF4FF44070B3
:1012E0000190022002900020039003200490092026
:1012F000059001A94D4800F0EDFA00221146142096
:1013000000F0C6FC142000F0B3FC87E048492068D8
:1013100088424BD100BF4448006840F08060424999
:1013200008600846006800F08060009000BF00BFC1
:101330003C480068401C3B4908600846006801289A
:101340000DD100BF3848006840F000703649086091
:101350000846006800F00070009000BF00BF00BFAA
:1013600031481038006840F002002F4910390860F9
:101370000846006800F00200009000BF00BF602037
:101380000190022002900020039003200490092085
:10139000059001A9254800F09DFA00221146402041
:1013A00000F076FC402000F063FC37E02149206823
:1013B000884233D100BF1C48006840F400501A49ED
:1013C00008600846006800F40050009000BF00BFAD
:1013D00000BF15481038006840F00200124910396B
:1013E00008600846006800F00200009000BF00BFDF
:1013F0001820019002200290002003900320049006
:101400000B20059001A9094800F064FA002211465A
:10141000692000F03DFC692000F02AFC06B010BDF8
:1014200000640040000000204038024000040240F8
:101430000068004000340040704710B58AB0044690
:1014400001AB03AA00212046FFF74FFC20B901AAF7
:1014500003A9204602F0E0FD0AB010BD70477047B6
:10146000704770B5044694F82000012822D102206C
:1014700084F820002068006820F0010021680860DE
:1014800000F02EFB05460DE000F02AFB401B0A2869
:1014900008D9606A40F400306062052084F82000BA
:1014A000012070BD2068406800F001000028EBD1E9
:1014B0006062F6E7606A40F4002060620120F0E7B5
:1014C000704770477047704770477047704770B5F6
:1014D0000446A56D00F004FB064694F8350002288A
:1014E00008D08020606500BF002084F8340000BF71
:1014F000012070BD2068006820F016002168086097
:101500002068406920F0800021684861206C08B99B
:10151000A06C28B12068006820F0080021680860ED
:101520002068006820F001002168086010E000F0E9
:10153000D7FA801B05280BD920206065032084F88A
:10154000350000BF002084F8340000BF0320D0E73E
:101550002068006800F001000028E8D194F85C10D1
:101560003F208840A860012084F8350000BF00209B
:1015700084F8340000BF00BFBBE7014691F8350096
:10158000022803D08020486501207047052081F89B
:1015900035000868006820F001000A68106000202B
:1015A000F3E70000F8B50446002000908C4800687E
:1015B0004FF41651B0FBF1F7A56D2E6894F85C104E
:1015C00008208840304098B12068006800F004008E
:1015D00070B12068006820F004002168086094F869
:1015E0005C1008208840A860606D40F001006065D4
:1015F00094F85C1001208840304068B12068406950
:1016000000F0800040B194F85C1001208840A86090
:10161000606D40F00200606594F85C100420884022
:10162000304068B12068006800F0020040B194F8D2
:101630005C1004208840A860606D40F00400606584
:1016400094F85C1010208840304078B3206800681F
:1016500000F0080050B394F85C1010208840A86097
:101660002068006800F4802080B12068006800F4E1
:10167000002028B9206CC8B12046216C884715E0AD
:10168000A06C98B12046A16C88470FE020680068E4
:1016900000F4807028B92068006820F008002168F4
:1016A0000860206C10B12046216C884794F85C10CB
:1016B000202088403040002865D02068006800F075
:1016C000100000285FD094F85C1020208840A860AB
:1016D00094F83500052828D12068006820F016000D
:1016E000216808602068406920F080002168486116
:1016F000206C08B9A06C28B12068006820F00800B0
:101700002168086094F85C103F208840A8600120A0
:1017100084F8350000BF002084F8340000BF206D3D
:1017200010B12046216D8847F8BD2068006800F49C
:10173000802080B12068006800F4002028B9606C27
:1017400010B12046616C88471DE0E06BD8B120469F
:10175000E16B884717E02068006800F4807068B982
:101760002068006820F0100021680860012084F8DB
:10177000350000BF002084F8340000BFE06B10B1DA
:101780002046E16B8847606D38B3606D00F0010062
:10179000F0B1052084F835002068006820F00100D1
:1017A0002168086000BF0098401C0090B84200D932
:1017B00005E02068006800F001000028F3D100BFB8
:1017C000012084F8350000BF002084F8340000BFF9
:1017D000E06C10B12046E16C884700BFA4E7000030
:1017E000100000202DE9F0410446002500F078F9B2
:1017F000074614B90120BDE8F081606A00B100BF5E
:10180000022084F8350000BF002084F8340000BFB7
:101810002068006820F00100216808600AE000F0FC
:101820005FF9C01B052805D920206065032084F8D6
:101830003500E0E72068006800F001000028EED1E4
:101840002068056822480540D4E901010843E168A1
:1018500008432169084361690843A1690843E169B4
:101860000843216A08430543606A042803D1D4E988
:101870000B0108430543206805602068456925F091
:101880000705606A0543606A04280ED1A06A054313
:10189000E06A50B12046FFF773F830B14020606530
:1018A000002084F835000120A5E720684561204626
:1018B000FFF74CF8064694F85C103F208840B06073
:1018C00000206065012084F83500002093E70000C7
:1018D0003F8010E0F8B502460B46002100250024A9
:1018E000002000BFDEE0012606FA01F51E6806EAC8
:1018F0000504AC4272D11E7906F00306012E04D015
:101900001E7906F00306022E13D190684F000326BD
:10191000BE40B0434F00DE68BE4030439060506828
:1019200001268E40B0431E79C6F300168E40304328
:1019300050601E7906F00306032E09D0D0684F00D0
:101940000326BE40B0434F009E68BE403043D06087
:101950001E7906F00306022E13D1CF0802F12006ED
:1019600056F827004E07F70E0F26BE40B0434F072C
:10197000FF0E1E69BE403043CF0802F1200646F834
:10198000270010684F000326BE40B0431E7906F0C2
:1019900003064F00BE40304310605E6806F44036D8
:1019A000002E7ED000BF414E366846F480463F4F41
:1019B0003E603E46366806F48046009600BF00BF93
:1019C0003B4E8F0856F827008E07370F0F26BE4074
:1019D000B043384EB24202D100262EE061E0364ECE
:1019E000B24201D1012628E0344EB24201D1022692
:1019F00023E0334EB24201D103261EE0314EB24203
:101A000001D1042619E0304EB24201D1052614E07E
:101A10002E4EB24201D106260FE02D4EB24201D128
:101A200007260AE02B4EB24201D1082605E02A4ED5
:101A3000B24201D1092600E00A268F073F0FBE40BF
:101A400030431B4E8F0846F82700244E3068A043D1
:101A50005E6806F4801606B12043204E3060361DC5
:101A60003068A0435E6806F4001606B120431B4EA2
:101A7000361D3060194E361F3068A0435E6806F48C
:101A8000003606B12043154E361F3060361F3068D1
:101A9000A0435E6806F4803606B120430F4E083E30
:101AA0003060491C1029FFF41EAFF8BD44380240D5
:101AB00008380140000002400004024000080240D3
:101AC000000C0240001002400014024000180240C6
:101AD000001C02400020024000240240083C01405B
:101AE00001480068704700000400002003480068B7
:101AF0000349097808440149086070470400002040
:101B00000C00002010B5032000F000F9002000F0C8
:101B100005F800F08DF8002010BD000070B50446F7
:101B20000E4800784FF47A71B1FBF0F00C49096867
:101B3000B1FBF0F5284601F0CFF808B1012070BDE7
:101B4000102C07D200222146501E00F0A1F80548B3
:101B5000046001E00120F2E70020F0E70C00002023
:101B600010000020080000204178154A1160144937
:101B70000831096821F00101114A08321160121F71
:101B800041681160017B0907C27A41EA0261827AE9
:101B900041EAC241427B41EA8241827B41EA4241C1
:101BA000C27B41EA0241427A41EA0221027A41EAD9
:101BB000420102781143024A083211607047000066
:101BC00098ED00E000BF00BF00BFBFF35F8F00BF14
:101BD00000BF00BF0548006820F48030034908605A
:101BE00000200249703108607047000024ED00E0D9
:101BF00040F001010D4A11600C497039096841F447
:101C000080310A4A703A116000BF00BF00BFBFF3C5
:101C10004F8F00BF00BF00BF00BF00BF00BFBFF3BA
:101C20006F8F00BF00BF00BF7047000094ED00E061
:101C300008B500BF0D48006840F080500B490860AF
:101C40000846006800F08050009000BF00BF00BF51
:101C5000081D006840F48040091D086008460068BF
:101C600000F48040009000BF00BF08BD4038024033
:101C700001460846002809DB00F01F0301229A40B4
:101C800043099B0003F1E023C3F8002100BF704724
:101C90002DE9F05F80460D461646002703F0D8FA7E
:101CA000074639462A46334601F00700C0F1070AC5
:101CB000BAF1040F02D94FF0040A01E0C0F1070A9B
:101CC000D14600F1040ABAF1070F02D24FF0000A20
:101CD00001E0A0F1030AD4464FF0010A0AFA09FA1A
:101CE000AAF1010A0AEA020A0AFA0CFA4FF0010BF9
:101CF0000BFA0CFBABF1010B0BEA030B4AEA0B04EA
:101D00002146404603F0ACFABDE8F09F00BF00F06A
:101D10000702064B19684FF6FF031940044B0B43AB
:101D200043EA0221014B196000BF70470CED00E04F
:101D30000000FA0538B5002400BF2048006840F0D4
:101D400080501E4908600846006800F080500090EE
:101D500000BF00BF1A48006840F48030184908608E
:101D6000FFF7BEFE044607E0FFF7BAFE001BB0F522
:101D70007A7F01D9032038BD1148406800F48030D3
:101D8000B0F5803FF0D10E48006840F400300C49B7
:101D90000860FFF7A5FE044607E0FFF7A1FE001B61
:101DA000B0F57A7F01D90320E5E70548406800F4E3
:101DB0000030B0F5003FF0D10020DCE740380240B1
:101DC000007000400348006840F4807001490860DA
:101DD00070470000007000402DE9F84304460026DB
:101DE00000250027A846A946207800F0010088B108
:101DF00000BFFE48006820F40000FC490860084667
:101E00000068616B0843F949086000BF606B08B95E
:101E10004FF00108206800F40020B0F5002F13D126
:101E2000F2488430006820F44010E16B0843EF4929
:101E300084310860E06BB0F5801F01D14FF00108DC
:101E4000E06B08B94FF00109206800F48010B0F58C
:101E5000801F13D1E5488430006820F44000216CD5
:101E60000843E24984310860206CB0F5800F01D14D
:101E70004FF00108206C08B94FF00109206800F00C
:101E80008070B0F1807F01D14FF00108207800F020
:101E90002000202870D100BFD4483830006840F0BE
:101EA0008050D249383108600846006800F0805000
:101EB000009000BF00BFCE48006840F48070CC495D
:101EC0000860FFF70DFE064607E0FFF709FE801BDE
:101ED000642802D90320BDE8F883C548006800F4EF
:101EE00080700028F1D0C1486830006800F4407567
:101EF00085B3208E00F44070A8422BD0BB486830D8
:101F0000006820F44075B9486830006840F48030BB
:101F1000B649683108600846006820F480300860DF
:101F200008460560006800F0010098B1FFF7D8FD91
:101F3000064608E0FFF7D4FD801B41F28831884255
:101F400001D90320C7E7A94868300068C0F3400002
:101F50000028EFD000BF208E00F44070B0F5407F25
:101F60000BD1A248006820F4F810A24A216B11405E
:101F700008439E49086006E010E09C48006820F491
:101F8000F8109A490860994868300068218EC1F3BA
:101F90000B01084395496831086000BF207800F0C4
:101FA0001000102810D100BF90488430006820F045
:101FB00080708E498431086008460068A16B084330
:101FC0008A498431086000BF208800F48040B0F561
:101FD000804F09D185488830006820F44030616E18
:101FE0000843824988310860208800F40040B0F539
:101FF000004F09D17D488830006820F44020A16E50
:1020000008437A4988310860206800F48030B0F5D0
:10201000803F09D175488830006820F44010E16E97
:102020000843724988310860206800F40030B0F538
:10203000003F09D16D488830006820F44000216FCE
:1020400008436A4988310860207800F04000402841
:1020500009D166488830006820F00300616C0843AD
:10206000624988310860207800F08000802809D11A
:102070005E488830006820F00C00A16C08435B4982
:1020800088310860208800F48070B0F5807F09D125
:1020900056488830006820F03000E16C084353490E
:1020A00088310860208800F40070B0F5007F09D105
:1020B0004E488830006820F0C000216D08434B492D
:1020C00088310860208800F48060B0F5806F09D105
:1020D00046488830006820F44070616D08434349E9
:1020E00088310860208800F40060B0F5006F09D1E5
:1020F0003E488830006820F44060A16D08433B49A9
:1021000088310860208800F48050B0F5805F09D1E4
:1021100036488830006820F44050E16D0843334968
:1021200088310860208800F40050B0F5005F09D1C4
:102130002E488830006820F44040216E08432B4927
:1021400088310860206800F48000B0F5800F09D164
:1021500026488830006820F08060A16F084323493A
:1021600088310860206800F40010B0F5001F0FD11E
:102170001E488830006820F00060E16F08431B496A
:1021800088310860E06FB0F1006F01D14FF00109B4
:10219000207800F00800082801D14FF001092068DC
:1021A00000F48020B0F5802F09D1104888300068F5
:1021B00020F04070616F08430C4988310860206846
:1021C00000F40000B0F5000F0AD10848883000681C
:1021D00020F08050D4F8801008430449883108600A
:1021E000206800F08060B0F1806F05E008380240A0
:1021F00000700040FFFCFF0F08D1CD48006820F0C0
:102200000050D4F884100843C9490860206800F0E1
:102210000060B0F1006F0AD1C548001F006820F0CF
:102220000070D4F888100843C149091F086020686D
:1022300000F08050B0F1805F0AD1BD48001F0068F7
:1022400020F08060D4F88C100843B949091F086059
:10225000B8F1010F05D0206800F00070B0F1007FE8
:102260007ED1B3489038006820F08060B049903942
:102270000860FFF735FC064606E0FFF731FC801BDF
:10228000642801D9032026E6A94890380068C0F3E5
:10229000C0600028F1D1207800F00100B8B1606B77
:1022A000A8B9A3480C380068C0F30145A0480C3811
:1022B0000068C0F303676068800140EA054040EAB7
:1022C0000761207A41EA007099490C39086020685A
:1022D00000F40020B0F5002F03D1E06BB0F5801FB3
:1022E00009D0206800F48010B0F5801F24D1206C44
:1022F000B0F5800F20D18E480C380068C0F301453E
:102300008B480C380068C0F302776068800140EAAF
:102310000541207B41EA006040EA077084490C399E
:1023200008608348001F006820F01F00616A491E92
:1023300008437F49091F0860206800F08070B0F1F1
:10234000807F17D17A480C380068C0F3036578485D
:102350000C380068C0F3027760688101208A00E0D1
:1023600036E041EA004040EA056040EA0770704903
:102370000C390860206800F00070B0F1007F0DD1CA
:1023800060688101208A41EA0041207B41EA0061C6
:10239000207A41EA007066490C3908606448903838
:1023A000006840F08060624990390860FFF798FB50
:1023B000064606E0FFF794FB801B642801D9032042
:1023C00089E55B4890380068C0F3C0600028F1D010
:1023D000B9F1010F7ED156489038006820F0805046
:1023E000534990390860FFF77BFB064606E0FFF78C
:1023F00077FB801B642801D903206CE54C4890389A
:102400000068C0F340700028F1D1206800F400207B
:10241000B0F5002F01D1E06B38B1206800F48010D6
:10242000B0F5801F22D1206C00BB414808380068FD
:10243000C0F301453E4808380068C0F30277606980
:10244000800140EA0541207E41EA006040EA0770D1
:10245000374908390860081D006820F4F851A06A5F
:10246000401E41EA00203249091F0860206800F43C
:102470000010B0F5001F19D1E06FB0F1006F15D159
:102480002B4808380068C0F30365294808380068FD
:10249000C0F3027760698101208C41EA004040EA84
:1024A000056040EA0770224908390860207800F08A
:1024B0000800082820D11E4808380068C0F30365CA
:1024C0001B4808380068C0F301476069800140EA92
:1024D000074000E02AE040EA0561207F41EA007001
:1024E000134908390860081D006820F44030E16A8B
:1024F00008430F49091F08600D489038006840F0F4
:1025000080500B4990390860FFF7EAFA064606E06A
:10251000FFF7E6FA801B642801D90320DBE40448B6
:1025200090380068C0F340700028F1D00020D2E459
:102530009038024070B504460D4600260CB90120C3
:1025400070BD5C48006800F00F00A8420ED25948E8
:10255000006820F00F0028435649086008460068CC
:1025600000F00F00A84201D00120E9E7207800F038
:10257000020002281DD1207800F00400042805D1B3
:102580004D48006840F4E0504B490860207800F066
:102590000800082805D14848006840F460404649D2
:1025A00008604548006820F0F000A16808434249EF
:1025B0000860207800F0010090B36068012807D11E
:1025C0003D4808380068C0F34040A0B90120B7E793
:1025D0006068022807D1384808380068C0F34060B6
:1025E00048B90120ACE7344808380068C0F340001F
:1025F00008B90120A4E73048006820F003006168B2
:1026000008432D490860FFF76BFA064609E0FFF71B
:1026100067FA801B41F28831884202D903208FE794
:1026200007E02548006800F00C006168B0EB810FFE
:10263000EDD12048006800F00F00A8420ED91D48D7
:10264000006820F00F0028431A4908600846006817
:1026500000F00F00A84201D0012071E7207800F0BF
:102660000400042807D11448006820F4E050E16811
:10267000084311490860207800F00800082808D1B4
:102680000D48006820F46040216940EAC1000A4911
:10269000086000F03FF808490968C1F30311074AD0
:1026A000515CC8400649086006480068FFF736FAE2
:1026B000002045E7003C0240083802407C880008C2
:1026C000100000200800002001480068704700004A
:1026D0001000002000B5FFF7F7FF04490968C1F3B7
:1026E0008221034A515CC84000BD00000838024006
:1026F0008C88000800B5FFF7E7FF04490968C1F3BB
:102700004231034A515CC84000BD00000838024015
:102710008C8800082DE9F047002400250026A146FA
:102720002548006800F00C0020B1042805D00828D6
:102730003AD105E0DFF8849039E0DFF8849036E0A4
:102740001D48001F006800F03F041B48001F006880
:1027500000F4800078B11A481749091F0968C1F3CD
:102760008811A0FB01700146224600233846FDF780
:102770005FFD05460EE011480F49091F0968C1F3C6
:102780008811A0FB01700146224600233846FDF760
:102790004FFD05460848001F0068C0F30140401C7B
:1027A0004600B5FBF6F902E0DFF8109000BF00BF6D
:1027B0004846BDE8F0870000083802400024F400D5
:1027C00040787D01F8B5044600270CB90120F8BD1A
:1027D000207800F00100002871D0F948006800F06E
:1027E0000C0004280DD0F648006800F00C00082802
:1027F00013D1F348001F006800F48000B0F5800F8B
:102800000BD1EF4808380068C0F34040002869D079
:102810006068002866D10120D9E700BF6068B0F584
:10282000803F08D1E6480838006840F48030E44929
:10283000083908602EE0606868B9E1480838006827
:1028400020F48030DE49083908600846006820F42A
:10285000802008601EE06068B0F5A02F0DD1D84838
:102860000838006840F48020D549083908600846D7
:10287000006840F4803008600CE0D14808380068F7
:1028800020F48030CE49083908600846006820F4FA
:102890008020086000BF606890B1FFF721F905460D
:1028A00006E0FFF71DF9401B642801D903208EE7DD
:1028B000C34808380068C0F340400028F1D011E058
:1028C000FFF70EF9054606E0FFF70AF9401B6428FA
:1028D00001D903207BE7BA4808380068C0F34040BC
:1028E0000028F1D1207800F00200022869D1B44814
:1028F000006800F00C0058B1B148006800F00C000E
:1029000008281CD1AE48001F006800F48000B0B950
:10291000AB4808380068C0F3400020B1E0680128E7
:1029200001D0012053E7A6480838006820F0F800DD
:10293000216940EAC100A2490839086041E0E06825
:1029400028B39F480838006840F001009C490839C6
:102950000860FFF7C5F8054606E0FFF7C1F8401B21
:10296000022801D9032032E7954808380068C0F3EF
:1029700040000028F1D092480838006820F0F800A4
:10298000216940EAC1008E490839086019E08C4885
:102990000838006820F00100894908390860FFF70D
:1029A0009FF8054606E0FFF79BF8401B022801D977
:1029B00003200CE7824808380068C0F34000002874
:1029C000F1D1207800F00800082836D16069D0B134
:1029D0007B486C30006840F0010079496C31086038
:1029E000FFF77EF8054606E0FFF77AF8401B02285D
:1029F00001D90320EBE672486C300068C0F3400058
:102A00000028F1D019E06E486C30006820F0010019
:102A10006B496C310860FFF763F8054606E0FFF785
:102A20005FF8401B022801D90320D0E664486C30CF
:102A30000068C0F340000028F1D1207800F00400C5
:102A4000042874D15E483830006800F0805080B9A6
:102A500000BF5B483830006840F08050584938313A
:102A600008600846006800F08050009000BF00BF7A
:102A700001275448006800F48070B0B951480068DC
:102A800040F480704F490860FFF72AF8054606E0D9
:102A9000FFF726F8401B642801D9032097E6494830
:102AA000006800F480700028F2D000BFA068012800
:102AB00008D143486830006840F00100404968315F
:102AC00008602DE0A06868B93D486830006820F0D3
:102AD00001003B49683108600846006820F00400A6
:102AE00008601DE0A06805280DD1354868300068F1
:102AF00040F004003249683108600846006840F040
:102B0000010008600CE02E486830006820F00100E9
:102B10002B49683108600846006820F0040008600E
:102B200000BFA068A8B1FEF7DBFF054609E02EE074
:102B3000FEF7D6FF401B41F28831884201D90320BD
:102B400045E61F4868300068C0F340000028EFD019
:102B500013E0FEF7C5FF054608E0FEF7C1FF401B86
:102B600041F28831884201D9032030E614486830A8
:102B70000068C0F340000028EFD1012F07D11048B2
:102B80003830006820F080500D4938310860A06965
:102B9000002854D00A48006800F00C00082867D0CC
:102BA000A06902284CD106480838006820F08070DF
:102BB000034908390860FEF793FF05460BE0000063
:102BC0000838024000700040FEF78AFF401B0228D0
:102BD00001D90320FBE53F480068C0F340600028AE
:102BE000F2D1D4E907010843616A40EA8111012268
:102BF000A06AC2EB500041EA00412C20005D41EA8E
:102C000000613020005D41EA00703249091D086012
:102C1000081F006840F08070091F0860FEF760FF21
:102C2000054606E0FEF75CFF401B022801D90320A1
:102C3000CDE528480068C0F340600028F2D047E0A6
:102C40002448006820F0807022490860FEF748FFA1
:102C5000054606E0FEF744FF401B022801D9032089
:102C6000B5E51C480068C0F340600028F2D12FE0B1
:102C70001848001D0668A069012827D006F48001C5
:102C8000E069814222D106F03F01206A81421DD1D4
:102C900047F6C0703040616AB0EB811F16D106F470
:102CA00040310122A06AC2EB5000B1EB004F0DD1C0
:102CB00006F070612C20005DB1EB006F06D106F0CC
:102CC000E0413020005DB1EB007F01D001207EE5C6
:102CD00000207CE50038024070B504462546681E99
:102CE000B0F1807F01D301200FE0681E4FF0E0219A
:102CF00048610F214FF0FF3002F0B2FA00204FF090
:102D0000E021886107200861002070BD704770478E
:102D10007047000030B502460B4600BF92F83C00F9
:102D2000012801D1022030BD012082F83C0000BF03
:102D3000022082F83D001068416810688468214DC7
:102D40001068A84203D0204D1068A84203D121F496
:102D500070015868014321F0700118680143106840
:102D60004160184D1068A8421BD01068B0F1804F28
:102D700017D0164D1068A84213D0154D1068A84200
:102D80000FD0144D1068A8420BD00F4D1068A84208
:102D900007D0114D1068A84203D0104D1068A8420A
:102DA00005D124F0800498680443106884600120F1
:102DB00082F83D0000BF002082F83C0000BF00BF49
:102DC000B1E70000000001400004014000040040A1
:102DD00000080040000C0040004001400018004086
:102DE00010B504460CB9012010BD94F83D0028B977
:102DF000002084F83C00204600F02AF8022084F8E5
:102E00003D00211D206801F0E3FD012084F8480009
:102E100000BF84F83E0001213F20015540200155AC
:102E200041200155422001554320015500BF00BFFC
:102E3000012084F8440045200155462001554720D3
:102E4000015500BF012084F83D000020CCE70000C0
:102E500038B504468349206888421ED100BF8248A5
:102E6000006840F00100804908600846006800F0F2
:102E70000100009000BF00BF002211461820FEF79D
:102E800007FF1820FEF7F4FE002211461920FEF776
:102E9000FFFE1920FEF7ECFEE2E02068B0F1804F63
:102EA00018D100BF7048001F006840F001006E4953
:102EB000091F08600846006800F00100009000BF8C
:102EC00000BF002211461C20FEF7E2FE1C20FEF788
:102ED000CFFEC5E065492068884218D100BF62482E
:102EE000001F006840F002005F49091F08600846A3
:102EF000006800F00200009000BF00BF00221146F1
:102F00001D20FEF7C5FE1D20FEF7B2FEA8E05849C1
:102F10002068884218D100BF5348001F006840F065
:102F200004005149091F08600846006800F00400C9
:102F3000009000BF00BF002211461E20FEF7A8FE31
:102F40001E20FEF795FE8BE04A492068884218D182
:102F500000BF4548001F006840F008004249091FB3
:102F600008600846006800F00800009000BF00BF3D
:102F7000002211463220FEF78BFE3220FEF778FE4B
:102F80006EE03D492068884218D100BF3648001FD6
:102F9000006840F010003449091F086008460068C6
:102FA00000F01000009000BF00BF00221146362044
:102FB000FEF76EFE3620FEF75BFE51E02F492068DB
:102FC000884218D100BF2848001F006840F0200048
:102FD0002549091F08600846006800F0200000909D
:102FE00000BF00BF002211463720FEF751FE3720F8
:102FF000FEF73EFE34E022492068884216D100BF29
:103000001948006840F48030174908600846006895
:1030100000F48030009000BF00BF0022114618204D
:10302000FEF736FE1820FEF723FE19E0154920684A
:10303000884215D100BF0C48006840F400300A49AE
:1030400008600846006800F40030009000BF00BF30
:10305000002211461920FEF71BFE1920FEF708FE7C
:1030600038BD000000000140443802400004004028
:1030700000080040000C0040001000400014004018
:103080000040014000440140014691F83D00012804
:1030900001D001207047022081F83D000868C06817
:1030A00040F001000B68D8601C4B086898421BD0A8
:1030B0000868B0F1804F17D0194B0868984213D0B8
:1030C000184B086898420FD0174B086898420BD0ED
:1030D000164B0868984207D0154B0868984203D0F1
:1030E000144B0868984210D108688068124B00EAB7
:1030F0000302062A0FD0B2F5803F0CD008680068A2
:1031000040F001000B68186005E00868006840F0B6
:1031100001000B6818600020BCE7000000000140BF
:103120000004004000080040000C00400004014082
:103130000040014000180040070001002DE9F04167
:1031400004460D46002700BF94F83C00012802D138
:103150000220BDE8F081012084F83C0000BF02207D
:1031600084F83D00206886683748064026F47F468C
:10317000206886602868502833D00CDC202850D086
:1031800004DC00284BD0102851D149E0302849D028
:1031900040284CD139E060282DD0702807D0B0F5F8
:1031A000805F03D0B0F5005F41D10DE041E0D5E98B
:1031B00002136A68206801F07FFC2068866846F088
:1031C00077062068866034E0D5E902136A682068D3
:1031D00001F072FC2068806840F4804021688860BB
:1031E00027E0EA686968206801F07AFC50212068CD
:1031F00001F06DFC1DE0EA686968206801F083FC5D
:103200006021206801F063FC13E0EA6869682068C7
:1032100001F066FC4021206801F059FC09E000BF84
:1032200000BF00BF2968206801F051FC01E00127C0
:1032300000BF00BF012084F83D0000BF002084F8DB
:103240003C0000BF384684E788FFFEFF704770B53A
:1032500004462068C6682068056905F00200022857
:1032600019D106F00200022815D1401F216808611B
:10327000012020772068806900F0030018B1204603
:10328000FFF7E4FF05E0204600F0ADF8204600F02F
:10329000ABF80020207705F00400042819D106F0CF
:1032A0000400042815D1C04321680861022020775A
:1032B0002068806900F4407018B12046FFF7C6FF0F
:1032C00005E0204600F08FF8204600F08DF8002041
:1032D000207705F00800082819D106F00800082812
:1032E00015D1C04321680861042020772068C06997
:1032F00000F0030018B12046FFF7A8FF05E02046C4
:1033000000F071F8204600F06FF80020207705F0FB
:103310001000102819D106F01000102815D1C04354
:1033200021680861082020772068C06900F4407097
:1033300018B12046FFF78AFF05E0204600F053F859
:10334000204600F051F80020207705F0010048B138
:1033500006F0010030B16FF00100216808612046DD
:1033600000F044F805F08000802804D005F40050F7
:10337000B0F5005F0AD106F08000802806D16FF416
:103380000250216808612046FFF7C1FC05F48070F7
:10339000B0F5807F0AD106F08000802806D16FF456
:1033A0008070216808612046FFF7B0FC05F04000FE
:1033B000402809D106F04000402805D1C0432168CB
:1033C0000861204600F02CF805F02000202809D1E3
:1033D00006F02000202805D1C0432168086120465E
:1033E000FFF796FC70BD70477047000010B50446AB
:1033F00009492068884201D100F0B4FD2068B0F18D
:10340000804F01D104F004F904492068884201D1B9
:1034100004F08EF910BD00000000014000040040DF
:1034200070477047704770472DE9F04704462068A1
:10343000C569206806682068876840F60F0005EABD
:103440000009B9F1000F0CD105F0200048B106F0D9
:10345000200030B1A06E10B12046A16E8847BDE8B3
:10346000F087B9F1000F7DD007F0010018B9C0480E
:1034700030400028F7D005F0010058B106F4807004
:1034800040B1012021680862D4F8840040F00100B6
:10349000C4F8840005F0020058B107F0010040B103
:1034A000022021680862D4F8840040F00400C4F8C7
:1034B000840005F0040058B107F0010040B1042079
:1034C00021680862D4F8840040F00200C4F8840047
:1034D00005F0080070B106F0200010B907F00100F7
:1034E00040B1082021680862D4F8840040F0080048
:1034F000C4F8840005F4006060B106F0806048B153
:103500004FF4006021680862D4F8840040F0200085
:10351000C4F88400D4F8840000284BD005F02000C3
:1035200038B106F0200020B1A06E10B12046A16E87
:103530008847D4F884A02068806800F040004028C4
:1035400002D00AF0280070B3204601F0F4FB206896
:10355000806800F04000402821D100BF00BF2168F2
:10356000083100E027E051E8001F21F04000216809
:10357000083141E80002002AF1D100BF606F50B16C
:103580007C48616F0865606FFDF7F7FF90B1606F71
:10359000016D88470EE02046FFF745FF0AE0204610
:1035A000FFF741FF06E0FFE72046FFF73CFF002062
:1035B000C4F8840053E7206E01286FD105F0100095
:1035C00000286BD006F010000028FAD010202168E7
:1035D00008622068806800F0400040285FD1606F7A
:1035E000006840681FFA80F8B8F1000F55D0B4F8B1
:1035F0005800404551DDA4F85A80606FC069B0F5AD
:10360000807F3FD000BF00BF216851E8001F21F438
:103610008070226842E800010029F5D100BF00BF98
:1036200000BF2168083151E8001F21F00100216826
:10363000083141E80002002AF3D100BF00BF00BFFB
:103640002168083151E8001F21F04000216808314D
:1036500041E80002002AF3D100BF2020C4F8800016
:103660000020206600BF00BF216851E8001F21F044
:103670001000226842E800010029F5D100BF606F08
:10368000FDF725FF02206066B4F85800B4F85A2010
:10369000801A81B22046FFF7C4FEE0E641E034F82C
:1036A000580F6188401A1FFA80F86088583CB8B3F8
:1036B000B8F1000F34D000BF00BF216851E8001FEF
:1036C00021F49070226842E800010029F5D100BF82
:1036D00000BF00BF2168083151E8001F21F0010040
:1036E0002168083141E80002002AF3D100BF202000
:1036F000C4F8800000202066A06600BF00BF2168DB
:1037000051E8001F21F01000226842E80001002962
:10371000F5D100BF0220606641462046FFF781FEDA
:103720009DE605F4801050B107F4800038B14FF4E5
:103730008010216808622046FFF774FE8FE605F0CE
:10374000800040B106F0800028B1E06E10B1204644
:10375000E16E884783E605F0400030B106F0400096
:1037600018B1204601F01AFB79E600BF77E60000A9
:10377000200100041F4D000810B504460CB90120BB
:1037800010BDA06900B100E000BFE06F28B90020C3
:1037900084F87800204600F029F82420E0672068AB
:1037A000006820F0010021680860606A10B12046BE
:1037B00001F0C6F9204601F009FB012800D1DFE73E
:1037C0002068406820F49040216848602068806844
:1037D00020F02A00216888602068006840F001001D
:1037E00021680860204601F027FAC9E710B5AAB0A1
:1037F0000446142125A8FCF765FD902101A8FCF7DB
:1038000061FD9349206888425DD1401501900020F8
:10381000159001A8FEF7E0FA08B1FDF707F900BF1F
:103820008C48006840F400208A4908600846006817
:1038300000F40020009000BF00BF00BF8548103892
:10384000006840F08000834910390860084600682D
:1038500000F08000009000BF00BF4FF4C0402590F2
:1038600002202690002027900320289008202990ED
:1038700025A97948FEF72EF87848794908604FF075
:10388000006048604021764881600021C1604FF4AB
:1038900080610161002141618161C1610162416218
:1038A000FDF7A0FF08B1FDF7C1F800BF6C48206725
:1038B000846300BF002211463420FEF7E9F934206A
:1038C000FEF7D6F9C2E06749206888425ED1402001
:1038D00001900020129001A8FEF77EFA08B1FDF7D2
:1038E000A5F800BF5B48001D006840F01000594972
:1038F000091D08600846006800F01000009000BF35
:1039000000BF00BF53481038006840F00200514922
:10391000103908600846006800F00200009000BFFF
:1039200000BF4FF4404025900220269000202790B1
:10393000032028900420299025A94B48FDF7CAFFB1
:103940004A484B4908604FF00060486000214848F1
:103950008160C1604FF4806101610021416181613A
:10396000C16101624162FDF73DFF08B1FDF75EF8FC
:1039700000BF3F486067846300BF002211462520D6
:10398000FEF786F92520FEF773F95FE039492068D4
:1039900088425BD1802001900020139001A8FEF79F
:1039A0001BFA08B1FDF742F800BF2A48006840F44E
:1039B0000030284908600846006800F40030009094
:1039C00000BF00BF00BF23481038006840F0080067
:1039D0002049103908600846006800F0080000908F
:1039E00000BF00BF60202590022026900020279075
:1039F000032028900720299025A91F48FDF76AFF7A
:103A0000164818301D4908604FF0006048600021DA
:103A10001A488160C1604FF48061016100214161F9
:103A20008161C16101624162FDF7DCFE08B1FCF712
:103A3000FDFF00BF11486067846300BF002211468C
:103A40002620FEF725F92620FEF712F92AB010BD30
:103A5000004C004040380240001C024070600240B0
:103A6000F8040020001001400004024040640240BD
:103A70005805002000440040000C0240B80500201A
:103A8000704700BFFEE7000070B503460F2B03DC54
:103A9000032901DA0F2A01DD012070BD184800EB6F
:103AA0000110845CFF2C06D09C4204D0FF20154DF1
:103AB00005EB44156870134800EB43104078FF286D
:103AC0000CD0FF200F4D05EB43156D780C4E06EB27
:103AD00005150C4E06EB4316B678A855094800EBC1
:103AE00043100370074800EB43104170054800EB9A
:103AF00043108270024800EB011083540020CCE791
:103B000070160020640B002010B5044600231A46EE
:103B10004021204600F016FB10BD000001460F2991
:103B200005DC064800EB41104078FF2801D1002059
:103B30007047024800EB4110FAE70000640B0020D8
:103B400000B58BB04FF400712748FCF7BBFBFF2298
:103B500030212648FCF7AFFBFCF7D6FE002006E03C
:103B6000FF21214A02EB40125170411CC8B21028BB
:103B7000F6DB0020079001200890002001900290C1
:103B800003900490012009900E200A9000200690D6
:103B9000059001A91648FDF707F81548FDF761FCE7
:103BA00002211348FCF745FF0E20069000200590E7
:103BB00001A91048FCF7F8FF0E48FDF752FC02215E
:103BC0000C48FCF736FF00200690059001A90A4832
:103BD000FCF7EAFF0848FDF744FC02210648FCF721
:103BE00028FF00200BB000BD640B002070160020E1
:103BF0003C000020640000208C00002010B503462B
:103C0000002003F00F04204312B140F0100000E048
:103C100000BF084310BD0000B5EEC00AF1EE10FA77
:103C200003D2DFED0E0AB0EE600ADFED0D0AB4EE4E
:103C3000E00AF1EE10FA03DDDFED090AB0EE600AEA
:103C4000DFED080A60EE200A9FED051AC0EE811A2A
:103C5000FCEEE10A10EE900AC0B2704700000000CE
:103C600000004C4200007F43B5EEC00AF1EE10FAAE
:103C700003D2DFED0A0AB0EE600ADFED090AB4EE06
:103C8000E00AF1EE10FA03DDDFED050AB0EE600A9E
:103C9000FCEEC00A10EE900A80B2704700000000EF
:103CA00000C07F44DFED130AB4EEE00AF1EE10FA33
:103CB00003D2DFED100AB0EE600ADFED0F0AB4EEBA
:103CC000E00AF1EE10FA03DDDFED0B0AB0EE600A58
:103CD000DFED090A70EE200A9FED081A60EE810AF6
:103CE0009FED071AC0EE811AFCEEE10A10EE900A71
:103CF00080B27047000020C20000204200FF7F47D2
:103D00000000A042DFED130AB4EEE00AF1EE10FA73
:103D100003D2DFED100AB0EE600ADFED0F0AB4EE59
:103D2000E00AF1EE10FA03DDDFED0B0AB0EE600AF7
:103D3000DFED090A70EE200A9FED081A60EE810A95
:103D40009FED071AC0EE811AFCEEE10A10EE900A10
:103D500080B27047000020C20000204200FF7F4771
:103D60000000A04200EE100AB8EE400ADFED060A9D
:103D700020EE200ADFED050A80EE201A9FED040AEE
:103D800031EE000A704700000000A04200FF7F47AC
:103D9000000020C2B0F5801F00D3094800EE100AD1
:103DA000B8EE400ADFED070A20EE200ADFED060A32
:103DB00080EE201A9FED050A31EE000A70470000E0
:103DC000FFFF0F000000A042F0FF7F49000020C26B
:103DD000B0F5801F00D3094800EE100AB8EE400A83
:103DE000DFED070A20EE200ADFED060A80EE201A3A
:103DF0009FED050A31EE000A70470000FFFF0F003B
:103E00000000A042F0FF7F49000020C27F2800DDB3
:103E10007F2000EE100AB8EE400ADFED060A20EE21
:103E2000200ADFED050A80EE201ABBEE040A31EE0F
:103E3000000A704700005C430000FE42DFED130AF9
:103E4000B4EEE00AF1EE10FA03D2DFED100AB0EEA4
:103E5000600ADFED0F0AB4EEE00AF1EE10FA03DDBE
:103E6000DFED0B0AB0EE600ADFED090A70EE200A02
:103E70009FED081A60EE810A9FED071AC0EE811AC5
:103E8000FCEEE10A10EE900A80B27047000020C2FA
:103E90000000204200FC7F460000A0422DE9F043D4
:103EA0002DED068B83B00446B0EE40AAB0EE609ACA
:103EB000B0EE418BF0EE429A0020019002900F2C60
:103EC00005DD012003B0BDEC068BBDE8F083B0EE4C
:103ED0004A0AFFF7E7FE0546B0EE490AFFF7AEFFD4
:103EE0000646B0EE480AFFF7BFFE0746B0EE680A86
:103EF000FFF792FE8146B0EE690AFFF703FF8046A6
:103F0000E8B28DF80400280A8DF80500F0B28DF8AB
:103F1000060007F00300C6F3052141EA80108DF882
:103F20000700C7F387008DF808008DF8099008F0A6
:103F3000FF008DF80A004FEA18208DF80B000848A2
:103F400000EB441080ED068A054800EB4410C0EDFC
:103F5000078A082301AA8021204600F0F3F8B1E780
:103F6000640B00202DE9F041FDF7BAFD80460026E4
:103F700049E006EB861000EBC610254901EB8004F2
:103F800094F8020300B93CE0224951F82600FCF7FE
:103F900076FF00B935E094F8000300EB400004EB35
:103FA000C0056869A8EB0000C82810D994F8001370
:103FB000481CC11700EBD1614911A0EB411184F8F5
:103FC000001394F80203401E84F8020319E02B7CCE
:103FD000287805F10802696800F0DEF807467FB925
:103FE00094F80013481CC11700EBD1614911A0EBF4
:103FF000411184F8001394F80203401E84F8020370
:1040000000BF701CC6B2032EB3DBBDE8F081000018
:10401000640D0020280000202DE9F04F85B00446F3
:104020000E46376807F00F08C7F30010049027F01A
:104030001F09049810B905B0BDE8F08F3C488442D0
:1040400001D100250AE03B48844201D1012505E069
:104050003948844201D1022500E0ECE7C246B9F1BB
:10406000800F06D1B8F1100F03DBA8F1100000F0AB
:10407000FF0A324800EB051010F80A300F2B00DD64
:10408000D9E7B9F1800F4FD1306908284BD31078A8
:10409000517840EA0120917801F00F0140EA014B8C
:1040A00090780009D17840EA0111107941EA003096
:1040B00003905079917940EA01200290D07900F084
:1040C00001000190D079400800905846FFF762FE49
:1040D000F0EE401A0398FFF77BFEB0EE402A0298FC
:1040E000FFF740FEF0EE402A0098FFF78FFEB0EE9B
:1040F000403A134800EB4310C0ED011A104800EBA2
:10410000431080ED022A0E4800EB4310C0ED032A55
:104110000B4800EB431080ED043A094901EB4311D1
:104120000198087500BF00E000BF00BF00BF82E734
:104130003C000020640000208C000020701600204D
:10414000640B00202DE9F8430446884691461D463D
:104150000F2C01DC082D02DD0120BDE8F8830D489D
:1041600000EB44167078FF2801D10120F5E72B46BB
:104170004A464146204600F00FF80746022F07D175
:10418000009570784B4642462146FCF775FBE4E704
:104190003846E2E7640B00202DE9F0418AB006467C
:1041A000884617461C460020019002900F2E01DC25
:1041B000082C03DD01200AB0BDE8F081164800EBB1
:1041C00046156878FF2801D10120F4E76978134A81
:1041D00052F82100FCF753FE08B90220EBE7A8785B
:1041E00000224146FFF70AFD04900020059006904A
:1041F0000790089437B1002C04DD2246394601A807
:10420000FCF747F86978054A52F8210003AB01AA88
:1042100004A9FCF723FCCEE7640B00202800002053
:104220001FB500200090019002900390FDF7CAFC9A
:1042300001208DF8000000208DF8010001901F2062
:104240008DF8080087208DF8090000208DF80A00FD
:104250008DF80B0001208DF80C008DF80D0000206A
:104260008DF80E008DF80F006846FDF77DFC0420E8
:10427000FDF7BEFC1FBD000010B50E480E490860DA
:104280000620486000210C488160C1604FF4C021C5
:104290000161002141610176417601218176002191
:1042A000C17601774177FCF72CFF08B1FCF7BEFB24
:1042B00010BD0000006400403C00002010B50E4816
:1042C0000E4908600620486000210C488160C160EA
:1042D0004FF4C02101610021416101764176012145
:1042E00081760021C17601774177FCF70AFF08B19A
:1042F000FCF79CFB10BD000000680040640000203B
:1043000010B50E480E4908600620486000210C4890
:104310008160C1604FF4C0210161002141610176DB
:104320004176012181760021C17601774177FCF742
:10433000E8FE08B1FCF77AFB10BD00000034004035
:104340008C00002008B500BF1948006840F4001038
:10435000174908600846006800F40010009000BF8C
:1043600000BF00BF0846006840F4800008600846AF
:10437000006800F48000009000BF00BF00221146DA
:104380000F20FDF785FC0F20FDF772FC002211467F
:104390001020FDF77DFC1020FDF76AFC002211467D
:1043A0003A20FDF775FC3A20FDF762FC08BD0000DD
:1043B0003038024008B500BF2048006840F00400D3
:1043C0001E4908600846006800F00400009000BF25
:1043D00000BF00BF0846006840F080000860084643
:1043E000006800F08000009000BF00BF00BF0846DA
:1043F000006840F0020008600846006800F0020013
:10440000009000BF00BF00BF0846006840F00100F8
:1044100008600846006800F00100009000BF00BF7F
:1044200000BF0846006840F00800086008460068C1
:1044300000F00800009000BF00BF08BD3038024007
:1044400010B50A480A490860D7204860002108488A
:10445000816041F28731C160002101618021816169
:10446000FEF7BEFC08B1FCF7E1FA10BD00440140C4
:104470001403002000B587B000200390049005903D
:104480000690009001900290154816490860D720C8
:10449000486000211348816040F2E731C16000218B
:1044A0000161416180218161FEF79AFC08B1FCF74E
:1044B000BDFA4FF48050039003A90A48FEF73EFE70
:1044C00008B1FCF7B3FA0020009001900290694611
:1044D0000448FEF71FFC08B1FCF7A8FA07B000BDBE
:1044E00000000140B400002000B587B00020039018
:1044F0000490059006900090019002904FF080404B
:10450000144908606B20486000211248816040F225
:10451000CF71C1600021016180218161FEF760FCE3
:1045200008B1FCF783FA4FF48050039003A90948BF
:10453000FEF704FE08B1FCF779FA00200090029023
:1045400069460448FEF7E6FB08B1FCF76FFA07B0CE
:1045500000BD00000001002000B587B000200390DE
:10456000049005900690009001900290144815491F
:1045700008606B20486000211248816040F2CF71D2
:10458000C1600021016180218161FEF729FC08B131
:10459000FCF74CFA4FF48050039003A90948FEF74A
:1045A000CDFD08B1FCF742FA002000900290694668
:1045B0000448FEF7AFFB08B1FCF738FA07B000BDBE
:1045C000000400404C01002000B587B0002003909B
:1045D00004900590069000900190029014481549AF
:1045E00008606B20486000211248816041F28731E9
:1045F000C1600021016180218161FEF7F1FB08B1FA
:10460000FCF714FA4FF48050039003A90948FEF711
:1046100095FD08B1FCF70AFA002000900290694667
:104620000448FEF777FB08B1FCF700FA07B000BDBD
:10463000000800409801002000B587B000200390DA
:10464000049005900690009001900290144815493E
:1046500008606B20486000211248816041F2873178
:10466000C1600021016180218161FEF7B9FB08B1C1
:10467000FCF7DCF94FF48050039003A90948FEF7DA
:104680005DFD08B1FCF7D2F9002000900290694668
:104690000448FEF73FFB08B1FCF7C8F907B000BDBE
:1046A000000C0040E40100200EB5002000900190B5
:1046B00002900E480E4908606B20486000210C48AB
:1046C000816041F28731C16080218161FEF788FB02
:1046D00008B1FCF7ABF9002000900290694604484D
:1046E000FEF718FB08B1FCF7A1F90EBD0010004061
:1046F000300200200EB500200090019002900E487C
:104700000E4908606B20486000210C48816041F22E
:104710008731C16080218161FEF762FB08B1FCF73F
:1047200085F900200090029069460448FEF7F2FAED
:1047300008B1FCF77BF90EBD001400407C0200209C
:104740001FB5002000900190029003900F4810497F
:104750000860D720486000210D48816040F2E731B1
:10476000C1600021016180218161FEF739FB08B140
:10477000FCF75CF94FF48050009069460448FEF75E
:10478000DDFC08B1FCF752F91FBD000000400140FC
:10479000C802002010B50D480D4908604FF4E13003
:1047A000486000210A488160C16001610C214161BB
:1047B00000218161C161016200200549486208460B
:1047C000FEF7DAFF08B1FCF731F910BD004C0040EC
:1047D0006003002010B50D480D4908604FF4E1203A
:1047E000486000210A488160C16001610C2141617B
:1047F00000218161C16101620020054948620846CB
:10480000FEF7BAFF08B1FCF711F910BD0010014026
:10481000E803002010B50E480E4908600E484860B5
:104820004FF480510B4881604900C160C91001619B
:104830000C21416100218161C161016200200549B3
:1048400048620846FEF798FF08B1FCF7EFF810BD84
:104850000044004070040020A086010000BFFEE775
:1048600000BFFEE77047704710B5FDF73FF910BD78
:1048700000B593B0342106A8FBF724FD142101A84C
:10488000FBF720FDFDF79EFA00BF2648006840F0C8
:104890008050244908600846006800F0805000906D
:1048A00000BF00BF00BF2048006840F440401E49E0
:1048B00008600846006800F44040009000BF00BF58
:1048C000012006900004079002200C9041050D91F4
:1048D00019210E914FF4D8710F910221109111916D
:1048E000129106A8FDF76EFF08B1FCF79FF8FDF7DF
:1048F00021FA08B1FCF79AF80F20019002200290EB
:10490000002003904FF4A05004904FF48050059085
:10491000072101A8FDF70EFE08B1FCF787F813B0D8
:1049200000BD0000403802400070004003480068AD
:1049300040F47000014908607047000088ED00E015
:1049400010B50348FEF783FC0248FEF780FC10BD5B
:10495000B4000020C802002010B50348FEF777FC21
:104960000248FEF774FC10BDB400002014030020C0
:1049700010B50248FEF76BFC10BD000000010020DE
:1049800010B50248FEF763FC10BD00004C0100208A
:1049900010B50248FEF75BFC10BD00009801002036
:1049A00010B50248FEF753FC10BD0000E4010020E2
:1049B00010B50248FEF74BFC10BD0000300200208D
:1049C00010B50248FEF743FC10BD00007C02002039
:1049D00010B502682D4B98420ED0B0F1804F0BD02D
:1049E0002B4B984208D02B4B984205D02A4B98422B
:1049F00002D02A4B984203D122F070024B681A432E
:104A0000224B984220D0B0F1804F1DD0204B9842CD
:104A10001AD0204B984217D01F4B984214D01F4BEE
:104A2000984211D01E4B98420ED01E4B98420BD08C
:104A30001D4B984208D01D4B984205D01C4B984204
:104A400002D01C4B984203D122F44072CB681A4327
:104A500022F080034C6943EA040202608B68C3625F
:104A60000B688362094B984202D00C4B984201D1EB
:104A70000B69036301234361036903F001031BB165
:104A8000036923F00103036110BD00000000014031
:104A90000004004000080040000C004000040140F9
:104AA000004001400044014000480140001800401F
:104AB000001C00400020004030B50C46816821F405
:104AC0007F4142EA032525432943816030BD0A46E0
:104AD000816821F0700142F007031943816070473B
:104AE00030B50B461446026A056A25F001050562D9
:104AF000816921F0F00141EA041122F00A021A430F
:104B00008161026230BD30B50B461446026A056A07
:104B100025F010050562816921F4704141EA0431F4
:104B200022F0A00242EA03128161026230BD00005D
:104B300010B50248FEF778FC10BD000060030020AD
:104B400090F8241001F00801082907D1016849688C
:104B500021F40041426B11430268516090F8241027
:104B600001F0010139B10168496821F40031826A1C
:104B700011430268516090F8241001F002010229EB
:104B800007D10168496821F48031C26A1143026883
:104B9000516090F8241001F00401042907D1016844
:104BA000496821F48021026B11430268516090F83A
:104BB000241001F01001102907D10168896821F43F
:104BC0008051826B11430268916090F8241001F0CB
:104BD0002001202907D10168896821F40051C26BA6
:104BE00011430268916090F8241001F040014029BF
:104BF00013D10168496821F48011026C11430268E5
:104C00005160016CB1F5801F07D10168496821F43A
:104C1000C001426C11430268516090F8241001F009
:104C20008001802907D10168496821F40021826C44
:104C3000114302685160704738B504460020C4F83B
:104C40008400FCF74DFF05462068006800F008006E
:104C5000082820D16FF07E402B4600224FF400112F
:104C60000090204600F050FAA8B100BF00BF2168B4
:104C700051E8001F21F08000226842E8000100296D
:104C8000F5D100BF2020E06700BF002084F8780045
:104C900000BF032038BD2068006800F0040004282D
:104CA00030D16FF07E402B4600224FF480010090FF
:104CB000204600F029FA28B300BF00BF216851E860
:104CC000001F21F49070226842E800010029F5D10C
:104CD00000BF00BF00BF2168083151E8001F21F06C
:104CE00001002168083141E80002002AF3D100BF29
:104CF0002020C4F8800000BF002084F8780000BFA6
:104D00000320C7E72020E067C4F880000020206669
:104D1000606600BF84F8780000BF00BFBAE770B5D6
:104D20000546AC6B0020A4F85A00A4F852002046B7
:104D3000FEF779FB70BD00BF00BF026852E8002F8C
:104D400022F49071036843E80012002AF5D100BFF5
:104D500000BF00BF0268083252E8002F22F00101B4
:104D60000268083242E80013002BF3D100BF016E45
:104D700001290CD100BF00BF026852E8002F22F0C9
:104D80001001036843E80012002AF5D100BF20217A
:104D9000C0F88010002101668166704710B5044696
:104DA00000BF00BF216851E8001F21F040002268C9
:104DB00042E800010029F5D100BF2020E067002073
:104DC000E0662046FEF75CFE10BD00002DE9F047CE
:104DD00005464FF0000A2969A86808436969084335
:104DE000E96940EA010828680068BC49084040EACF
:104DF0000800296808602868406820F44050E96885
:104E0000084329684860D5F81880286A40EA0808ED
:104E10002868806820F4306040EA080029688860CB
:104E200000BFAF492868884216D1AE48006800F03C
:104E3000030030B1012808D0022804D0032808D18B
:104E400005E0012407E0022405E0042403E008242F
:104E500001E0102400BFC9E0A3492868884216D1A8
:104E6000A048006800F00C0030B1042808D00828E1
:104E700004D00C2808D105E0002407E0022405E056
:104E8000042403E0082401E0102400BFAEE09749A9
:104E90002868884216D19348006800F0300030B18D
:104EA000102808D0202804D0302808D105E000249C
:104EB00007E0022405E0042403E0082401E01024B4
:104EC00000BF93E08A492868884216D18548006867
:104ED00000F0C00030B1402808D0802804D0C0289D
:104EE00008D105E0002407E0022405E0042403E0E3
:104EF000082401E0102400BF78E07E492868884239
:104F000019D17848006800F4407048B1B0F5807F4E
:104F10000AD0B0F5007F05D0B0F5407F08D105E09C
:104F2000002407E0022405E0042403E0082401E053
:104F3000102400BF5AE070492868884219D1694896
:104F4000006800F4406048B1B0F5806F0AD0B0F559
:104F5000006F05D0B0F5406F08D105E0012407E0EF
:104F6000022405E0042403E0082401E0102400BF2B
:104F70003CE062492868884219D15A48006800F428
:104F8000405048B1B0F5805F0AD0B0F5005F05D061
:104F9000B0F5405F08D105E0002407E0022405E0F9
:104FA000042403E0082401E0102400BF1EE054495B
:104FB0002868884219D14B48006800F4404048B145
:104FC000B0F5804F0AD0B0F5004F05D0B0F5404F96
:104FD00008D105E0002407E0022405E0042403E0F2
:104FE000082401E0102400BF00E0102400BFE8699D
:104FF000B0F5004F39D1092C17D2DFE804F00509CC
:105000000D160F1616161300FDF764FB064610E08A
:10501000FDF770FB06460CE03A4E0AE0FDF77AFB1E
:10502000064606E04FF4004603E000264FF0010A72
:1050300000BF00BF86B37000696800EB5100B0FB91
:10504000F1F7102F0ED3B7F5803F0BD24FF6F0706B
:1050500007EA0009C7F3420049EA00092868C0F8D6
:105060000C9034E04FF0010A31E0092C18D2DFE84F
:1050700004F005090D170F1717171400FDF72AFB89
:10508000064611E0FDF736FB06460DE01D4E0BE02F
:10509000FDF740FB064607E019E04FF4004603E049
:1050A00000264FF0010A00BF00BF86B1686806EB1A
:1050B00050006968B0FBF1F7102F06D3B7F5803FB9
:1050C00003D2B8B22968C86001E04FF0010A00209D
:1050D000A866E8665046BDE8F0870000F369FFEF78
:1050E0000010014090380240004400400048004059
:1050F000004C004000500040001401400078004087
:10510000007C00400024F4002DE9F04104460D46E7
:1051100017469846069E41E0701C00283ED0FCF7DA
:10512000DFFCA0EB0800B04200D816B90320BDE8B0
:10513000F0812068006800F0040070B3802D2DD04D
:10514000402D2BD02068C069C0F3C00078B1082082
:10515000216808622046FFF7EEFD0820C4F88400AD
:1051600000BF002084F8780000BF0120DFE720683E
:10517000C069C0F3C02080B14FF4006021680862AC
:105180002046FFF7D8FD2020C4F8840000BF00208F
:1051900084F8780000BF0320C9E7FFE72068C069F2
:1051A0002840A84201D1012000E00020B842B3D03D
:1051B0000020BCE710B50248FEF736F910BD00002C
:1051C000E803002010B50248FEF72EF910BD0000DC
:1051D0007004002000BFFEE70FB4054B10B503A913
:1051E000044A029801F044FC10BC5DF814FB000076
:1051F000657600083400002003B40198410000984F
:1052000050EAC12018BF04204A0D18BF40F0010029
:1052100040F2FF72B2EB515F08BF40F0020001287C
:1052200008BF052002B070474100080218BF0420E3
:105230000A0E18BF40F001004FF07F4232EA010130
:1052400008BF40F00200012808BF05207047000099
:1052500002480068C0F30220704700000CED00E037
:1052600010B5002804DB0A07130E054A135406E0A4
:105270000A07140E034A00F00F031B1FD45410BD7D
:1052800000E400E018ED00E010B510EE104A4FF019
:105290001A402DED028B00EB4400B0F1C85F4AD8F4
:1052A0004FF0FC40B0EB440F22D2B0EEC00ADFED6D
:1052B000310A30EEC00ADFED300A20EE208A18EE07
:1052C000100A03F05DF800EE100A14F0004F1DBF45
:1052D0009FED2A1ADFED2A0AB1EE400A9FED291A46
:1052E00008BFF0EE410ADFED281A20EE210A05E0A2
:1052F00020EE008A9FED251ADFED250ADFED251A45
:105300009FED252A70EEC00A20EE080A08EE212A39
:10531000DFED221A48EE021A9FED212A08EE212A1B
:10532000DFED201A48EE021ABDEC028B40EE610A56
:1053300030EE810A10BD4FF0CC40B0EB440F82BF7D
:105340009FED190ABDEC028B10BD4FF07F40B0EB12
:10535000440F05D2BDEC028BBDE8104001F0E8B966
:10536000012001F0BDFABDEC028BBDE8104001F058
:10537000E5B900000000803F0000003F0000494008
:1053800022AA7D3A00000000000000C00000C93FD2
:1053900022AAFD3924FE1C3DC78AD83C1E67383D31
:1053A0001B93993DAFAA2A3EDB0FC93F10EE100AAE
:1053B00010B510EE901A4FF0684202EB40032DED4D
:1053C000028BB3F1654F3CBF02EB4102B2F1654F76
:1053D0007CD200BFC0F3C753C1F3C7529A1A1B2A2D
:1053E00009DD10F0004F14BF9FED6E0A9FED6E0AAD
:1053F000BDEC028B10BD12F11A0F1BDA11F0004F39
:1054000009D010F0004F0CBF9FED680A9FED680AAD
:10541000BDEC028B10BD80EE208A18EE100AFFF75B
:1054200003FF042808BF01F099F9B0EE480ABDEC6B
:10543000028B10BD4200B2EB410F37D910F0004F84
:1054400019BFDFED5C1A9FED5C1ADFED5C1A9FED72
:105450005C1AB0EE602A0A46F1EE400A80F0004184
:10546000B0EE420A10460A1A5200B2F1807F34D2DE
:10547000484010F0004FDFED532A9FED533A1DBF17
:105480009FED522A71EEE21A31EE431A9FED502A37
:1054900004BF71EEA21A31EE031AF0EE402A42EE7A
:1054A000602A40EE020A82EEA02A18E011F0004FB6
:1054B00004BF9FED481AF0EE411AD4D010F0004F0F
:1054C0001CBFDFED451A9FED451A00E026E004BF42
:1054D000DFED431A9FED431AC5E780EE202A22EE46
:1054E000020ADFED410ADFED412ABDEC028B40EEFE
:1054F000202ADFED3F0A40EE220ADFED3E2A40EE91
:10550000202ADFED3D0A40EE220A22EE000A00EEDC
:10551000201A31EE020A30EE210A10BD4FF07F4210
:10552000B2EB400F28BFB2EB410F05D2BDEC028BAE
:10553000BDE8104001F0FFB840EA01035B0008BF7E
:1055400041F0FF410BD0B2EB400F08BFB2EB410F6F
:1055500008D120F0804000EE100A21F0804100EEDA
:10556000901A37E7B2EB400F12BF5FEA410240F0FA
:10557000FF4001F000413FF42DAF4A0092EA4003A2
:105580003FF528AF002AACBF9FED1C1A9FED1C1AF7
:1055900020EE010A60EE810A10EE100A10EE901A59
:1055A00018E70000DB0FC9BFDB0FC93FDB0F494025
:1055B000DB0F49C00000C9BF22AAFDB90000C93FE6
:1055C00022AAFD390060ED3EC30ACE37000000BFBD
:1055D0000000003F00000000000049C022AA7DBA80
:1055E0000000494022AA7D3A2DAD65BD8FB8D53D5A
:1055F0000FB511BE61C84C3EA8AAAABE0000804FDC
:105600000000802F0000000010B529499FED261BE7
:105610002DED020B84B0059820F000408842D8BFE1
:105620009DED040B2DDD2349884209D1049840B932
:105630004FF0010001F054F901F056F806B010BD2A
:1056400005DB9DED040B30EE000B06B010BD684687
:105650009DED040B00F0C4FD10F0030004BF9DEDB0
:10566000021B9DED000B0CD001280ED09DED021BFE
:105670009DED000B022810D0012000F0E1FF06B0E4
:1056800010BD00F035FF06B010BD9DED021B9DED75
:10569000000B012000F0D4FF01E000F029FF06B06C
:1056A000B1EE400B10BD0000000000000000000043
:1056B000FB21E93F0000F07F10EE101A08B5434AC5
:1056C0006846B2EB410F26D94FF0E640B0EB410FF0
:1056D00094BF00204FF0FF3000900098DFED3C0AAF
:1056E000002860DB10F0010F46D060EE000ADFED0D
:1056F000391A9FED391A10F0020F00EEE11ADFEDB2
:10570000371A40EE811A21EEA01AF0EE400A40EE60
:10571000010A2ED041E0324B21F0004293423FD9A2
:1057200011F0004FDFED2F0A20EE201ADFED2E0AD8
:1057300019BF31EE601A71EE200A31EE201A71EEB7
:10574000600ABDEEE01A11EE100A9FED281A00F073
:10575000030000EEC10A9FED261A009000EEC10A78
:105760009FED241A00EEC10A9FED231A00EEC10A34
:10577000B3E7F1EE600A10E020EE000A9FED1F1A79
:10578000DFED1F1A10F0020F40EE011A9FED1D1AF7
:1057900000EE211A40EE010AEBD1B0EE600A08BD1E
:1057A00000F0E4FF99E710EE100A4000B0F17F4FDF
:1057B000F3D307D14FF0010001F092F8BDE80840A3
:1057C00000F0BCBFBDE8084000F0B2BFB61F927E3B
:1057D0000000803F336D4C39DA82083CA0AA2ABE13
:1057E000490E494683F9223F0000004B0000C93FA3
:1057F00000A0FD390020A2331A61342CB93AB2BAA4
:10580000CA9F2A3DDDFFFFBE10B52DED040B86B00B
:105810009DED060B10EE101A10EE900A8DED000BA8
:10582000002918BF0121084320F00040C0F17F602B
:1058300000F1E040C00F21D19DED080B10EE101AD1
:1058400010EE900A8DED000B002918BF01210843CE
:1058500020F00040C0F17F6000F1E040C00F0DD1AA
:1058600027490798B1EB400F04BF069800283ED0A7
:105870000998400004BF0898002838D09DED080B17
:1058800053EC102B9DED060B51EC100BFAF7E2FEDA
:10589000CDE902019DED020B40F2FF7110EE900A7E
:1058A0008DED000B31EA10501DD00798039900F0E0
:1058B000004001F00041884215D09DED080B8DEDB0
:1058C000040B9DED020B8DED000B10EE900A059977
:1058D00061F31E0005909DED040B9DED021B31EE62
:1058E000400B8DED020B9DED020B0AB010BD0120A7
:1058F00000F0F6FF0AB0BDE8104000F0F5BE000071
:105900000000E0FF10B52DED088B9FEDFE1A10EEA4
:10591000100A10EE901AB0EE418A0022A0F5000C99
:105920004FF00073DFEDF89ABCF1FE4F4FF07F446B
:1059300003EB410C80F0A481BCF1804FC0F01882D1
:10594000F24901449FEDF23A9FEDF2AAB1F5005FF2
:1059500040F2CA8200F58021CB0C03F00F0100EE6B
:10596000101AC3F307137F3BA0EBC350B8EEC02A55
:1059700001EE900A1A44DFEDE82AB0EE410A02EE89
:10598000220AF0EE403A31EEA30A31EEE32A10EE9D
:10599000100A00F500606FF30B0002EE900A73EE40
:1059A000E23A73EEA13AC1EE001A22EE210A10EE9D
:1059B000100A00F500606FF30B0000EE100A00EE15
:1059C000622A00EE632A62EE212A70EE221A21EE8C
:1059D000A12ADFEDD23A02EE233A23EE023A20EE7C
:1059E000012A22EE811A03EE211A32EE010A10EE8C
:1059F000100A00F500606FF30B0000EE100A72EE63
:105A0000401A31EE812A9FEDC61A60EE011A9FED11
:105A1000C51A20EE011A9FEDC40A02EE001A31EEFB
:105A2000810A10EE100A00F500606FF30B0000EE23
:105A3000100ABE4871EEC01A31EE812A784400EB9C
:105A4000C10090ED003AD0ED011A100101EE100AEC
:105A5000F8EEC12A32EE211A31EE001A31EE031AA5
:105A600031EE221A11EE100A00F500606FF30B0000
:105A700008EE900A38EEE21A31EE431A31EE400A8F
:105A800030EE610A72EE40AA10EE900A002100F595
:105A900000606FF30B0009EE100A084630EEC9BA39
:105AA000FAF74CFE28EE890A00F00C01F0EEC00A6D
:105AB00010EE900AB0F18B4F0FDD10EE900AB4EBB0
:105AC000400F0AD310EE100A4FF08B42B0EE699AE5
:105AD00062F31E0008EE900A13E068EE8B0A39EEBE
